{
	"contracts/Voting.sol": {
		"Voting": {
			"abi": [
				{
					"inputs": [],
					"stateMutability": "nonpayable",
					"type": "constructor"
				},
				{
					"inputs": [
						{
							"internalType": "address",
							"name": "owner",
							"type": "address"
						}
					],
					"name": "OwnableInvalidOwner",
					"type": "error"
				},
				{
					"inputs": [
						{
							"internalType": "address",
							"name": "account",
							"type": "address"
						}
					],
					"name": "OwnableUnauthorizedAccount",
					"type": "error"
				},
				{
					"anonymous": false,
					"inputs": [
						{
							"indexed": true,
							"internalType": "address",
							"name": "previousOwner",
							"type": "address"
						},
						{
							"indexed": true,
							"internalType": "address",
							"name": "newOwner",
							"type": "address"
						}
					],
					"name": "OwnershipTransferred",
					"type": "event"
				},
				{
					"anonymous": false,
					"inputs": [
						{
							"indexed": false,
							"internalType": "uint256",
							"name": "proposalId",
							"type": "uint256"
						}
					],
					"name": "ProposalRegistered",
					"type": "event"
				},
				{
					"anonymous": false,
					"inputs": [
						{
							"indexed": true,
							"internalType": "address",
							"name": "voter",
							"type": "address"
						},
						{
							"indexed": false,
							"internalType": "uint256",
							"name": "proposalId",
							"type": "uint256"
						}
					],
					"name": "Voted",
					"type": "event"
				},
				{
					"anonymous": false,
					"inputs": [
						{
							"indexed": true,
							"internalType": "address",
							"name": "voterAddress",
							"type": "address"
						}
					],
					"name": "VoterRegistered",
					"type": "event"
				},
				{
					"anonymous": false,
					"inputs": [
						{
							"indexed": false,
							"internalType": "enum Voting.WorkflowStatus",
							"name": "previousStatus",
							"type": "uint8"
						},
						{
							"indexed": false,
							"internalType": "enum Voting.WorkflowStatus",
							"name": "newStatus",
							"type": "uint8"
						}
					],
					"name": "WorkflowStatusChange",
					"type": "event"
				},
				{
					"inputs": [],
					"name": "endProposalsRegistration",
					"outputs": [],
					"stateMutability": "nonpayable",
					"type": "function"
				},
				{
					"inputs": [],
					"name": "endVotingSession",
					"outputs": [],
					"stateMutability": "nonpayable",
					"type": "function"
				},
				{
					"inputs": [],
					"name": "getWinner",
					"outputs": [
						{
							"internalType": "uint256",
							"name": "",
							"type": "uint256"
						}
					],
					"stateMutability": "view",
					"type": "function"
				},
				{
					"inputs": [],
					"name": "owner",
					"outputs": [
						{
							"internalType": "address",
							"name": "",
							"type": "address"
						}
					],
					"stateMutability": "view",
					"type": "function"
				},
				{
					"inputs": [
						{
							"internalType": "uint256",
							"name": "",
							"type": "uint256"
						}
					],
					"name": "proposals",
					"outputs": [
						{
							"internalType": "string",
							"name": "description",
							"type": "string"
						},
						{
							"internalType": "uint256",
							"name": "voteCount",
							"type": "uint256"
						}
					],
					"stateMutability": "view",
					"type": "function"
				},
				{
					"inputs": [
						{
							"internalType": "string",
							"name": "_description",
							"type": "string"
						}
					],
					"name": "registerProposal",
					"outputs": [],
					"stateMutability": "nonpayable",
					"type": "function"
				},
				{
					"inputs": [
						{
							"internalType": "address",
							"name": "_voterAddress",
							"type": "address"
						}
					],
					"name": "registerVoter",
					"outputs": [],
					"stateMutability": "nonpayable",
					"type": "function"
				},
				{
					"inputs": [],
					"name": "renounceOwnership",
					"outputs": [],
					"stateMutability": "nonpayable",
					"type": "function"
				},
				{
					"inputs": [],
					"name": "revokeVote",
					"outputs": [],
					"stateMutability": "nonpayable",
					"type": "function"
				},
				{
					"inputs": [],
					"name": "startProposalsRegistration",
					"outputs": [],
					"stateMutability": "nonpayable",
					"type": "function"
				},
				{
					"inputs": [],
					"name": "startVotingSession",
					"outputs": [],
					"stateMutability": "nonpayable",
					"type": "function"
				},
				{
					"inputs": [],
					"name": "tallyVotes",
					"outputs": [],
					"stateMutability": "nonpayable",
					"type": "function"
				},
				{
					"inputs": [
						{
							"internalType": "address",
							"name": "newOwner",
							"type": "address"
						}
					],
					"name": "transferOwnership",
					"outputs": [],
					"stateMutability": "nonpayable",
					"type": "function"
				},
				{
					"inputs": [
						{
							"internalType": "uint256",
							"name": "_proposalId",
							"type": "uint256"
						}
					],
					"name": "vote",
					"outputs": [],
					"stateMutability": "nonpayable",
					"type": "function"
				},
				{
					"inputs": [
						{
							"internalType": "address",
							"name": "",
							"type": "address"
						}
					],
					"name": "voters",
					"outputs": [
						{
							"internalType": "bool",
							"name": "isRegistered",
							"type": "bool"
						},
						{
							"internalType": "bool",
							"name": "hasVoted",
							"type": "bool"
						},
						{
							"internalType": "uint256",
							"name": "votedProposalId",
							"type": "uint256"
						}
					],
					"stateMutability": "view",
					"type": "function"
				},
				{
					"inputs": [],
					"name": "winningProposalId",
					"outputs": [
						{
							"internalType": "uint256",
							"name": "",
							"type": "uint256"
						}
					],
					"stateMutability": "view",
					"type": "function"
				},
				{
					"inputs": [],
					"name": "workflowStatus",
					"outputs": [
						{
							"internalType": "enum Voting.WorkflowStatus",
							"name": "",
							"type": "uint8"
						}
					],
					"stateMutability": "view",
					"type": "function"
				}
			],
			"devdoc": {
				"errors": {
					"OwnableInvalidOwner(address)": [
						{
							"details": "The owner is not a valid owner account. (eg. `address(0)`)"
						}
					],
					"OwnableUnauthorizedAccount(address)": [
						{
							"details": "The caller account is not authorized to perform an operation."
						}
					]
				},
				"kind": "dev",
				"methods": {
					"owner()": {
						"details": "Returns the address of the current owner."
					},
					"renounceOwnership()": {
						"details": "Leaves the contract without owner. It will not be possible to call `onlyOwner` functions. Can only be called by the current owner. NOTE: Renouncing ownership will leave the contract without an owner, thereby disabling any functionality that is only available to the owner."
					},
					"transferOwnership(address)": {
						"details": "Transfers ownership of the contract to a new account (`newOwner`). Can only be called by the current owner."
					}
				},
				"version": 1
			},
			"evm": {
				"assembly": "    /* \"contracts/Voting.sol\":117:4996  contract Voting is Ownable(msg.sender) {... */\n  mstore(0x40, 0x80)\n    /* \"contracts/Voting.sol\":748:830  constructor() {... */\n  callvalue\n  dup1\n  iszero\n  tag_1\n  jumpi\n  0x00\n  dup1\n  revert\ntag_1:\n  pop\n    /* \"contracts/Voting.sol\":144:154  msg.sender */\n  caller\n    /* \"@openzeppelin/contracts/access/Ownable.sol\":1297:1298  0 */\n  0x00\n    /* \"@openzeppelin/contracts/access/Ownable.sol\":1273:1299  initialOwner == address(0) */\n  0xffffffffffffffffffffffffffffffffffffffff\n  and\n    /* \"@openzeppelin/contracts/access/Ownable.sol\":1273:1285  initialOwner */\n  dup2\n    /* \"@openzeppelin/contracts/access/Ownable.sol\":1273:1299  initialOwner == address(0) */\n  0xffffffffffffffffffffffffffffffffffffffff\n  and\n  sub\n    /* \"@openzeppelin/contracts/access/Ownable.sol\":1269:1364  if (initialOwner == address(0)) {... */\n  tag_5\n  jumpi\n    /* \"@openzeppelin/contracts/access/Ownable.sol\":1350:1351  0 */\n  0x00\n    /* \"@openzeppelin/contracts/access/Ownable.sol\":1322:1353  OwnableInvalidOwner(address(0)) */\n  mload(0x40)\n  0x1e4fbdf700000000000000000000000000000000000000000000000000000000\n  dup2\n  mstore\n  0x04\n  add\n  tag_6\n  swap2\n  swap1\n  tag_7\n  jump\t// in\ntag_6:\n  mload(0x40)\n  dup1\n  swap2\n  sub\n  swap1\n  revert\n    /* \"@openzeppelin/contracts/access/Ownable.sol\":1269:1364  if (initialOwner == address(0)) {... */\ntag_5:\n    /* \"@openzeppelin/contracts/access/Ownable.sol\":1373:1405  _transferOwnership(initialOwner) */\n  tag_8\n    /* \"@openzeppelin/contracts/access/Ownable.sol\":1392:1404  initialOwner */\n  dup2\n    /* \"@openzeppelin/contracts/access/Ownable.sol\":1373:1391  _transferOwnership */\n  shl(0x20, tag_9)\n    /* \"@openzeppelin/contracts/access/Ownable.sol\":1373:1405  _transferOwnership(initialOwner) */\n  0x20\n  shr\n  jump\t// in\ntag_8:\n    /* \"@openzeppelin/contracts/access/Ownable.sol\":1225:1412  constructor(address initialOwner) {... */\n  pop\n    /* \"contracts/Voting.sol\":790:822  WorkflowStatus.RegisteringVoters */\n  0x00\n    /* \"contracts/Voting.sol\":773:787  workflowStatus */\n  dup1\n  0x14\n    /* \"contracts/Voting.sol\":773:822  workflowStatus = WorkflowStatus.RegisteringVoters */\n  0x0100\n  exp\n  dup2\n  sload\n  dup2\n  0xff\n  mul\n  not\n  and\n  swap1\n  dup4\n  0x05\n  dup2\n  gt\n  iszero\n  tag_11\n  jumpi\n  tag_12\n  tag_13\n  jump\t// in\ntag_12:\ntag_11:\n  mul\n  or\n  swap1\n  sstore\n  pop\n    /* \"contracts/Voting.sol\":117:4996  contract Voting is Ownable(msg.sender) {... */\n  jump(tag_14)\n    /* \"@openzeppelin/contracts/access/Ownable.sol\":2912:3099  function _transferOwnership(address newOwner) internal virtual {... */\ntag_9:\n    /* \"@openzeppelin/contracts/access/Ownable.sol\":2985:3001  address oldOwner */\n  0x00\n    /* \"@openzeppelin/contracts/access/Ownable.sol\":3004:3010  _owner */\n  dup1\n  0x00\n  swap1\n  sload\n  swap1\n  0x0100\n  exp\n  swap1\n  div\n  0xffffffffffffffffffffffffffffffffffffffff\n  and\n    /* \"@openzeppelin/contracts/access/Ownable.sol\":2985:3010  address oldOwner = _owner */\n  swap1\n  pop\n    /* \"@openzeppelin/contracts/access/Ownable.sol\":3029:3037  newOwner */\n  dup2\n    /* \"@openzeppelin/contracts/access/Ownable.sol\":3020:3026  _owner */\n  0x00\n  dup1\n    /* \"@openzeppelin/contracts/access/Ownable.sol\":3020:3037  _owner = newOwner */\n  0x0100\n  exp\n  dup2\n  sload\n  dup2\n  0xffffffffffffffffffffffffffffffffffffffff\n  mul\n  not\n  and\n  swap1\n  dup4\n  0xffffffffffffffffffffffffffffffffffffffff\n  and\n  mul\n  or\n  swap1\n  sstore\n  pop\n    /* \"@openzeppelin/contracts/access/Ownable.sol\":3083:3091  newOwner */\n  dup2\n    /* \"@openzeppelin/contracts/access/Ownable.sol\":3052:3092  OwnershipTransferred(oldOwner, newOwner) */\n  0xffffffffffffffffffffffffffffffffffffffff\n  and\n    /* \"@openzeppelin/contracts/access/Ownable.sol\":3073:3081  oldOwner */\n  dup2\n    /* \"@openzeppelin/contracts/access/Ownable.sol\":3052:3092  OwnershipTransferred(oldOwner, newOwner) */\n  0xffffffffffffffffffffffffffffffffffffffff\n  and\n  0x8be0079c531659141344cd1fd0a4f28419497f9722a3daafe3b4186f6b6457e0\n  mload(0x40)\n  mload(0x40)\n  dup1\n  swap2\n  sub\n  swap1\n  log3\n    /* \"@openzeppelin/contracts/access/Ownable.sol\":2975:3099  {... */\n  pop\n    /* \"@openzeppelin/contracts/access/Ownable.sol\":2912:3099  function _transferOwnership(address newOwner) internal virtual {... */\n  pop\n  jump\t// out\n    /* \"#utility.yul\":7:133   */\ntag_16:\n    /* \"#utility.yul\":44:51   */\n  0x00\n    /* \"#utility.yul\":84:126   */\n  0xffffffffffffffffffffffffffffffffffffffff\n    /* \"#utility.yul\":77:82   */\n  dup3\n    /* \"#utility.yul\":73:127   */\n  and\n    /* \"#utility.yul\":62:127   */\n  swap1\n  pop\n    /* \"#utility.yul\":7:133   */\n  swap2\n  swap1\n  pop\n  jump\t// out\n    /* \"#utility.yul\":139:235   */\ntag_17:\n    /* \"#utility.yul\":176:183   */\n  0x00\n    /* \"#utility.yul\":205:229   */\n  tag_22\n    /* \"#utility.yul\":223:228   */\n  dup3\n    /* \"#utility.yul\":205:229   */\n  tag_16\n  jump\t// in\ntag_22:\n    /* \"#utility.yul\":194:229   */\n  swap1\n  pop\n    /* \"#utility.yul\":139:235   */\n  swap2\n  swap1\n  pop\n  jump\t// out\n    /* \"#utility.yul\":241:359   */\ntag_18:\n    /* \"#utility.yul\":328:352   */\n  tag_24\n    /* \"#utility.yul\":346:351   */\n  dup2\n    /* \"#utility.yul\":328:352   */\n  tag_17\n  jump\t// in\ntag_24:\n    /* \"#utility.yul\":323:326   */\n  dup3\n    /* \"#utility.yul\":316:353   */\n  mstore\n    /* \"#utility.yul\":241:359   */\n  pop\n  pop\n  jump\t// out\n    /* \"#utility.yul\":365:587   */\ntag_7:\n    /* \"#utility.yul\":458:462   */\n  0x00\n    /* \"#utility.yul\":496:498   */\n  0x20\n    /* \"#utility.yul\":485:494   */\n  dup3\n    /* \"#utility.yul\":481:499   */\n  add\n    /* \"#utility.yul\":473:499   */\n  swap1\n  pop\n    /* \"#utility.yul\":509:580   */\n  tag_26\n    /* \"#utility.yul\":577:578   */\n  0x00\n    /* \"#utility.yul\":566:575   */\n  dup4\n    /* \"#utility.yul\":562:579   */\n  add\n    /* \"#utility.yul\":553:559   */\n  dup5\n    /* \"#utility.yul\":509:580   */\n  tag_18\n  jump\t// in\ntag_26:\n    /* \"#utility.yul\":365:587   */\n  swap3\n  swap2\n  pop\n  pop\n  jump\t// out\n    /* \"#utility.yul\":593:773   */\ntag_13:\n    /* \"#utility.yul\":641:718   */\n  0x4e487b7100000000000000000000000000000000000000000000000000000000\n    /* \"#utility.yul\":638:639   */\n  0x00\n    /* \"#utility.yul\":631:719   */\n  mstore\n    /* \"#utility.yul\":738:742   */\n  0x21\n    /* \"#utility.yul\":735:736   */\n  0x04\n    /* \"#utility.yul\":728:743   */\n  mstore\n    /* \"#utility.yul\":762:766   */\n  0x24\n    /* \"#utility.yul\":759:760   */\n  0x00\n    /* \"#utility.yul\":752:767   */\n  revert\n    /* \"contracts/Voting.sol\":117:4996  contract Voting is Ownable(msg.sender) {... */\ntag_14:\n  dataSize(sub_0)\n  dup1\n  dataOffset(sub_0)\n  0x00\n  codecopy\n  0x00\n  return\nstop\n\nsub_0: assembly {\n        /* \"contracts/Voting.sol\":117:4996  contract Voting is Ownable(msg.sender) {... */\n      mstore(0x40, 0x80)\n      callvalue\n      dup1\n      iszero\n      tag_1\n      jumpi\n      0x00\n      dup1\n      revert\n    tag_1:\n      pop\n      jumpi(tag_2, lt(calldatasize, 0x04))\n      shr(0xe0, calldataload(0x00))\n      dup1\n      0x8da5cb5b\n      gt\n      tag_20\n      jumpi\n      dup1\n      0xa7bfab16\n      gt\n      tag_21\n      jumpi\n      dup1\n      0xa7bfab16\n      eq\n      tag_15\n      jumpi\n      dup1\n      0xc64963c5\n      eq\n      tag_16\n      jumpi\n      dup1\n      0xe09b8c79\n      eq\n      tag_17\n      jumpi\n      dup1\n      0xee74c678\n      eq\n      tag_18\n      jumpi\n      dup1\n      0xf2fde38b\n      eq\n      tag_19\n      jumpi\n      jump(tag_2)\n    tag_21:\n      dup1\n      0x8da5cb5b\n      eq\n      tag_11\n      jumpi\n      dup1\n      0x8e7ea5b2\n      eq\n      tag_12\n      jumpi\n      dup1\n      0xa1edffa2\n      eq\n      tag_13\n      jumpi\n      dup1\n      0xa3ec138d\n      eq\n      tag_14\n      jumpi\n      jump(tag_2)\n    tag_20:\n      dup1\n      0x38db6dd3\n      gt\n      tag_22\n      jumpi\n      dup1\n      0x38db6dd3\n      eq\n      tag_7\n      jumpi\n      dup1\n      0x43c14b22\n      eq\n      tag_8\n      jumpi\n      dup1\n      0x6c297445\n      eq\n      tag_9\n      jumpi\n      dup1\n      0x715018a6\n      eq\n      tag_10\n      jumpi\n      jump(tag_2)\n    tag_22:\n      dup1\n      0x0121b93f\n      eq\n      tag_3\n      jumpi\n      dup1\n      0x013cf08b\n      eq\n      tag_4\n      jumpi\n      dup1\n      0x2f95355b\n      eq\n      tag_5\n      jumpi\n      dup1\n      0x378a2178\n      eq\n      tag_6\n      jumpi\n    tag_2:\n      0x00\n      dup1\n      revert\n        /* \"contracts/Voting.sol\":3597:4121  function vote(uint _proposalId) external onlyAtStatus(WorkflowStatus.VotingSessionStarted) {... */\n    tag_3:\n      tag_23\n      0x04\n      dup1\n      calldatasize\n      sub\n      dup2\n      add\n      swap1\n      tag_24\n      swap2\n      swap1\n      tag_25\n      jump\t// in\n    tag_24:\n      tag_26\n      jump\t// in\n    tag_23:\n      stop\n        /* \"contracts/Voting.sol\":630:657  Proposal[] public proposals */\n    tag_4:\n      tag_27\n      0x04\n      dup1\n      calldatasize\n      sub\n      dup2\n      add\n      swap1\n      tag_28\n      swap2\n      swap1\n      tag_25\n      jump\t// in\n    tag_28:\n      tag_29\n      jump\t// in\n    tag_27:\n      mload(0x40)\n      tag_30\n      swap3\n      swap2\n      swap1\n      tag_31\n      jump\t// in\n    tag_30:\n      mload(0x40)\n      dup1\n      swap2\n      sub\n      swap1\n      return\n        /* \"contracts/Voting.sol\":3289:3589  function registerProposal(string memory _description) external onlyAtStatus(WorkflowStatus.ProposalsRegistrationStarted) {... */\n    tag_5:\n      tag_32\n      0x04\n      dup1\n      calldatasize\n      sub\n      dup2\n      add\n      swap1\n      tag_33\n      swap2\n      swap1\n      tag_34\n      jump\t// in\n    tag_33:\n      tag_35\n      jump\t// in\n    tag_32:\n      stop\n        /* \"contracts/Voting.sol\":2450:2969  function tallyVotes() external onlyOwner onlyAtStatus(WorkflowStatus.VotingSessionEnded) {... */\n    tag_6:\n      tag_36\n      tag_37\n      jump\t// in\n    tag_36:\n      stop\n        /* \"contracts/Voting.sol\":2977:3281  function registerVoter(address _voterAddress) external onlyAtStatus(WorkflowStatus.RegisteringVoters) onlyOwner {... */\n    tag_7:\n      tag_38\n      0x04\n      dup1\n      calldatasize\n      sub\n      dup2\n      add\n      swap1\n      tag_39\n      swap2\n      swap1\n      tag_40\n      jump\t// in\n    tag_39:\n      tag_41\n      jump\t// in\n    tag_38:\n      stop\n        /* \"contracts/Voting.sol\":4366:4993  function revokeVote() external onlyAtStatus(WorkflowStatus.VotingSessionStarted) {... */\n    tag_8:\n      tag_42\n      tag_43\n      jump\t// in\n    tag_42:\n      stop\n        /* \"contracts/Voting.sol\":1546:1860  function endProposalsRegistration() external onlyOwner onlyAtStatus(WorkflowStatus.ProposalsRegistrationStarted) {... */\n    tag_9:\n      tag_44\n      tag_45\n      jump\t// in\n    tag_44:\n      stop\n        /* \"@openzeppelin/contracts/access/Ownable.sol\":2293:2394  function renounceOwnership() public virtual onlyOwner {... */\n    tag_10:\n      tag_46\n      tag_47\n      jump\t// in\n    tag_46:\n      stop\n        /* \"@openzeppelin/contracts/access/Ownable.sol\":1638:1723  function owner() public view virtual returns (address) {... */\n    tag_11:\n      tag_48\n      tag_49\n      jump\t// in\n    tag_48:\n      mload(0x40)\n      tag_50\n      swap2\n      swap1\n      tag_51\n      jump\t// in\n    tag_50:\n      mload(0x40)\n      dup1\n      swap2\n      sub\n      swap1\n      return\n        /* \"contracts/Voting.sol\":4129:4358  function getWinner() external view onlyAtStatus(WorkflowStatus.VotesTallied) returns (uint) {... */\n    tag_12:\n      tag_52\n      tag_53\n      jump\t// in\n    tag_52:\n      mload(0x40)\n      tag_54\n      swap2\n      swap1\n      tag_55\n      jump\t// in\n    tag_54:\n      mload(0x40)\n      dup1\n      swap2\n      sub\n      swap1\n      return\n        /* \"contracts/Voting.sol\":585:621  WorkflowStatus public workflowStatus */\n    tag_13:\n      tag_56\n      tag_57\n      jump\t// in\n    tag_56:\n      mload(0x40)\n      tag_58\n      swap2\n      swap1\n      tag_59\n      jump\t// in\n    tag_58:\n      mload(0x40)\n      dup1\n      swap2\n      sub\n      swap1\n      return\n        /* \"contracts/Voting.sol\":664:703  mapping(address => Voter) public voters */\n    tag_14:\n      tag_60\n      0x04\n      dup1\n      calldatasize\n      sub\n      dup2\n      add\n      swap1\n      tag_61\n      swap2\n      swap1\n      tag_40\n      jump\t// in\n    tag_61:\n      tag_62\n      jump\t// in\n    tag_60:\n      mload(0x40)\n      tag_63\n      swap4\n      swap3\n      swap2\n      swap1\n      tag_64\n      jump\t// in\n    tag_63:\n      mload(0x40)\n      dup1\n      swap2\n      sub\n      swap1\n      return\n        /* \"contracts/Voting.sol\":2168:2442  function endVotingSession() external onlyOwner onlyAtStatus(WorkflowStatus.VotingSessionStarted) {... */\n    tag_15:\n      tag_65\n      tag_66\n      jump\t// in\n    tag_65:\n      stop\n        /* \"contracts/Voting.sol\":710:739  uint public winningProposalId */\n    tag_16:\n      tag_67\n      tag_68\n      jump\t// in\n    tag_67:\n      mload(0x40)\n      tag_69\n      swap2\n      swap1\n      tag_55\n      jump\t// in\n    tag_69:\n      mload(0x40)\n      dup1\n      swap2\n      sub\n      swap1\n      return\n        /* \"contracts/Voting.sol\":1240:1538  function startProposalsRegistration() external onlyOwner onlyAtStatus(WorkflowStatus.RegisteringVoters) {... */\n    tag_17:\n      tag_70\n      tag_71\n      jump\t// in\n    tag_70:\n      stop\n        /* \"contracts/Voting.sol\":1868:2160  function startVotingSession() external onlyOwner onlyAtStatus(WorkflowStatus.ProposalsRegistrationEnded) {... */\n    tag_18:\n      tag_72\n      tag_73\n      jump\t// in\n    tag_72:\n      stop\n        /* \"@openzeppelin/contracts/access/Ownable.sol\":2543:2758  function transferOwnership(address newOwner) public virtual onlyOwner {... */\n    tag_19:\n      tag_74\n      0x04\n      dup1\n      calldatasize\n      sub\n      dup2\n      add\n      swap1\n      tag_75\n      swap2\n      swap1\n      tag_40\n      jump\t// in\n    tag_75:\n      tag_76\n      jump\t// in\n    tag_74:\n      stop\n        /* \"contracts/Voting.sol\":3597:4121  function vote(uint _proposalId) external onlyAtStatus(WorkflowStatus.VotingSessionStarted) {... */\n    tag_26:\n        /* \"contracts/Voting.sol\":3651:3686  WorkflowStatus.VotingSessionStarted */\n      0x03\n        /* \"contracts/Voting.sol\":921:928  _status */\n      dup1\n        /* \"contracts/Voting.sol\":903:928  workflowStatus == _status */\n      0x05\n      dup2\n      gt\n      iszero\n      tag_78\n      jumpi\n      tag_79\n      tag_80\n      jump\t// in\n    tag_79:\n    tag_78:\n        /* \"contracts/Voting.sol\":903:917  workflowStatus */\n      0x00\n      0x14\n      swap1\n      sload\n      swap1\n      0x0100\n      exp\n      swap1\n      div\n      0xff\n      and\n        /* \"contracts/Voting.sol\":903:928  workflowStatus == _status */\n      0x05\n      dup2\n      gt\n      iszero\n      tag_81\n      jumpi\n      tag_82\n      tag_80\n      jump\t// in\n    tag_82:\n    tag_81:\n      eq\n        /* \"contracts/Voting.sol\":895:956  require(workflowStatus == _status, \"Invalid workflow status\") */\n      tag_83\n      jumpi\n      mload(0x40)\n      0x08c379a000000000000000000000000000000000000000000000000000000000\n      dup2\n      mstore\n      0x04\n      add\n      tag_84\n      swap1\n      tag_85\n      jump\t// in\n    tag_84:\n      mload(0x40)\n      dup1\n      swap2\n      sub\n      swap1\n      revert\n    tag_83:\n        /* \"contracts/Voting.sol\":3707:3713  voters */\n      0x02\n        /* \"contracts/Voting.sol\":3707:3725  voters[msg.sender] */\n      0x00\n        /* \"contracts/Voting.sol\":3714:3724  msg.sender */\n      caller\n        /* \"contracts/Voting.sol\":3707:3725  voters[msg.sender] */\n      0xffffffffffffffffffffffffffffffffffffffff\n      and\n      0xffffffffffffffffffffffffffffffffffffffff\n      and\n      dup2\n      mstore\n      0x20\n      add\n      swap1\n      dup2\n      mstore\n      0x20\n      add\n      0x00\n      keccak256\n        /* \"contracts/Voting.sol\":3707:3738  voters[msg.sender].isRegistered */\n      0x00\n      add\n      0x00\n      swap1\n      sload\n      swap1\n      0x0100\n      exp\n      swap1\n      div\n      0xff\n      and\n        /* \"contracts/Voting.sol\":3699:3766  require(voters[msg.sender].isRegistered, \"Voter is not registered\") */\n      tag_87\n      jumpi\n      mload(0x40)\n      0x08c379a000000000000000000000000000000000000000000000000000000000\n      dup2\n      mstore\n      0x04\n      add\n      tag_88\n      swap1\n      tag_89\n      jump\t// in\n    tag_88:\n      mload(0x40)\n      dup1\n      swap2\n      sub\n      swap1\n      revert\n    tag_87:\n        /* \"contracts/Voting.sol\":3786:3792  voters */\n      0x02\n        /* \"contracts/Voting.sol\":3786:3804  voters[msg.sender] */\n      0x00\n        /* \"contracts/Voting.sol\":3793:3803  msg.sender */\n      caller\n        /* \"contracts/Voting.sol\":3786:3804  voters[msg.sender] */\n      0xffffffffffffffffffffffffffffffffffffffff\n      and\n      0xffffffffffffffffffffffffffffffffffffffff\n      and\n      dup2\n      mstore\n      0x20\n      add\n      swap1\n      dup2\n      mstore\n      0x20\n      add\n      0x00\n      keccak256\n        /* \"contracts/Voting.sol\":3786:3813  voters[msg.sender].hasVoted */\n      0x00\n      add\n      0x01\n      swap1\n      sload\n      swap1\n      0x0100\n      exp\n      swap1\n      div\n      0xff\n      and\n        /* \"contracts/Voting.sol\":3785:3813  !voters[msg.sender].hasVoted */\n      iszero\n        /* \"contracts/Voting.sol\":3777:3841  require(!voters[msg.sender].hasVoted, \"Voter has already voted\") */\n      tag_90\n      jumpi\n      mload(0x40)\n      0x08c379a000000000000000000000000000000000000000000000000000000000\n      dup2\n      mstore\n      0x04\n      add\n      tag_91\n      swap1\n      tag_92\n      jump\t// in\n    tag_91:\n      mload(0x40)\n      dup1\n      swap2\n      sub\n      swap1\n      revert\n    tag_90:\n        /* \"contracts/Voting.sol\":3874:3883  proposals */\n      0x01\n        /* \"contracts/Voting.sol\":3874:3890  proposals.length */\n      dup1\n      sload\n      swap1\n      pop\n        /* \"contracts/Voting.sol\":3860:3871  _proposalId */\n      dup3\n        /* \"contracts/Voting.sol\":3860:3890  _proposalId < proposals.length */\n      lt\n        /* \"contracts/Voting.sol\":3852:3914  require(_proposalId < proposals.length, \"Invalid proposal ID\") */\n      tag_93\n      jumpi\n      mload(0x40)\n      0x08c379a000000000000000000000000000000000000000000000000000000000\n      dup2\n      mstore\n      0x04\n      add\n      tag_94\n      swap1\n      tag_95\n      jump\t// in\n    tag_94:\n      mload(0x40)\n      dup1\n      swap2\n      sub\n      swap1\n      revert\n    tag_93:\n        /* \"contracts/Voting.sol\":3957:3961  true */\n      0x01\n        /* \"contracts/Voting.sol\":3927:3933  voters */\n      0x02\n        /* \"contracts/Voting.sol\":3927:3945  voters[msg.sender] */\n      0x00\n        /* \"contracts/Voting.sol\":3934:3944  msg.sender */\n      caller\n        /* \"contracts/Voting.sol\":3927:3945  voters[msg.sender] */\n      0xffffffffffffffffffffffffffffffffffffffff\n      and\n      0xffffffffffffffffffffffffffffffffffffffff\n      and\n      dup2\n      mstore\n      0x20\n      add\n      swap1\n      dup2\n      mstore\n      0x20\n      add\n      0x00\n      keccak256\n        /* \"contracts/Voting.sol\":3927:3954  voters[msg.sender].hasVoted */\n      0x00\n      add\n      0x01\n        /* \"contracts/Voting.sol\":3927:3961  voters[msg.sender].hasVoted = true */\n      0x0100\n      exp\n      dup2\n      sload\n      dup2\n      0xff\n      mul\n      not\n      and\n      swap1\n      dup4\n      iszero\n      iszero\n      mul\n      or\n      swap1\n      sstore\n      pop\n        /* \"contracts/Voting.sol\":4009:4020  _proposalId */\n      dup2\n        /* \"contracts/Voting.sol\":3972:3978  voters */\n      0x02\n        /* \"contracts/Voting.sol\":3972:3990  voters[msg.sender] */\n      0x00\n        /* \"contracts/Voting.sol\":3979:3989  msg.sender */\n      caller\n        /* \"contracts/Voting.sol\":3972:3990  voters[msg.sender] */\n      0xffffffffffffffffffffffffffffffffffffffff\n      and\n      0xffffffffffffffffffffffffffffffffffffffff\n      and\n      dup2\n      mstore\n      0x20\n      add\n      swap1\n      dup2\n      mstore\n      0x20\n      add\n      0x00\n      keccak256\n        /* \"contracts/Voting.sol\":3972:4006  voters[msg.sender].votedProposalId */\n      0x01\n      add\n        /* \"contracts/Voting.sol\":3972:4020  voters[msg.sender].votedProposalId = _proposalId */\n      dup2\n      swap1\n      sstore\n      pop\n        /* \"contracts/Voting.sol\":4031:4040  proposals */\n      0x01\n        /* \"contracts/Voting.sol\":4041:4052  _proposalId */\n      dup3\n        /* \"contracts/Voting.sol\":4031:4053  proposals[_proposalId] */\n      dup2\n      sload\n      dup2\n      lt\n      tag_96\n      jumpi\n      tag_97\n      tag_98\n      jump\t// in\n    tag_97:\n    tag_96:\n      swap1\n      0x00\n      mstore\n      keccak256(0x00, 0x20)\n      swap1\n      0x02\n      mul\n      add\n        /* \"contracts/Voting.sol\":4031:4063  proposals[_proposalId].voteCount */\n      0x01\n      add\n      0x00\n        /* \"contracts/Voting.sol\":4031:4065  proposals[_proposalId].voteCount++ */\n      dup2\n      sload\n      dup1\n      swap3\n      swap2\n      swap1\n      tag_100\n      swap1\n      tag_101\n      jump\t// in\n    tag_100:\n      swap2\n      swap1\n      pop\n      sstore\n      pop\n        /* \"contracts/Voting.sol\":4089:4099  msg.sender */\n      caller\n        /* \"contracts/Voting.sol\":4083:4113  Voted(msg.sender, _proposalId) */\n      0xffffffffffffffffffffffffffffffffffffffff\n      and\n      0x4d99b957a2bc29a30ebd96a7be8e68fe50a3c701db28a91436490b7d53870ca4\n        /* \"contracts/Voting.sol\":4101:4112  _proposalId */\n      dup4\n        /* \"contracts/Voting.sol\":4083:4113  Voted(msg.sender, _proposalId) */\n      mload(0x40)\n      tag_102\n      swap2\n      swap1\n      tag_55\n      jump\t// in\n    tag_102:\n      mload(0x40)\n      dup1\n      swap2\n      sub\n      swap1\n      log2\n        /* \"contracts/Voting.sol\":3597:4121  function vote(uint _proposalId) external onlyAtStatus(WorkflowStatus.VotingSessionStarted) {... */\n      pop\n      pop\n      jump\t// out\n        /* \"contracts/Voting.sol\":630:657  Proposal[] public proposals */\n    tag_29:\n      0x01\n      dup2\n      dup2\n      sload\n      dup2\n      lt\n      tag_103\n      jumpi\n      0x00\n      dup1\n      revert\n    tag_103:\n      swap1\n      0x00\n      mstore\n      keccak256(0x00, 0x20)\n      swap1\n      0x02\n      mul\n      add\n      0x00\n      swap2\n      pop\n      swap1\n      pop\n      dup1\n      0x00\n      add\n      dup1\n      sload\n      tag_105\n      swap1\n      tag_106\n      jump\t// in\n    tag_105:\n      dup1\n      0x1f\n      add\n      0x20\n      dup1\n      swap2\n      div\n      mul\n      0x20\n      add\n      mload(0x40)\n      swap1\n      dup2\n      add\n      0x40\n      mstore\n      dup1\n      swap3\n      swap2\n      swap1\n      dup2\n      dup2\n      mstore\n      0x20\n      add\n      dup3\n      dup1\n      sload\n      tag_107\n      swap1\n      tag_106\n      jump\t// in\n    tag_107:\n      dup1\n      iszero\n      tag_108\n      jumpi\n      dup1\n      0x1f\n      lt\n      tag_109\n      jumpi\n      0x0100\n      dup1\n      dup4\n      sload\n      div\n      mul\n      dup4\n      mstore\n      swap2\n      0x20\n      add\n      swap2\n      jump(tag_108)\n    tag_109:\n      dup3\n      add\n      swap2\n      swap1\n      0x00\n      mstore\n      keccak256(0x00, 0x20)\n      swap1\n    tag_110:\n      dup2\n      sload\n      dup2\n      mstore\n      swap1\n      0x01\n      add\n      swap1\n      0x20\n      add\n      dup1\n      dup4\n      gt\n      tag_110\n      jumpi\n      dup3\n      swap1\n      sub\n      0x1f\n      and\n      dup3\n      add\n      swap2\n    tag_108:\n      pop\n      pop\n      pop\n      pop\n      pop\n      swap1\n      dup1\n      0x01\n      add\n      sload\n      swap1\n      pop\n      dup3\n      jump\t// out\n        /* \"contracts/Voting.sol\":3289:3589  function registerProposal(string memory _description) external onlyAtStatus(WorkflowStatus.ProposalsRegistrationStarted) {... */\n    tag_35:\n        /* \"contracts/Voting.sol\":3365:3408  WorkflowStatus.ProposalsRegistrationStarted */\n      0x01\n        /* \"contracts/Voting.sol\":921:928  _status */\n      dup1\n        /* \"contracts/Voting.sol\":903:928  workflowStatus == _status */\n      0x05\n      dup2\n      gt\n      iszero\n      tag_112\n      jumpi\n      tag_113\n      tag_80\n      jump\t// in\n    tag_113:\n    tag_112:\n        /* \"contracts/Voting.sol\":903:917  workflowStatus */\n      0x00\n      0x14\n      swap1\n      sload\n      swap1\n      0x0100\n      exp\n      swap1\n      div\n      0xff\n      and\n        /* \"contracts/Voting.sol\":903:928  workflowStatus == _status */\n      0x05\n      dup2\n      gt\n      iszero\n      tag_114\n      jumpi\n      tag_115\n      tag_80\n      jump\t// in\n    tag_115:\n    tag_114:\n      eq\n        /* \"contracts/Voting.sol\":895:956  require(workflowStatus == _status, \"Invalid workflow status\") */\n      tag_116\n      jumpi\n      mload(0x40)\n      0x08c379a000000000000000000000000000000000000000000000000000000000\n      dup2\n      mstore\n      0x04\n      add\n      tag_117\n      swap1\n      tag_85\n      jump\t// in\n    tag_117:\n      mload(0x40)\n      dup1\n      swap2\n      sub\n      swap1\n      revert\n    tag_116:\n        /* \"contracts/Voting.sol\":3421:3430  proposals */\n      0x01\n        /* \"contracts/Voting.sol\":3436:3524  Proposal({... */\n      mload(0x40)\n      dup1\n      0x40\n      add\n      0x40\n      mstore\n      dup1\n        /* \"contracts/Voting.sol\":3473:3485  _description */\n      dup5\n        /* \"contracts/Voting.sol\":3436:3524  Proposal({... */\n      dup2\n      mstore\n      0x20\n      add\n        /* \"contracts/Voting.sol\":3511:3512  0 */\n      0x00\n        /* \"contracts/Voting.sol\":3436:3524  Proposal({... */\n      dup2\n      mstore\n      pop\n        /* \"contracts/Voting.sol\":3421:3525  proposals.push(Proposal({... */\n      swap1\n      dup1\n      0x01\n      dup2\n      sload\n      add\n      dup1\n      dup3\n      sstore\n      dup1\n      swap2\n      pop\n      pop\n      0x01\n      swap1\n      sub\n      swap1\n      0x00\n      mstore\n      keccak256(0x00, 0x20)\n      swap1\n      0x02\n      mul\n      add\n      0x00\n      swap1\n      swap2\n      swap1\n      swap2\n      swap1\n      swap2\n      pop\n      0x00\n      dup3\n      add\n      mload\n      dup2\n      0x00\n      add\n      swap1\n      dup2\n      tag_120\n      swap2\n      swap1\n      tag_121\n      jump\t// in\n    tag_120:\n      pop\n      0x20\n      dup3\n      add\n      mload\n      dup2\n      0x01\n      add\n      sstore\n      pop\n      pop\n        /* \"contracts/Voting.sol\":3541:3581  ProposalRegistered(proposals.length - 1) */\n      0x92e393e9b54e2f801d3ea4beb0c5e71a21cc34a5d34b77d0fb8a3aa1650dc18f\n        /* \"contracts/Voting.sol\":3579:3580  1 */\n      0x01\n        /* \"contracts/Voting.sol\":3560:3569  proposals */\n      dup1\n        /* \"contracts/Voting.sol\":3560:3576  proposals.length */\n      dup1\n      sload\n      swap1\n      pop\n        /* \"contracts/Voting.sol\":3560:3580  proposals.length - 1 */\n      tag_122\n      swap2\n      swap1\n      tag_123\n      jump\t// in\n    tag_122:\n        /* \"contracts/Voting.sol\":3541:3581  ProposalRegistered(proposals.length - 1) */\n      mload(0x40)\n      tag_124\n      swap2\n      swap1\n      tag_55\n      jump\t// in\n    tag_124:\n      mload(0x40)\n      dup1\n      swap2\n      sub\n      swap1\n      log1\n        /* \"contracts/Voting.sol\":3289:3589  function registerProposal(string memory _description) external onlyAtStatus(WorkflowStatus.ProposalsRegistrationStarted) {... */\n      pop\n      pop\n      jump\t// out\n        /* \"contracts/Voting.sol\":2450:2969  function tallyVotes() external onlyOwner onlyAtStatus(WorkflowStatus.VotingSessionEnded) {... */\n    tag_37:\n        /* \"@openzeppelin/contracts/access/Ownable.sol\":1531:1544  _checkOwner() */\n      tag_126\n        /* \"@openzeppelin/contracts/access/Ownable.sol\":1531:1542  _checkOwner */\n      tag_127\n        /* \"@openzeppelin/contracts/access/Ownable.sol\":1531:1544  _checkOwner() */\n      jump\t// in\n    tag_126:\n        /* \"contracts/Voting.sol\":2504:2537  WorkflowStatus.VotingSessionEnded */\n      0x04\n        /* \"contracts/Voting.sol\":921:928  _status */\n      dup1\n        /* \"contracts/Voting.sol\":903:928  workflowStatus == _status */\n      0x05\n      dup2\n      gt\n      iszero\n      tag_129\n      jumpi\n      tag_130\n      tag_80\n      jump\t// in\n    tag_130:\n    tag_129:\n        /* \"contracts/Voting.sol\":903:917  workflowStatus */\n      0x00\n      0x14\n      swap1\n      sload\n      swap1\n      0x0100\n      exp\n      swap1\n      div\n      0xff\n      and\n        /* \"contracts/Voting.sol\":903:928  workflowStatus == _status */\n      0x05\n      dup2\n      gt\n      iszero\n      tag_131\n      jumpi\n      tag_132\n      tag_80\n      jump\t// in\n    tag_132:\n    tag_131:\n      eq\n        /* \"contracts/Voting.sol\":895:956  require(workflowStatus == _status, \"Invalid workflow status\") */\n      tag_133\n      jumpi\n      mload(0x40)\n      0x08c379a000000000000000000000000000000000000000000000000000000000\n      dup2\n      mstore\n      0x04\n      add\n      tag_134\n      swap1\n      tag_85\n      jump\t// in\n    tag_134:\n      mload(0x40)\n      dup1\n      swap2\n      sub\n      swap1\n      revert\n    tag_133:\n        /* \"contracts/Voting.sol\":2567:2594  WorkflowStatus.VotesTallied */\n      0x05\n        /* \"contracts/Voting.sol\":2550:2564  workflowStatus */\n      0x00\n      0x14\n        /* \"contracts/Voting.sol\":2550:2594  workflowStatus = WorkflowStatus.VotesTallied */\n      0x0100\n      exp\n      dup2\n      sload\n      dup2\n      0xff\n      mul\n      not\n      and\n      swap1\n      dup4\n      0x05\n      dup2\n      gt\n      iszero\n      tag_136\n      jumpi\n      tag_137\n      tag_80\n      jump\t// in\n    tag_137:\n    tag_136:\n      mul\n      or\n      swap1\n      sstore\n      pop\n        /* \"contracts/Voting.sol\":2610:2694  WorkflowStatusChange(WorkflowStatus.VotingSessionEnded, WorkflowStatus.VotesTallied) */\n      0x0a97a4ee45751e2abf3e4fc8946939630b11b371ea8ae39ccdc3056e98f5cc3f\n        /* \"contracts/Voting.sol\":2631:2664  WorkflowStatus.VotingSessionEnded */\n      0x04\n        /* \"contracts/Voting.sol\":2666:2693  WorkflowStatus.VotesTallied */\n      0x05\n        /* \"contracts/Voting.sol\":2610:2694  WorkflowStatusChange(WorkflowStatus.VotingSessionEnded, WorkflowStatus.VotesTallied) */\n      mload(0x40)\n      tag_138\n      swap3\n      swap2\n      swap1\n      tag_139\n      jump\t// in\n    tag_138:\n      mload(0x40)\n      dup1\n      swap2\n      sub\n      swap1\n      log1\n        /* \"contracts/Voting.sol\":2705:2722  uint maxVoteCount */\n      0x00\n        /* \"contracts/Voting.sol\":2742:2748  uint i */\n      dup1\n        /* \"contracts/Voting.sol\":2737:2962  for (uint i = 0; i < proposals.length; i++) {... */\n    tag_140:\n        /* \"contracts/Voting.sol\":2758:2767  proposals */\n      0x01\n        /* \"contracts/Voting.sol\":2758:2774  proposals.length */\n      dup1\n      sload\n      swap1\n      pop\n        /* \"contracts/Voting.sol\":2754:2755  i */\n      dup2\n        /* \"contracts/Voting.sol\":2754:2774  i < proposals.length */\n      lt\n        /* \"contracts/Voting.sol\":2737:2962  for (uint i = 0; i < proposals.length; i++) {... */\n      iszero\n      tag_141\n      jumpi\n        /* \"contracts/Voting.sol\":2825:2837  maxVoteCount */\n      dup2\n        /* \"contracts/Voting.sol\":2800:2809  proposals */\n      0x01\n        /* \"contracts/Voting.sol\":2810:2811  i */\n      dup3\n        /* \"contracts/Voting.sol\":2800:2812  proposals[i] */\n      dup2\n      sload\n      dup2\n      lt\n      tag_143\n      jumpi\n      tag_144\n      tag_98\n      jump\t// in\n    tag_144:\n    tag_143:\n      swap1\n      0x00\n      mstore\n      keccak256(0x00, 0x20)\n      swap1\n      0x02\n      mul\n      add\n        /* \"contracts/Voting.sol\":2800:2822  proposals[i].voteCount */\n      0x01\n      add\n      sload\n        /* \"contracts/Voting.sol\":2800:2837  proposals[i].voteCount > maxVoteCount */\n      gt\n        /* \"contracts/Voting.sol\":2796:2951  if (proposals[i].voteCount > maxVoteCount) {... */\n      iszero\n      tag_146\n      jumpi\n        /* \"contracts/Voting.sol\":2873:2882  proposals */\n      0x01\n        /* \"contracts/Voting.sol\":2883:2884  i */\n      dup2\n        /* \"contracts/Voting.sol\":2873:2885  proposals[i] */\n      dup2\n      sload\n      dup2\n      lt\n      tag_147\n      jumpi\n      tag_148\n      tag_98\n      jump\t// in\n    tag_148:\n    tag_147:\n      swap1\n      0x00\n      mstore\n      keccak256(0x00, 0x20)\n      swap1\n      0x02\n      mul\n      add\n        /* \"contracts/Voting.sol\":2873:2895  proposals[i].voteCount */\n      0x01\n      add\n      sload\n        /* \"contracts/Voting.sol\":2858:2895  maxVoteCount = proposals[i].voteCount */\n      swap2\n      pop\n        /* \"contracts/Voting.sol\":2934:2935  i */\n      dup1\n        /* \"contracts/Voting.sol\":2914:2931  winningProposalId */\n      0x03\n        /* \"contracts/Voting.sol\":2914:2935  winningProposalId = i */\n      dup2\n      swap1\n      sstore\n      pop\n        /* \"contracts/Voting.sol\":2796:2951  if (proposals[i].voteCount > maxVoteCount) {... */\n    tag_146:\n        /* \"contracts/Voting.sol\":2776:2779  i++ */\n      dup1\n      dup1\n      tag_150\n      swap1\n      tag_101\n      jump\t// in\n    tag_150:\n      swap2\n      pop\n      pop\n        /* \"contracts/Voting.sol\":2737:2962  for (uint i = 0; i < proposals.length; i++) {... */\n      jump(tag_140)\n    tag_141:\n      pop\n        /* \"contracts/Voting.sol\":2539:2969  {... */\n      pop\n        /* \"@openzeppelin/contracts/access/Ownable.sol\":1554:1555  _ */\n      pop\n        /* \"contracts/Voting.sol\":2450:2969  function tallyVotes() external onlyOwner onlyAtStatus(WorkflowStatus.VotingSessionEnded) {... */\n      jump\t// out\n        /* \"contracts/Voting.sol\":2977:3281  function registerVoter(address _voterAddress) external onlyAtStatus(WorkflowStatus.RegisteringVoters) onlyOwner {... */\n    tag_41:\n        /* \"contracts/Voting.sol\":3045:3077  WorkflowStatus.RegisteringVoters */\n      0x00\n        /* \"contracts/Voting.sol\":921:928  _status */\n      dup1\n        /* \"contracts/Voting.sol\":903:928  workflowStatus == _status */\n      0x05\n      dup2\n      gt\n      iszero\n      tag_152\n      jumpi\n      tag_153\n      tag_80\n      jump\t// in\n    tag_153:\n    tag_152:\n        /* \"contracts/Voting.sol\":903:917  workflowStatus */\n      0x00\n      0x14\n      swap1\n      sload\n      swap1\n      0x0100\n      exp\n      swap1\n      div\n      0xff\n      and\n        /* \"contracts/Voting.sol\":903:928  workflowStatus == _status */\n      0x05\n      dup2\n      gt\n      iszero\n      tag_154\n      jumpi\n      tag_155\n      tag_80\n      jump\t// in\n    tag_155:\n    tag_154:\n      eq\n        /* \"contracts/Voting.sol\":895:956  require(workflowStatus == _status, \"Invalid workflow status\") */\n      tag_156\n      jumpi\n      mload(0x40)\n      0x08c379a000000000000000000000000000000000000000000000000000000000\n      dup2\n      mstore\n      0x04\n      add\n      tag_157\n      swap1\n      tag_85\n      jump\t// in\n    tag_157:\n      mload(0x40)\n      dup1\n      swap2\n      sub\n      swap1\n      revert\n    tag_156:\n        /* \"@openzeppelin/contracts/access/Ownable.sol\":1531:1544  _checkOwner() */\n      tag_159\n        /* \"@openzeppelin/contracts/access/Ownable.sol\":1531:1542  _checkOwner */\n      tag_127\n        /* \"@openzeppelin/contracts/access/Ownable.sol\":1531:1544  _checkOwner() */\n      jump\t// in\n    tag_159:\n        /* \"contracts/Voting.sol\":3109:3115  voters */\n      0x02\n        /* \"contracts/Voting.sol\":3109:3130  voters[_voterAddress] */\n      0x00\n        /* \"contracts/Voting.sol\":3116:3129  _voterAddress */\n      dup4\n        /* \"contracts/Voting.sol\":3109:3130  voters[_voterAddress] */\n      0xffffffffffffffffffffffffffffffffffffffff\n      and\n      0xffffffffffffffffffffffffffffffffffffffff\n      and\n      dup2\n      mstore\n      0x20\n      add\n      swap1\n      dup2\n      mstore\n      0x20\n      add\n      0x00\n      keccak256\n        /* \"contracts/Voting.sol\":3109:3143  voters[_voterAddress].isRegistered */\n      0x00\n      add\n      0x00\n      swap1\n      sload\n      swap1\n      0x0100\n      exp\n      swap1\n      div\n      0xff\n      and\n        /* \"contracts/Voting.sol\":3108:3143  !voters[_voterAddress].isRegistered */\n      iszero\n        /* \"contracts/Voting.sol\":3100:3175  require(!voters[_voterAddress].isRegistered, \"Voter is already registered\") */\n      tag_161\n      jumpi\n      mload(0x40)\n      0x08c379a000000000000000000000000000000000000000000000000000000000\n      dup2\n      mstore\n      0x04\n      add\n      tag_162\n      swap1\n      tag_163\n      jump\t// in\n    tag_162:\n      mload(0x40)\n      dup1\n      swap2\n      sub\n      swap1\n      revert\n    tag_161:\n        /* \"contracts/Voting.sol\":3223:3227  true */\n      0x01\n        /* \"contracts/Voting.sol\":3186:3192  voters */\n      0x02\n        /* \"contracts/Voting.sol\":3186:3207  voters[_voterAddress] */\n      0x00\n        /* \"contracts/Voting.sol\":3193:3206  _voterAddress */\n      dup5\n        /* \"contracts/Voting.sol\":3186:3207  voters[_voterAddress] */\n      0xffffffffffffffffffffffffffffffffffffffff\n      and\n      0xffffffffffffffffffffffffffffffffffffffff\n      and\n      dup2\n      mstore\n      0x20\n      add\n      swap1\n      dup2\n      mstore\n      0x20\n      add\n      0x00\n      keccak256\n        /* \"contracts/Voting.sol\":3186:3220  voters[_voterAddress].isRegistered */\n      0x00\n      add\n      0x00\n        /* \"contracts/Voting.sol\":3186:3227  voters[_voterAddress].isRegistered = true */\n      0x0100\n      exp\n      dup2\n      sload\n      dup2\n      0xff\n      mul\n      not\n      and\n      swap1\n      dup4\n      iszero\n      iszero\n      mul\n      or\n      swap1\n      sstore\n      pop\n        /* \"contracts/Voting.sol\":3259:3272  _voterAddress */\n      dup2\n        /* \"contracts/Voting.sol\":3243:3273  VoterRegistered(_voterAddress) */\n      0xffffffffffffffffffffffffffffffffffffffff\n      and\n      0xb6be2187d059cc2a55fe29e0e503b566e1e0f8c8780096e185429350acffd3dd\n      mload(0x40)\n      mload(0x40)\n      dup1\n      swap2\n      sub\n      swap1\n      log2\n        /* \"contracts/Voting.sol\":2977:3281  function registerVoter(address _voterAddress) external onlyAtStatus(WorkflowStatus.RegisteringVoters) onlyOwner {... */\n      pop\n      pop\n      jump\t// out\n        /* \"contracts/Voting.sol\":4366:4993  function revokeVote() external onlyAtStatus(WorkflowStatus.VotingSessionStarted) {... */\n    tag_43:\n        /* \"contracts/Voting.sol\":4410:4445  WorkflowStatus.VotingSessionStarted */\n      0x03\n        /* \"contracts/Voting.sol\":921:928  _status */\n      dup1\n        /* \"contracts/Voting.sol\":903:928  workflowStatus == _status */\n      0x05\n      dup2\n      gt\n      iszero\n      tag_165\n      jumpi\n      tag_166\n      tag_80\n      jump\t// in\n    tag_166:\n    tag_165:\n        /* \"contracts/Voting.sol\":903:917  workflowStatus */\n      0x00\n      0x14\n      swap1\n      sload\n      swap1\n      0x0100\n      exp\n      swap1\n      div\n      0xff\n      and\n        /* \"contracts/Voting.sol\":903:928  workflowStatus == _status */\n      0x05\n      dup2\n      gt\n      iszero\n      tag_167\n      jumpi\n      tag_168\n      tag_80\n      jump\t// in\n    tag_168:\n    tag_167:\n      eq\n        /* \"contracts/Voting.sol\":895:956  require(workflowStatus == _status, \"Invalid workflow status\") */\n      tag_169\n      jumpi\n      mload(0x40)\n      0x08c379a000000000000000000000000000000000000000000000000000000000\n      dup2\n      mstore\n      0x04\n      add\n      tag_170\n      swap1\n      tag_85\n      jump\t// in\n    tag_170:\n      mload(0x40)\n      dup1\n      swap2\n      sub\n      swap1\n      revert\n    tag_169:\n        /* \"contracts/Voting.sol\":4462:4468  voters */\n      0x02\n        /* \"contracts/Voting.sol\":4462:4480  voters[msg.sender] */\n      0x00\n        /* \"contracts/Voting.sol\":4469:4479  msg.sender */\n      caller\n        /* \"contracts/Voting.sol\":4462:4480  voters[msg.sender] */\n      0xffffffffffffffffffffffffffffffffffffffff\n      and\n      0xffffffffffffffffffffffffffffffffffffffff\n      and\n      dup2\n      mstore\n      0x20\n      add\n      swap1\n      dup2\n      mstore\n      0x20\n      add\n      0x00\n      keccak256\n        /* \"contracts/Voting.sol\":4462:4493  voters[msg.sender].isRegistered */\n      0x00\n      add\n      0x00\n      swap1\n      sload\n      swap1\n      0x0100\n      exp\n      swap1\n      div\n      0xff\n      and\n        /* \"contracts/Voting.sol\":4454:4521  require(voters[msg.sender].isRegistered, \"Voter is not registered\") */\n      tag_172\n      jumpi\n      mload(0x40)\n      0x08c379a000000000000000000000000000000000000000000000000000000000\n      dup2\n      mstore\n      0x04\n      add\n      tag_173\n      swap1\n      tag_89\n      jump\t// in\n    tag_173:\n      mload(0x40)\n      dup1\n      swap2\n      sub\n      swap1\n      revert\n    tag_172:\n        /* \"contracts/Voting.sol\":4536:4542  voters */\n      0x02\n        /* \"contracts/Voting.sol\":4536:4554  voters[msg.sender] */\n      0x00\n        /* \"contracts/Voting.sol\":4543:4553  msg.sender */\n      caller\n        /* \"contracts/Voting.sol\":4536:4554  voters[msg.sender] */\n      0xffffffffffffffffffffffffffffffffffffffff\n      and\n      0xffffffffffffffffffffffffffffffffffffffff\n      and\n      dup2\n      mstore\n      0x20\n      add\n      swap1\n      dup2\n      mstore\n      0x20\n      add\n      0x00\n      keccak256\n        /* \"contracts/Voting.sol\":4536:4563  voters[msg.sender].hasVoted */\n      0x00\n      add\n      0x01\n      swap1\n      sload\n      swap1\n      0x0100\n      exp\n      swap1\n      div\n      0xff\n      and\n        /* \"contracts/Voting.sol\":4528:4591  require(voters[msg.sender].hasVoted, \"Voter has not voted yet\") */\n      tag_174\n      jumpi\n      mload(0x40)\n      0x08c379a000000000000000000000000000000000000000000000000000000000\n      dup2\n      mstore\n      0x04\n      add\n      tag_175\n      swap1\n      tag_176\n      jump\t// in\n    tag_175:\n      mload(0x40)\n      dup1\n      swap2\n      sub\n      swap1\n      revert\n    tag_174:\n        /* \"contracts/Voting.sol\":4600:4617  uint previousVote */\n      0x00\n        /* \"contracts/Voting.sol\":4620:4626  voters */\n      0x02\n        /* \"contracts/Voting.sol\":4620:4638  voters[msg.sender] */\n      0x00\n        /* \"contracts/Voting.sol\":4627:4637  msg.sender */\n      caller\n        /* \"contracts/Voting.sol\":4620:4638  voters[msg.sender] */\n      0xffffffffffffffffffffffffffffffffffffffff\n      and\n      0xffffffffffffffffffffffffffffffffffffffff\n      and\n      dup2\n      mstore\n      0x20\n      add\n      swap1\n      dup2\n      mstore\n      0x20\n      add\n      0x00\n      keccak256\n        /* \"contracts/Voting.sol\":4620:4654  voters[msg.sender].votedProposalId */\n      0x01\n      add\n      sload\n        /* \"contracts/Voting.sol\":4600:4654  uint previousVote = voters[msg.sender].votedProposalId */\n      swap1\n      pop\n        /* \"contracts/Voting.sol\":4691:4696  false */\n      0x00\n        /* \"contracts/Voting.sol\":4661:4667  voters */\n      0x02\n        /* \"contracts/Voting.sol\":4661:4679  voters[msg.sender] */\n      0x00\n        /* \"contracts/Voting.sol\":4668:4678  msg.sender */\n      caller\n        /* \"contracts/Voting.sol\":4661:4679  voters[msg.sender] */\n      0xffffffffffffffffffffffffffffffffffffffff\n      and\n      0xffffffffffffffffffffffffffffffffffffffff\n      and\n      dup2\n      mstore\n      0x20\n      add\n      swap1\n      dup2\n      mstore\n      0x20\n      add\n      0x00\n      keccak256\n        /* \"contracts/Voting.sol\":4661:4688  voters[msg.sender].hasVoted */\n      0x00\n      add\n      0x01\n        /* \"contracts/Voting.sol\":4661:4696  voters[msg.sender].hasVoted = false */\n      0x0100\n      exp\n      dup2\n      sload\n      dup2\n      0xff\n      mul\n      not\n      and\n      swap1\n      dup4\n      iszero\n      iszero\n      mul\n      or\n      swap1\n      sstore\n      pop\n        /* \"contracts/Voting.sol\":4740:4741  0 */\n      0x00\n        /* \"contracts/Voting.sol\":4703:4709  voters */\n      0x02\n        /* \"contracts/Voting.sol\":4703:4721  voters[msg.sender] */\n      0x00\n        /* \"contracts/Voting.sol\":4710:4720  msg.sender */\n      caller\n        /* \"contracts/Voting.sol\":4703:4721  voters[msg.sender] */\n      0xffffffffffffffffffffffffffffffffffffffff\n      and\n      0xffffffffffffffffffffffffffffffffffffffff\n      and\n      dup2\n      mstore\n      0x20\n      add\n      swap1\n      dup2\n      mstore\n      0x20\n      add\n      0x00\n      keccak256\n        /* \"contracts/Voting.sol\":4703:4737  voters[msg.sender].votedProposalId */\n      0x01\n      add\n        /* \"contracts/Voting.sol\":4703:4741  voters[msg.sender].votedProposalId = 0 */\n      dup2\n      swap1\n      sstore\n      pop\n        /* \"contracts/Voting.sol\":4787:4796  proposals */\n      0x01\n        /* \"contracts/Voting.sol\":4797:4809  previousVote */\n      dup2\n        /* \"contracts/Voting.sol\":4787:4810  proposals[previousVote] */\n      dup2\n      sload\n      dup2\n      lt\n      tag_177\n      jumpi\n      tag_178\n      tag_98\n      jump\t// in\n    tag_178:\n    tag_177:\n      swap1\n      0x00\n      mstore\n      keccak256(0x00, 0x20)\n      swap1\n      0x02\n      mul\n      add\n        /* \"contracts/Voting.sol\":4787:4820  proposals[previousVote].voteCount */\n      0x01\n      add\n      0x00\n        /* \"contracts/Voting.sol\":4787:4822  proposals[previousVote].voteCount-- */\n      dup2\n      sload\n      dup1\n      swap3\n      swap2\n      swap1\n      tag_180\n      swap1\n      tag_181\n      jump\t// in\n    tag_180:\n      swap2\n      swap1\n      pop\n      sstore\n      pop\n        /* \"contracts/Voting.sol\":4906:4916  msg.sender */\n      caller\n        /* \"contracts/Voting.sol\":4900:4920  Voted(msg.sender, 0) */\n      0xffffffffffffffffffffffffffffffffffffffff\n      and\n      0x4d99b957a2bc29a30ebd96a7be8e68fe50a3c701db28a91436490b7d53870ca4\n        /* \"contracts/Voting.sol\":4918:4919  0 */\n      0x00\n        /* \"contracts/Voting.sol\":4900:4920  Voted(msg.sender, 0) */\n      mload(0x40)\n      tag_182\n      swap2\n      swap1\n      tag_183\n      jump\t// in\n    tag_182:\n      mload(0x40)\n      dup1\n      swap2\n      sub\n      swap1\n      log2\n        /* \"contracts/Voting.sol\":4447:4993  {... */\n      pop\n        /* \"contracts/Voting.sol\":4366:4993  function revokeVote() external onlyAtStatus(WorkflowStatus.VotingSessionStarted) {... */\n      pop\n      jump\t// out\n        /* \"contracts/Voting.sol\":1546:1860  function endProposalsRegistration() external onlyOwner onlyAtStatus(WorkflowStatus.ProposalsRegistrationStarted) {... */\n    tag_45:\n        /* \"@openzeppelin/contracts/access/Ownable.sol\":1531:1544  _checkOwner() */\n      tag_185\n        /* \"@openzeppelin/contracts/access/Ownable.sol\":1531:1542  _checkOwner */\n      tag_127\n        /* \"@openzeppelin/contracts/access/Ownable.sol\":1531:1544  _checkOwner() */\n      jump\t// in\n    tag_185:\n        /* \"contracts/Voting.sol\":1614:1657  WorkflowStatus.ProposalsRegistrationStarted */\n      0x01\n        /* \"contracts/Voting.sol\":921:928  _status */\n      dup1\n        /* \"contracts/Voting.sol\":903:928  workflowStatus == _status */\n      0x05\n      dup2\n      gt\n      iszero\n      tag_187\n      jumpi\n      tag_188\n      tag_80\n      jump\t// in\n    tag_188:\n    tag_187:\n        /* \"contracts/Voting.sol\":903:917  workflowStatus */\n      0x00\n      0x14\n      swap1\n      sload\n      swap1\n      0x0100\n      exp\n      swap1\n      div\n      0xff\n      and\n        /* \"contracts/Voting.sol\":903:928  workflowStatus == _status */\n      0x05\n      dup2\n      gt\n      iszero\n      tag_189\n      jumpi\n      tag_190\n      tag_80\n      jump\t// in\n    tag_190:\n    tag_189:\n      eq\n        /* \"contracts/Voting.sol\":895:956  require(workflowStatus == _status, \"Invalid workflow status\") */\n      tag_191\n      jumpi\n      mload(0x40)\n      0x08c379a000000000000000000000000000000000000000000000000000000000\n      dup2\n      mstore\n      0x04\n      add\n      tag_192\n      swap1\n      tag_85\n      jump\t// in\n    tag_192:\n      mload(0x40)\n      dup1\n      swap2\n      sub\n      swap1\n      revert\n    tag_191:\n        /* \"contracts/Voting.sol\":1687:1728  WorkflowStatus.ProposalsRegistrationEnded */\n      0x02\n        /* \"contracts/Voting.sol\":1670:1684  workflowStatus */\n      0x00\n      0x14\n        /* \"contracts/Voting.sol\":1670:1728  workflowStatus = WorkflowStatus.ProposalsRegistrationEnded */\n      0x0100\n      exp\n      dup2\n      sload\n      dup2\n      0xff\n      mul\n      not\n      and\n      swap1\n      dup4\n      0x05\n      dup2\n      gt\n      iszero\n      tag_194\n      jumpi\n      tag_195\n      tag_80\n      jump\t// in\n    tag_195:\n    tag_194:\n      mul\n      or\n      swap1\n      sstore\n      pop\n        /* \"contracts/Voting.sol\":1744:1852  WorkflowStatusChange(WorkflowStatus.ProposalsRegistrationStarted, WorkflowStatus.ProposalsRegistrationEnded) */\n      0x0a97a4ee45751e2abf3e4fc8946939630b11b371ea8ae39ccdc3056e98f5cc3f\n        /* \"contracts/Voting.sol\":1765:1808  WorkflowStatus.ProposalsRegistrationStarted */\n      0x01\n        /* \"contracts/Voting.sol\":1810:1851  WorkflowStatus.ProposalsRegistrationEnded */\n      0x02\n        /* \"contracts/Voting.sol\":1744:1852  WorkflowStatusChange(WorkflowStatus.ProposalsRegistrationStarted, WorkflowStatus.ProposalsRegistrationEnded) */\n      mload(0x40)\n      tag_196\n      swap3\n      swap2\n      swap1\n      tag_139\n      jump\t// in\n    tag_196:\n      mload(0x40)\n      dup1\n      swap2\n      sub\n      swap1\n      log1\n        /* \"@openzeppelin/contracts/access/Ownable.sol\":1554:1555  _ */\n      pop\n        /* \"contracts/Voting.sol\":1546:1860  function endProposalsRegistration() external onlyOwner onlyAtStatus(WorkflowStatus.ProposalsRegistrationStarted) {... */\n      jump\t// out\n        /* \"@openzeppelin/contracts/access/Ownable.sol\":2293:2394  function renounceOwnership() public virtual onlyOwner {... */\n    tag_47:\n        /* \"@openzeppelin/contracts/access/Ownable.sol\":1531:1544  _checkOwner() */\n      tag_198\n        /* \"@openzeppelin/contracts/access/Ownable.sol\":1531:1542  _checkOwner */\n      tag_127\n        /* \"@openzeppelin/contracts/access/Ownable.sol\":1531:1544  _checkOwner() */\n      jump\t// in\n    tag_198:\n        /* \"@openzeppelin/contracts/access/Ownable.sol\":2357:2387  _transferOwnership(address(0)) */\n      tag_200\n        /* \"@openzeppelin/contracts/access/Ownable.sol\":2384:2385  0 */\n      0x00\n        /* \"@openzeppelin/contracts/access/Ownable.sol\":2357:2375  _transferOwnership */\n      tag_201\n        /* \"@openzeppelin/contracts/access/Ownable.sol\":2357:2387  _transferOwnership(address(0)) */\n      jump\t// in\n    tag_200:\n        /* \"@openzeppelin/contracts/access/Ownable.sol\":2293:2394  function renounceOwnership() public virtual onlyOwner {... */\n      jump\t// out\n        /* \"@openzeppelin/contracts/access/Ownable.sol\":1638:1723  function owner() public view virtual returns (address) {... */\n    tag_49:\n        /* \"@openzeppelin/contracts/access/Ownable.sol\":1684:1691  address */\n      0x00\n        /* \"@openzeppelin/contracts/access/Ownable.sol\":1710:1716  _owner */\n      dup1\n      0x00\n      swap1\n      sload\n      swap1\n      0x0100\n      exp\n      swap1\n      div\n      0xffffffffffffffffffffffffffffffffffffffff\n      and\n        /* \"@openzeppelin/contracts/access/Ownable.sol\":1703:1716  return _owner */\n      swap1\n      pop\n        /* \"@openzeppelin/contracts/access/Ownable.sol\":1638:1723  function owner() public view virtual returns (address) {... */\n      swap1\n      jump\t// out\n        /* \"contracts/Voting.sol\":4129:4358  function getWinner() external view onlyAtStatus(WorkflowStatus.VotesTallied) returns (uint) {... */\n    tag_53:\n        /* \"contracts/Voting.sol\":4215:4219  uint */\n      0x00\n        /* \"contracts/Voting.sol\":4177:4204  WorkflowStatus.VotesTallied */\n      0x05\n        /* \"contracts/Voting.sol\":921:928  _status */\n      dup1\n        /* \"contracts/Voting.sol\":903:928  workflowStatus == _status */\n      0x05\n      dup2\n      gt\n      iszero\n      tag_204\n      jumpi\n      tag_205\n      tag_80\n      jump\t// in\n    tag_205:\n    tag_204:\n        /* \"contracts/Voting.sol\":903:917  workflowStatus */\n      0x00\n      0x14\n      swap1\n      sload\n      swap1\n      0x0100\n      exp\n      swap1\n      div\n      0xff\n      and\n        /* \"contracts/Voting.sol\":903:928  workflowStatus == _status */\n      0x05\n      dup2\n      gt\n      iszero\n      tag_206\n      jumpi\n      tag_207\n      tag_80\n      jump\t// in\n    tag_207:\n    tag_206:\n      eq\n        /* \"contracts/Voting.sol\":895:956  require(workflowStatus == _status, \"Invalid workflow status\") */\n      tag_208\n      jumpi\n      mload(0x40)\n      0x08c379a000000000000000000000000000000000000000000000000000000000\n      dup2\n      mstore\n      0x04\n      add\n      tag_209\n      swap1\n      tag_85\n      jump\t// in\n    tag_209:\n      mload(0x40)\n      dup1\n      swap2\n      sub\n      swap1\n      revert\n    tag_208:\n        /* \"contracts/Voting.sol\":4258:4285  WorkflowStatus.VotesTallied */\n      0x05\n        /* \"contracts/Voting.sol\":4240:4285  workflowStatus == WorkflowStatus.VotesTallied */\n      dup1\n      dup2\n      gt\n      iszero\n      tag_211\n      jumpi\n      tag_212\n      tag_80\n      jump\t// in\n    tag_212:\n    tag_211:\n        /* \"contracts/Voting.sol\":4240:4254  workflowStatus */\n      0x00\n      0x14\n      swap1\n      sload\n      swap1\n      0x0100\n      exp\n      swap1\n      div\n      0xff\n      and\n        /* \"contracts/Voting.sol\":4240:4285  workflowStatus == WorkflowStatus.VotesTallied */\n      0x05\n      dup2\n      gt\n      iszero\n      tag_213\n      jumpi\n      tag_214\n      tag_80\n      jump\t// in\n    tag_214:\n    tag_213:\n      eq\n        /* \"contracts/Voting.sol\":4232:4315  require(workflowStatus == WorkflowStatus.VotesTallied, \"Voting is not tallied yet\") */\n      tag_215\n      jumpi\n      mload(0x40)\n      0x08c379a000000000000000000000000000000000000000000000000000000000\n      dup2\n      mstore\n      0x04\n      add\n      tag_216\n      swap1\n      tag_217\n      jump\t// in\n    tag_216:\n      mload(0x40)\n      dup1\n      swap2\n      sub\n      swap1\n      revert\n    tag_215:\n        /* \"contracts/Voting.sol\":4333:4350  winningProposalId */\n      sload(0x03)\n        /* \"contracts/Voting.sol\":4326:4350  return winningProposalId */\n      swap2\n      pop\n        /* \"contracts/Voting.sol\":4129:4358  function getWinner() external view onlyAtStatus(WorkflowStatus.VotesTallied) returns (uint) {... */\n      pop\n      swap1\n      jump\t// out\n        /* \"contracts/Voting.sol\":585:621  WorkflowStatus public workflowStatus */\n    tag_57:\n      0x00\n      0x14\n      swap1\n      sload\n      swap1\n      0x0100\n      exp\n      swap1\n      div\n      0xff\n      and\n      dup2\n      jump\t// out\n        /* \"contracts/Voting.sol\":664:703  mapping(address => Voter) public voters */\n    tag_62:\n      mstore(0x20, 0x02)\n      dup1\n      0x00\n      mstore\n      keccak256(0x00, 0x40)\n      0x00\n      swap2\n      pop\n      swap1\n      pop\n      dup1\n      0x00\n      add\n      0x00\n      swap1\n      sload\n      swap1\n      0x0100\n      exp\n      swap1\n      div\n      0xff\n      and\n      swap1\n      dup1\n      0x00\n      add\n      0x01\n      swap1\n      sload\n      swap1\n      0x0100\n      exp\n      swap1\n      div\n      0xff\n      and\n      swap1\n      dup1\n      0x01\n      add\n      sload\n      swap1\n      pop\n      dup4\n      jump\t// out\n        /* \"contracts/Voting.sol\":2168:2442  function endVotingSession() external onlyOwner onlyAtStatus(WorkflowStatus.VotingSessionStarted) {... */\n    tag_66:\n        /* \"@openzeppelin/contracts/access/Ownable.sol\":1531:1544  _checkOwner() */\n      tag_219\n        /* \"@openzeppelin/contracts/access/Ownable.sol\":1531:1542  _checkOwner */\n      tag_127\n        /* \"@openzeppelin/contracts/access/Ownable.sol\":1531:1544  _checkOwner() */\n      jump\t// in\n    tag_219:\n        /* \"contracts/Voting.sol\":2228:2263  WorkflowStatus.VotingSessionStarted */\n      0x03\n        /* \"contracts/Voting.sol\":921:928  _status */\n      dup1\n        /* \"contracts/Voting.sol\":903:928  workflowStatus == _status */\n      0x05\n      dup2\n      gt\n      iszero\n      tag_221\n      jumpi\n      tag_222\n      tag_80\n      jump\t// in\n    tag_222:\n    tag_221:\n        /* \"contracts/Voting.sol\":903:917  workflowStatus */\n      0x00\n      0x14\n      swap1\n      sload\n      swap1\n      0x0100\n      exp\n      swap1\n      div\n      0xff\n      and\n        /* \"contracts/Voting.sol\":903:928  workflowStatus == _status */\n      0x05\n      dup2\n      gt\n      iszero\n      tag_223\n      jumpi\n      tag_224\n      tag_80\n      jump\t// in\n    tag_224:\n    tag_223:\n      eq\n        /* \"contracts/Voting.sol\":895:956  require(workflowStatus == _status, \"Invalid workflow status\") */\n      tag_225\n      jumpi\n      mload(0x40)\n      0x08c379a000000000000000000000000000000000000000000000000000000000\n      dup2\n      mstore\n      0x04\n      add\n      tag_226\n      swap1\n      tag_85\n      jump\t// in\n    tag_226:\n      mload(0x40)\n      dup1\n      swap2\n      sub\n      swap1\n      revert\n    tag_225:\n        /* \"contracts/Voting.sol\":2293:2326  WorkflowStatus.VotingSessionEnded */\n      0x04\n        /* \"contracts/Voting.sol\":2276:2290  workflowStatus */\n      0x00\n      0x14\n        /* \"contracts/Voting.sol\":2276:2326  workflowStatus = WorkflowStatus.VotingSessionEnded */\n      0x0100\n      exp\n      dup2\n      sload\n      dup2\n      0xff\n      mul\n      not\n      and\n      swap1\n      dup4\n      0x05\n      dup2\n      gt\n      iszero\n      tag_228\n      jumpi\n      tag_229\n      tag_80\n      jump\t// in\n    tag_229:\n    tag_228:\n      mul\n      or\n      swap1\n      sstore\n      pop\n        /* \"contracts/Voting.sol\":2342:2434  WorkflowStatusChange(WorkflowStatus.VotingSessionStarted, WorkflowStatus.VotingSessionEnded) */\n      0x0a97a4ee45751e2abf3e4fc8946939630b11b371ea8ae39ccdc3056e98f5cc3f\n        /* \"contracts/Voting.sol\":2363:2398  WorkflowStatus.VotingSessionStarted */\n      0x03\n        /* \"contracts/Voting.sol\":2400:2433  WorkflowStatus.VotingSessionEnded */\n      0x04\n        /* \"contracts/Voting.sol\":2342:2434  WorkflowStatusChange(WorkflowStatus.VotingSessionStarted, WorkflowStatus.VotingSessionEnded) */\n      mload(0x40)\n      tag_230\n      swap3\n      swap2\n      swap1\n      tag_139\n      jump\t// in\n    tag_230:\n      mload(0x40)\n      dup1\n      swap2\n      sub\n      swap1\n      log1\n        /* \"@openzeppelin/contracts/access/Ownable.sol\":1554:1555  _ */\n      pop\n        /* \"contracts/Voting.sol\":2168:2442  function endVotingSession() external onlyOwner onlyAtStatus(WorkflowStatus.VotingSessionStarted) {... */\n      jump\t// out\n        /* \"contracts/Voting.sol\":710:739  uint public winningProposalId */\n    tag_68:\n      sload(0x03)\n      dup2\n      jump\t// out\n        /* \"contracts/Voting.sol\":1240:1538  function startProposalsRegistration() external onlyOwner onlyAtStatus(WorkflowStatus.RegisteringVoters) {... */\n    tag_71:\n        /* \"@openzeppelin/contracts/access/Ownable.sol\":1531:1544  _checkOwner() */\n      tag_232\n        /* \"@openzeppelin/contracts/access/Ownable.sol\":1531:1542  _checkOwner */\n      tag_127\n        /* \"@openzeppelin/contracts/access/Ownable.sol\":1531:1544  _checkOwner() */\n      jump\t// in\n    tag_232:\n        /* \"contracts/Voting.sol\":1310:1342  WorkflowStatus.RegisteringVoters */\n      0x00\n        /* \"contracts/Voting.sol\":921:928  _status */\n      dup1\n        /* \"contracts/Voting.sol\":903:928  workflowStatus == _status */\n      0x05\n      dup2\n      gt\n      iszero\n      tag_234\n      jumpi\n      tag_235\n      tag_80\n      jump\t// in\n    tag_235:\n    tag_234:\n        /* \"contracts/Voting.sol\":903:917  workflowStatus */\n      0x00\n      0x14\n      swap1\n      sload\n      swap1\n      0x0100\n      exp\n      swap1\n      div\n      0xff\n      and\n        /* \"contracts/Voting.sol\":903:928  workflowStatus == _status */\n      0x05\n      dup2\n      gt\n      iszero\n      tag_236\n      jumpi\n      tag_237\n      tag_80\n      jump\t// in\n    tag_237:\n    tag_236:\n      eq\n        /* \"contracts/Voting.sol\":895:956  require(workflowStatus == _status, \"Invalid workflow status\") */\n      tag_238\n      jumpi\n      mload(0x40)\n      0x08c379a000000000000000000000000000000000000000000000000000000000\n      dup2\n      mstore\n      0x04\n      add\n      tag_239\n      swap1\n      tag_85\n      jump\t// in\n    tag_239:\n      mload(0x40)\n      dup1\n      swap2\n      sub\n      swap1\n      revert\n    tag_238:\n        /* \"contracts/Voting.sol\":1372:1415  WorkflowStatus.ProposalsRegistrationStarted */\n      0x01\n        /* \"contracts/Voting.sol\":1355:1369  workflowStatus */\n      0x00\n      0x14\n        /* \"contracts/Voting.sol\":1355:1415  workflowStatus = WorkflowStatus.ProposalsRegistrationStarted */\n      0x0100\n      exp\n      dup2\n      sload\n      dup2\n      0xff\n      mul\n      not\n      and\n      swap1\n      dup4\n      0x05\n      dup2\n      gt\n      iszero\n      tag_241\n      jumpi\n      tag_242\n      tag_80\n      jump\t// in\n    tag_242:\n    tag_241:\n      mul\n      or\n      swap1\n      sstore\n      pop\n        /* \"contracts/Voting.sol\":1431:1530  WorkflowStatusChange(WorkflowStatus.RegisteringVoters, WorkflowStatus.ProposalsRegistrationStarted) */\n      0x0a97a4ee45751e2abf3e4fc8946939630b11b371ea8ae39ccdc3056e98f5cc3f\n        /* \"contracts/Voting.sol\":1452:1484  WorkflowStatus.RegisteringVoters */\n      0x00\n        /* \"contracts/Voting.sol\":1486:1529  WorkflowStatus.ProposalsRegistrationStarted */\n      0x01\n        /* \"contracts/Voting.sol\":1431:1530  WorkflowStatusChange(WorkflowStatus.RegisteringVoters, WorkflowStatus.ProposalsRegistrationStarted) */\n      mload(0x40)\n      tag_243\n      swap3\n      swap2\n      swap1\n      tag_139\n      jump\t// in\n    tag_243:\n      mload(0x40)\n      dup1\n      swap2\n      sub\n      swap1\n      log1\n        /* \"@openzeppelin/contracts/access/Ownable.sol\":1554:1555  _ */\n      pop\n        /* \"contracts/Voting.sol\":1240:1538  function startProposalsRegistration() external onlyOwner onlyAtStatus(WorkflowStatus.RegisteringVoters) {... */\n      jump\t// out\n        /* \"contracts/Voting.sol\":1868:2160  function startVotingSession() external onlyOwner onlyAtStatus(WorkflowStatus.ProposalsRegistrationEnded) {... */\n    tag_73:\n        /* \"@openzeppelin/contracts/access/Ownable.sol\":1531:1544  _checkOwner() */\n      tag_245\n        /* \"@openzeppelin/contracts/access/Ownable.sol\":1531:1542  _checkOwner */\n      tag_127\n        /* \"@openzeppelin/contracts/access/Ownable.sol\":1531:1544  _checkOwner() */\n      jump\t// in\n    tag_245:\n        /* \"contracts/Voting.sol\":1930:1971  WorkflowStatus.ProposalsRegistrationEnded */\n      0x02\n        /* \"contracts/Voting.sol\":921:928  _status */\n      dup1\n        /* \"contracts/Voting.sol\":903:928  workflowStatus == _status */\n      0x05\n      dup2\n      gt\n      iszero\n      tag_247\n      jumpi\n      tag_248\n      tag_80\n      jump\t// in\n    tag_248:\n    tag_247:\n        /* \"contracts/Voting.sol\":903:917  workflowStatus */\n      0x00\n      0x14\n      swap1\n      sload\n      swap1\n      0x0100\n      exp\n      swap1\n      div\n      0xff\n      and\n        /* \"contracts/Voting.sol\":903:928  workflowStatus == _status */\n      0x05\n      dup2\n      gt\n      iszero\n      tag_249\n      jumpi\n      tag_250\n      tag_80\n      jump\t// in\n    tag_250:\n    tag_249:\n      eq\n        /* \"contracts/Voting.sol\":895:956  require(workflowStatus == _status, \"Invalid workflow status\") */\n      tag_251\n      jumpi\n      mload(0x40)\n      0x08c379a000000000000000000000000000000000000000000000000000000000\n      dup2\n      mstore\n      0x04\n      add\n      tag_252\n      swap1\n      tag_85\n      jump\t// in\n    tag_252:\n      mload(0x40)\n      dup1\n      swap2\n      sub\n      swap1\n      revert\n    tag_251:\n        /* \"contracts/Voting.sol\":2001:2036  WorkflowStatus.VotingSessionStarted */\n      0x03\n        /* \"contracts/Voting.sol\":1984:1998  workflowStatus */\n      0x00\n      0x14\n        /* \"contracts/Voting.sol\":1984:2036  workflowStatus = WorkflowStatus.VotingSessionStarted */\n      0x0100\n      exp\n      dup2\n      sload\n      dup2\n      0xff\n      mul\n      not\n      and\n      swap1\n      dup4\n      0x05\n      dup2\n      gt\n      iszero\n      tag_254\n      jumpi\n      tag_255\n      tag_80\n      jump\t// in\n    tag_255:\n    tag_254:\n      mul\n      or\n      swap1\n      sstore\n      pop\n        /* \"contracts/Voting.sol\":2052:2152  WorkflowStatusChange(WorkflowStatus.ProposalsRegistrationEnded, WorkflowStatus.VotingSessionStarted) */\n      0x0a97a4ee45751e2abf3e4fc8946939630b11b371ea8ae39ccdc3056e98f5cc3f\n        /* \"contracts/Voting.sol\":2073:2114  WorkflowStatus.ProposalsRegistrationEnded */\n      0x02\n        /* \"contracts/Voting.sol\":2116:2151  WorkflowStatus.VotingSessionStarted */\n      0x03\n        /* \"contracts/Voting.sol\":2052:2152  WorkflowStatusChange(WorkflowStatus.ProposalsRegistrationEnded, WorkflowStatus.VotingSessionStarted) */\n      mload(0x40)\n      tag_256\n      swap3\n      swap2\n      swap1\n      tag_139\n      jump\t// in\n    tag_256:\n      mload(0x40)\n      dup1\n      swap2\n      sub\n      swap1\n      log1\n        /* \"@openzeppelin/contracts/access/Ownable.sol\":1554:1555  _ */\n      pop\n        /* \"contracts/Voting.sol\":1868:2160  function startVotingSession() external onlyOwner onlyAtStatus(WorkflowStatus.ProposalsRegistrationEnded) {... */\n      jump\t// out\n        /* \"@openzeppelin/contracts/access/Ownable.sol\":2543:2758  function transferOwnership(address newOwner) public virtual onlyOwner {... */\n    tag_76:\n        /* \"@openzeppelin/contracts/access/Ownable.sol\":1531:1544  _checkOwner() */\n      tag_258\n        /* \"@openzeppelin/contracts/access/Ownable.sol\":1531:1542  _checkOwner */\n      tag_127\n        /* \"@openzeppelin/contracts/access/Ownable.sol\":1531:1544  _checkOwner() */\n      jump\t// in\n    tag_258:\n        /* \"@openzeppelin/contracts/access/Ownable.sol\":2647:2648  0 */\n      0x00\n        /* \"@openzeppelin/contracts/access/Ownable.sol\":2627:2649  newOwner == address(0) */\n      0xffffffffffffffffffffffffffffffffffffffff\n      and\n        /* \"@openzeppelin/contracts/access/Ownable.sol\":2627:2635  newOwner */\n      dup2\n        /* \"@openzeppelin/contracts/access/Ownable.sol\":2627:2649  newOwner == address(0) */\n      0xffffffffffffffffffffffffffffffffffffffff\n      and\n      sub\n        /* \"@openzeppelin/contracts/access/Ownable.sol\":2623:2714  if (newOwner == address(0)) {... */\n      tag_260\n      jumpi\n        /* \"@openzeppelin/contracts/access/Ownable.sol\":2700:2701  0 */\n      0x00\n        /* \"@openzeppelin/contracts/access/Ownable.sol\":2672:2703  OwnableInvalidOwner(address(0)) */\n      mload(0x40)\n      0x1e4fbdf700000000000000000000000000000000000000000000000000000000\n      dup2\n      mstore\n      0x04\n      add\n      tag_261\n      swap2\n      swap1\n      tag_51\n      jump\t// in\n    tag_261:\n      mload(0x40)\n      dup1\n      swap2\n      sub\n      swap1\n      revert\n        /* \"@openzeppelin/contracts/access/Ownable.sol\":2623:2714  if (newOwner == address(0)) {... */\n    tag_260:\n        /* \"@openzeppelin/contracts/access/Ownable.sol\":2723:2751  _transferOwnership(newOwner) */\n      tag_262\n        /* \"@openzeppelin/contracts/access/Ownable.sol\":2742:2750  newOwner */\n      dup2\n        /* \"@openzeppelin/contracts/access/Ownable.sol\":2723:2741  _transferOwnership */\n      tag_201\n        /* \"@openzeppelin/contracts/access/Ownable.sol\":2723:2751  _transferOwnership(newOwner) */\n      jump\t// in\n    tag_262:\n        /* \"@openzeppelin/contracts/access/Ownable.sol\":2543:2758  function transferOwnership(address newOwner) public virtual onlyOwner {... */\n      pop\n      jump\t// out\n        /* \"@openzeppelin/contracts/access/Ownable.sol\":1796:1958  function _checkOwner() internal view virtual {... */\n    tag_127:\n        /* \"@openzeppelin/contracts/access/Ownable.sol\":1866:1878  _msgSender() */\n      tag_264\n        /* \"@openzeppelin/contracts/access/Ownable.sol\":1866:1876  _msgSender */\n      tag_265\n        /* \"@openzeppelin/contracts/access/Ownable.sol\":1866:1878  _msgSender() */\n      jump\t// in\n    tag_264:\n        /* \"@openzeppelin/contracts/access/Ownable.sol\":1855:1878  owner() != _msgSender() */\n      0xffffffffffffffffffffffffffffffffffffffff\n      and\n        /* \"@openzeppelin/contracts/access/Ownable.sol\":1855:1862  owner() */\n      tag_266\n        /* \"@openzeppelin/contracts/access/Ownable.sol\":1855:1860  owner */\n      tag_49\n        /* \"@openzeppelin/contracts/access/Ownable.sol\":1855:1862  owner() */\n      jump\t// in\n    tag_266:\n        /* \"@openzeppelin/contracts/access/Ownable.sol\":1855:1878  owner() != _msgSender() */\n      0xffffffffffffffffffffffffffffffffffffffff\n      and\n      eq\n        /* \"@openzeppelin/contracts/access/Ownable.sol\":1851:1952  if (owner() != _msgSender()) {... */\n      tag_267\n      jumpi\n        /* \"@openzeppelin/contracts/access/Ownable.sol\":1928:1940  _msgSender() */\n      tag_268\n        /* \"@openzeppelin/contracts/access/Ownable.sol\":1928:1938  _msgSender */\n      tag_265\n        /* \"@openzeppelin/contracts/access/Ownable.sol\":1928:1940  _msgSender() */\n      jump\t// in\n    tag_268:\n        /* \"@openzeppelin/contracts/access/Ownable.sol\":1901:1941  OwnableUnauthorizedAccount(_msgSender()) */\n      mload(0x40)\n      0x118cdaa700000000000000000000000000000000000000000000000000000000\n      dup2\n      mstore\n      0x04\n      add\n      tag_269\n      swap2\n      swap1\n      tag_51\n      jump\t// in\n    tag_269:\n      mload(0x40)\n      dup1\n      swap2\n      sub\n      swap1\n      revert\n        /* \"@openzeppelin/contracts/access/Ownable.sol\":1851:1952  if (owner() != _msgSender()) {... */\n    tag_267:\n        /* \"@openzeppelin/contracts/access/Ownable.sol\":1796:1958  function _checkOwner() internal view virtual {... */\n      jump\t// out\n        /* \"@openzeppelin/contracts/access/Ownable.sol\":2912:3099  function _transferOwnership(address newOwner) internal virtual {... */\n    tag_201:\n        /* \"@openzeppelin/contracts/access/Ownable.sol\":2985:3001  address oldOwner */\n      0x00\n        /* \"@openzeppelin/contracts/access/Ownable.sol\":3004:3010  _owner */\n      dup1\n      0x00\n      swap1\n      sload\n      swap1\n      0x0100\n      exp\n      swap1\n      div\n      0xffffffffffffffffffffffffffffffffffffffff\n      and\n        /* \"@openzeppelin/contracts/access/Ownable.sol\":2985:3010  address oldOwner = _owner */\n      swap1\n      pop\n        /* \"@openzeppelin/contracts/access/Ownable.sol\":3029:3037  newOwner */\n      dup2\n        /* \"@openzeppelin/contracts/access/Ownable.sol\":3020:3026  _owner */\n      0x00\n      dup1\n        /* \"@openzeppelin/contracts/access/Ownable.sol\":3020:3037  _owner = newOwner */\n      0x0100\n      exp\n      dup2\n      sload\n      dup2\n      0xffffffffffffffffffffffffffffffffffffffff\n      mul\n      not\n      and\n      swap1\n      dup4\n      0xffffffffffffffffffffffffffffffffffffffff\n      and\n      mul\n      or\n      swap1\n      sstore\n      pop\n        /* \"@openzeppelin/contracts/access/Ownable.sol\":3083:3091  newOwner */\n      dup2\n        /* \"@openzeppelin/contracts/access/Ownable.sol\":3052:3092  OwnershipTransferred(oldOwner, newOwner) */\n      0xffffffffffffffffffffffffffffffffffffffff\n      and\n        /* \"@openzeppelin/contracts/access/Ownable.sol\":3073:3081  oldOwner */\n      dup2\n        /* \"@openzeppelin/contracts/access/Ownable.sol\":3052:3092  OwnershipTransferred(oldOwner, newOwner) */\n      0xffffffffffffffffffffffffffffffffffffffff\n      and\n      0x8be0079c531659141344cd1fd0a4f28419497f9722a3daafe3b4186f6b6457e0\n      mload(0x40)\n      mload(0x40)\n      dup1\n      swap2\n      sub\n      swap1\n      log3\n        /* \"@openzeppelin/contracts/access/Ownable.sol\":2975:3099  {... */\n      pop\n        /* \"@openzeppelin/contracts/access/Ownable.sol\":2912:3099  function _transferOwnership(address newOwner) internal virtual {... */\n      pop\n      jump\t// out\n        /* \"@openzeppelin/contracts/utils/Context.sol\":656:752  function _msgSender() internal view virtual returns (address) {... */\n    tag_265:\n        /* \"@openzeppelin/contracts/utils/Context.sol\":709:716  address */\n      0x00\n        /* \"@openzeppelin/contracts/utils/Context.sol\":735:745  msg.sender */\n      caller\n        /* \"@openzeppelin/contracts/utils/Context.sol\":728:745  return msg.sender */\n      swap1\n      pop\n        /* \"@openzeppelin/contracts/utils/Context.sol\":656:752  function _msgSender() internal view virtual returns (address) {... */\n      swap1\n      jump\t// out\n        /* \"#utility.yul\":7:82   */\n    tag_272:\n        /* \"#utility.yul\":40:46   */\n      0x00\n        /* \"#utility.yul\":73:75   */\n      0x40\n        /* \"#utility.yul\":67:76   */\n      mload\n        /* \"#utility.yul\":57:76   */\n      swap1\n      pop\n        /* \"#utility.yul\":7:82   */\n      swap1\n      jump\t// out\n        /* \"#utility.yul\":88:205   */\n    tag_273:\n        /* \"#utility.yul\":197:198   */\n      0x00\n        /* \"#utility.yul\":194:195   */\n      dup1\n        /* \"#utility.yul\":187:199   */\n      revert\n        /* \"#utility.yul\":211:328   */\n    tag_274:\n        /* \"#utility.yul\":320:321   */\n      0x00\n        /* \"#utility.yul\":317:318   */\n      dup1\n        /* \"#utility.yul\":310:322   */\n      revert\n        /* \"#utility.yul\":334:411   */\n    tag_275:\n        /* \"#utility.yul\":371:378   */\n      0x00\n        /* \"#utility.yul\":400:405   */\n      dup2\n        /* \"#utility.yul\":389:405   */\n      swap1\n      pop\n        /* \"#utility.yul\":334:411   */\n      swap2\n      swap1\n      pop\n      jump\t// out\n        /* \"#utility.yul\":417:539   */\n    tag_276:\n        /* \"#utility.yul\":490:514   */\n      tag_344\n        /* \"#utility.yul\":508:513   */\n      dup2\n        /* \"#utility.yul\":490:514   */\n      tag_275\n      jump\t// in\n    tag_344:\n        /* \"#utility.yul\":483:488   */\n      dup2\n        /* \"#utility.yul\":480:515   */\n      eq\n        /* \"#utility.yul\":470:533   */\n      tag_345\n      jumpi\n        /* \"#utility.yul\":529:530   */\n      0x00\n        /* \"#utility.yul\":526:527   */\n      dup1\n        /* \"#utility.yul\":519:531   */\n      revert\n        /* \"#utility.yul\":470:533   */\n    tag_345:\n        /* \"#utility.yul\":417:539   */\n      pop\n      jump\t// out\n        /* \"#utility.yul\":545:684   */\n    tag_277:\n        /* \"#utility.yul\":591:596   */\n      0x00\n        /* \"#utility.yul\":629:635   */\n      dup2\n        /* \"#utility.yul\":616:636   */\n      calldataload\n        /* \"#utility.yul\":607:636   */\n      swap1\n      pop\n        /* \"#utility.yul\":645:678   */\n      tag_347\n        /* \"#utility.yul\":672:677   */\n      dup2\n        /* \"#utility.yul\":645:678   */\n      tag_276\n      jump\t// in\n    tag_347:\n        /* \"#utility.yul\":545:684   */\n      swap3\n      swap2\n      pop\n      pop\n      jump\t// out\n        /* \"#utility.yul\":690:1019   */\n    tag_25:\n        /* \"#utility.yul\":749:755   */\n      0x00\n        /* \"#utility.yul\":798:800   */\n      0x20\n        /* \"#utility.yul\":786:795   */\n      dup3\n        /* \"#utility.yul\":777:784   */\n      dup5\n        /* \"#utility.yul\":773:796   */\n      sub\n        /* \"#utility.yul\":769:801   */\n      slt\n        /* \"#utility.yul\":766:885   */\n      iszero\n      tag_349\n      jumpi\n        /* \"#utility.yul\":804:883   */\n      tag_350\n      tag_273\n      jump\t// in\n    tag_350:\n        /* \"#utility.yul\":766:885   */\n    tag_349:\n        /* \"#utility.yul\":924:925   */\n      0x00\n        /* \"#utility.yul\":949:1002   */\n      tag_351\n        /* \"#utility.yul\":994:1001   */\n      dup5\n        /* \"#utility.yul\":985:991   */\n      dup3\n        /* \"#utility.yul\":974:983   */\n      dup6\n        /* \"#utility.yul\":970:992   */\n      add\n        /* \"#utility.yul\":949:1002   */\n      tag_277\n      jump\t// in\n    tag_351:\n        /* \"#utility.yul\":939:1002   */\n      swap2\n      pop\n        /* \"#utility.yul\":895:1012   */\n      pop\n        /* \"#utility.yul\":690:1019   */\n      swap3\n      swap2\n      pop\n      pop\n      jump\t// out\n        /* \"#utility.yul\":1025:1124   */\n    tag_278:\n        /* \"#utility.yul\":1077:1083   */\n      0x00\n        /* \"#utility.yul\":1111:1116   */\n      dup2\n        /* \"#utility.yul\":1105:1117   */\n      mload\n        /* \"#utility.yul\":1095:1117   */\n      swap1\n      pop\n        /* \"#utility.yul\":1025:1124   */\n      swap2\n      swap1\n      pop\n      jump\t// out\n        /* \"#utility.yul\":1130:1299   */\n    tag_279:\n        /* \"#utility.yul\":1214:1225   */\n      0x00\n        /* \"#utility.yul\":1248:1254   */\n      dup3\n        /* \"#utility.yul\":1243:1246   */\n      dup3\n        /* \"#utility.yul\":1236:1255   */\n      mstore\n        /* \"#utility.yul\":1288:1292   */\n      0x20\n        /* \"#utility.yul\":1283:1286   */\n      dup3\n        /* \"#utility.yul\":1279:1293   */\n      add\n        /* \"#utility.yul\":1264:1293   */\n      swap1\n      pop\n        /* \"#utility.yul\":1130:1299   */\n      swap3\n      swap2\n      pop\n      pop\n      jump\t// out\n        /* \"#utility.yul\":1305:1551   */\n    tag_280:\n        /* \"#utility.yul\":1386:1387   */\n      0x00\n        /* \"#utility.yul\":1396:1509   */\n    tag_355:\n        /* \"#utility.yul\":1410:1416   */\n      dup4\n        /* \"#utility.yul\":1407:1408   */\n      dup2\n        /* \"#utility.yul\":1404:1417   */\n      lt\n        /* \"#utility.yul\":1396:1509   */\n      iszero\n      tag_357\n      jumpi\n        /* \"#utility.yul\":1495:1496   */\n      dup1\n        /* \"#utility.yul\":1490:1493   */\n      dup3\n        /* \"#utility.yul\":1486:1497   */\n      add\n        /* \"#utility.yul\":1480:1498   */\n      mload\n        /* \"#utility.yul\":1476:1477   */\n      dup2\n        /* \"#utility.yul\":1471:1474   */\n      dup5\n        /* \"#utility.yul\":1467:1478   */\n      add\n        /* \"#utility.yul\":1460:1499   */\n      mstore\n        /* \"#utility.yul\":1432:1434   */\n      0x20\n        /* \"#utility.yul\":1429:1430   */\n      dup2\n        /* \"#utility.yul\":1425:1435   */\n      add\n        /* \"#utility.yul\":1420:1435   */\n      swap1\n      pop\n        /* \"#utility.yul\":1396:1509   */\n      jump(tag_355)\n    tag_357:\n        /* \"#utility.yul\":1543:1544   */\n      0x00\n        /* \"#utility.yul\":1534:1540   */\n      dup5\n        /* \"#utility.yul\":1529:1532   */\n      dup5\n        /* \"#utility.yul\":1525:1541   */\n      add\n        /* \"#utility.yul\":1518:1545   */\n      mstore\n        /* \"#utility.yul\":1367:1551   */\n      pop\n        /* \"#utility.yul\":1305:1551   */\n      pop\n      pop\n      pop\n      jump\t// out\n        /* \"#utility.yul\":1557:1659   */\n    tag_281:\n        /* \"#utility.yul\":1598:1604   */\n      0x00\n        /* \"#utility.yul\":1649:1651   */\n      0x1f\n        /* \"#utility.yul\":1645:1652   */\n      not\n        /* \"#utility.yul\":1640:1642   */\n      0x1f\n        /* \"#utility.yul\":1633:1638   */\n      dup4\n        /* \"#utility.yul\":1629:1643   */\n      add\n        /* \"#utility.yul\":1625:1653   */\n      and\n        /* \"#utility.yul\":1615:1653   */\n      swap1\n      pop\n        /* \"#utility.yul\":1557:1659   */\n      swap2\n      swap1\n      pop\n      jump\t// out\n        /* \"#utility.yul\":1665:2042   */\n    tag_282:\n        /* \"#utility.yul\":1753:1756   */\n      0x00\n        /* \"#utility.yul\":1781:1820   */\n      tag_360\n        /* \"#utility.yul\":1814:1819   */\n      dup3\n        /* \"#utility.yul\":1781:1820   */\n      tag_278\n      jump\t// in\n    tag_360:\n        /* \"#utility.yul\":1836:1907   */\n      tag_361\n        /* \"#utility.yul\":1900:1906   */\n      dup2\n        /* \"#utility.yul\":1895:1898   */\n      dup6\n        /* \"#utility.yul\":1836:1907   */\n      tag_279\n      jump\t// in\n    tag_361:\n        /* \"#utility.yul\":1829:1907   */\n      swap4\n      pop\n        /* \"#utility.yul\":1916:1981   */\n      tag_362\n        /* \"#utility.yul\":1974:1980   */\n      dup2\n        /* \"#utility.yul\":1969:1972   */\n      dup6\n        /* \"#utility.yul\":1962:1966   */\n      0x20\n        /* \"#utility.yul\":1955:1960   */\n      dup7\n        /* \"#utility.yul\":1951:1967   */\n      add\n        /* \"#utility.yul\":1916:1981   */\n      tag_280\n      jump\t// in\n    tag_362:\n        /* \"#utility.yul\":2006:2035   */\n      tag_363\n        /* \"#utility.yul\":2028:2034   */\n      dup2\n        /* \"#utility.yul\":2006:2035   */\n      tag_281\n      jump\t// in\n    tag_363:\n        /* \"#utility.yul\":2001:2004   */\n      dup5\n        /* \"#utility.yul\":1997:2036   */\n      add\n        /* \"#utility.yul\":1990:2036   */\n      swap2\n      pop\n        /* \"#utility.yul\":1757:2042   */\n      pop\n        /* \"#utility.yul\":1665:2042   */\n      swap3\n      swap2\n      pop\n      pop\n      jump\t// out\n        /* \"#utility.yul\":2048:2166   */\n    tag_283:\n        /* \"#utility.yul\":2135:2159   */\n      tag_365\n        /* \"#utility.yul\":2153:2158   */\n      dup2\n        /* \"#utility.yul\":2135:2159   */\n      tag_275\n      jump\t// in\n    tag_365:\n        /* \"#utility.yul\":2130:2133   */\n      dup3\n        /* \"#utility.yul\":2123:2160   */\n      mstore\n        /* \"#utility.yul\":2048:2166   */\n      pop\n      pop\n      jump\t// out\n        /* \"#utility.yul\":2172:2595   */\n    tag_31:\n        /* \"#utility.yul\":2313:2317   */\n      0x00\n        /* \"#utility.yul\":2351:2353   */\n      0x40\n        /* \"#utility.yul\":2340:2349   */\n      dup3\n        /* \"#utility.yul\":2336:2354   */\n      add\n        /* \"#utility.yul\":2328:2354   */\n      swap1\n      pop\n        /* \"#utility.yul\":2400:2409   */\n      dup2\n        /* \"#utility.yul\":2394:2398   */\n      dup2\n        /* \"#utility.yul\":2390:2410   */\n      sub\n        /* \"#utility.yul\":2386:2387   */\n      0x00\n        /* \"#utility.yul\":2375:2384   */\n      dup4\n        /* \"#utility.yul\":2371:2388   */\n      add\n        /* \"#utility.yul\":2364:2411   */\n      mstore\n        /* \"#utility.yul\":2428:2506   */\n      tag_367\n        /* \"#utility.yul\":2501:2505   */\n      dup2\n        /* \"#utility.yul\":2492:2498   */\n      dup6\n        /* \"#utility.yul\":2428:2506   */\n      tag_282\n      jump\t// in\n    tag_367:\n        /* \"#utility.yul\":2420:2506   */\n      swap1\n      pop\n        /* \"#utility.yul\":2516:2588   */\n      tag_368\n        /* \"#utility.yul\":2584:2586   */\n      0x20\n        /* \"#utility.yul\":2573:2582   */\n      dup4\n        /* \"#utility.yul\":2569:2587   */\n      add\n        /* \"#utility.yul\":2560:2566   */\n      dup5\n        /* \"#utility.yul\":2516:2588   */\n      tag_283\n      jump\t// in\n    tag_368:\n        /* \"#utility.yul\":2172:2595   */\n      swap4\n      swap3\n      pop\n      pop\n      pop\n      jump\t// out\n        /* \"#utility.yul\":2601:2718   */\n    tag_284:\n        /* \"#utility.yul\":2710:2711   */\n      0x00\n        /* \"#utility.yul\":2707:2708   */\n      dup1\n        /* \"#utility.yul\":2700:2712   */\n      revert\n        /* \"#utility.yul\":2724:2841   */\n    tag_285:\n        /* \"#utility.yul\":2833:2834   */\n      0x00\n        /* \"#utility.yul\":2830:2831   */\n      dup1\n        /* \"#utility.yul\":2823:2835   */\n      revert\n        /* \"#utility.yul\":2847:3027   */\n    tag_286:\n        /* \"#utility.yul\":2895:2972   */\n      0x4e487b7100000000000000000000000000000000000000000000000000000000\n        /* \"#utility.yul\":2892:2893   */\n      0x00\n        /* \"#utility.yul\":2885:2973   */\n      mstore\n        /* \"#utility.yul\":2992:2996   */\n      0x41\n        /* \"#utility.yul\":2989:2990   */\n      0x04\n        /* \"#utility.yul\":2982:2997   */\n      mstore\n        /* \"#utility.yul\":3016:3020   */\n      0x24\n        /* \"#utility.yul\":3013:3014   */\n      0x00\n        /* \"#utility.yul\":3006:3021   */\n      revert\n        /* \"#utility.yul\":3033:3314   */\n    tag_287:\n        /* \"#utility.yul\":3116:3143   */\n      tag_373\n        /* \"#utility.yul\":3138:3142   */\n      dup3\n        /* \"#utility.yul\":3116:3143   */\n      tag_281\n      jump\t// in\n    tag_373:\n        /* \"#utility.yul\":3108:3114   */\n      dup2\n        /* \"#utility.yul\":3104:3144   */\n      add\n        /* \"#utility.yul\":3246:3252   */\n      dup2\n        /* \"#utility.yul\":3234:3244   */\n      dup2\n        /* \"#utility.yul\":3231:3253   */\n      lt\n        /* \"#utility.yul\":3210:3228   */\n      0xffffffffffffffff\n        /* \"#utility.yul\":3198:3208   */\n      dup3\n        /* \"#utility.yul\":3195:3229   */\n      gt\n        /* \"#utility.yul\":3192:3254   */\n      or\n        /* \"#utility.yul\":3189:3277   */\n      iszero\n      tag_374\n      jumpi\n        /* \"#utility.yul\":3257:3275   */\n      tag_375\n      tag_286\n      jump\t// in\n    tag_375:\n        /* \"#utility.yul\":3189:3277   */\n    tag_374:\n        /* \"#utility.yul\":3297:3307   */\n      dup1\n        /* \"#utility.yul\":3293:3295   */\n      0x40\n        /* \"#utility.yul\":3286:3308   */\n      mstore\n        /* \"#utility.yul\":3076:3314   */\n      pop\n        /* \"#utility.yul\":3033:3314   */\n      pop\n      pop\n      jump\t// out\n        /* \"#utility.yul\":3320:3449   */\n    tag_288:\n        /* \"#utility.yul\":3354:3360   */\n      0x00\n        /* \"#utility.yul\":3381:3401   */\n      tag_377\n      tag_272\n      jump\t// in\n    tag_377:\n        /* \"#utility.yul\":3371:3401   */\n      swap1\n      pop\n        /* \"#utility.yul\":3410:3443   */\n      tag_378\n        /* \"#utility.yul\":3438:3442   */\n      dup3\n        /* \"#utility.yul\":3430:3436   */\n      dup3\n        /* \"#utility.yul\":3410:3443   */\n      tag_287\n      jump\t// in\n    tag_378:\n        /* \"#utility.yul\":3320:3449   */\n      swap2\n      swap1\n      pop\n      jump\t// out\n        /* \"#utility.yul\":3455:3763   */\n    tag_289:\n        /* \"#utility.yul\":3517:3521   */\n      0x00\n        /* \"#utility.yul\":3607:3625   */\n      0xffffffffffffffff\n        /* \"#utility.yul\":3599:3605   */\n      dup3\n        /* \"#utility.yul\":3596:3626   */\n      gt\n        /* \"#utility.yul\":3593:3649   */\n      iszero\n      tag_380\n      jumpi\n        /* \"#utility.yul\":3629:3647   */\n      tag_381\n      tag_286\n      jump\t// in\n    tag_381:\n        /* \"#utility.yul\":3593:3649   */\n    tag_380:\n        /* \"#utility.yul\":3667:3696   */\n      tag_382\n        /* \"#utility.yul\":3689:3695   */\n      dup3\n        /* \"#utility.yul\":3667:3696   */\n      tag_281\n      jump\t// in\n    tag_382:\n        /* \"#utility.yul\":3659:3696   */\n      swap1\n      pop\n        /* \"#utility.yul\":3751:3755   */\n      0x20\n        /* \"#utility.yul\":3745:3749   */\n      dup2\n        /* \"#utility.yul\":3741:3756   */\n      add\n        /* \"#utility.yul\":3733:3756   */\n      swap1\n      pop\n        /* \"#utility.yul\":3455:3763   */\n      swap2\n      swap1\n      pop\n      jump\t// out\n        /* \"#utility.yul\":3769:3915   */\n    tag_290:\n        /* \"#utility.yul\":3866:3872   */\n      dup3\n        /* \"#utility.yul\":3861:3864   */\n      dup2\n        /* \"#utility.yul\":3856:3859   */\n      dup4\n        /* \"#utility.yul\":3843:3873   */\n      calldatacopy\n        /* \"#utility.yul\":3907:3908   */\n      0x00\n        /* \"#utility.yul\":3898:3904   */\n      dup4\n        /* \"#utility.yul\":3893:3896   */\n      dup4\n        /* \"#utility.yul\":3889:3905   */\n      add\n        /* \"#utility.yul\":3882:3909   */\n      mstore\n        /* \"#utility.yul\":3769:3915   */\n      pop\n      pop\n      pop\n      jump\t// out\n        /* \"#utility.yul\":3921:4346   */\n    tag_291:\n        /* \"#utility.yul\":3999:4004   */\n      0x00\n        /* \"#utility.yul\":4024:4090   */\n      tag_385\n        /* \"#utility.yul\":4040:4089   */\n      tag_386\n        /* \"#utility.yul\":4082:4088   */\n      dup5\n        /* \"#utility.yul\":4040:4089   */\n      tag_289\n      jump\t// in\n    tag_386:\n        /* \"#utility.yul\":4024:4090   */\n      tag_288\n      jump\t// in\n    tag_385:\n        /* \"#utility.yul\":4015:4090   */\n      swap1\n      pop\n        /* \"#utility.yul\":4113:4119   */\n      dup3\n        /* \"#utility.yul\":4106:4111   */\n      dup2\n        /* \"#utility.yul\":4099:4120   */\n      mstore\n        /* \"#utility.yul\":4151:4155   */\n      0x20\n        /* \"#utility.yul\":4144:4149   */\n      dup2\n        /* \"#utility.yul\":4140:4156   */\n      add\n        /* \"#utility.yul\":4189:4192   */\n      dup5\n        /* \"#utility.yul\":4180:4186   */\n      dup5\n        /* \"#utility.yul\":4175:4178   */\n      dup5\n        /* \"#utility.yul\":4171:4187   */\n      add\n        /* \"#utility.yul\":4168:4193   */\n      gt\n        /* \"#utility.yul\":4165:4277   */\n      iszero\n      tag_387\n      jumpi\n        /* \"#utility.yul\":4196:4275   */\n      tag_388\n      tag_285\n      jump\t// in\n    tag_388:\n        /* \"#utility.yul\":4165:4277   */\n    tag_387:\n        /* \"#utility.yul\":4286:4340   */\n      tag_389\n        /* \"#utility.yul\":4333:4339   */\n      dup5\n        /* \"#utility.yul\":4328:4331   */\n      dup3\n        /* \"#utility.yul\":4323:4326   */\n      dup6\n        /* \"#utility.yul\":4286:4340   */\n      tag_290\n      jump\t// in\n    tag_389:\n        /* \"#utility.yul\":4005:4346   */\n      pop\n        /* \"#utility.yul\":3921:4346   */\n      swap4\n      swap3\n      pop\n      pop\n      pop\n      jump\t// out\n        /* \"#utility.yul\":4366:4706   */\n    tag_292:\n        /* \"#utility.yul\":4422:4427   */\n      0x00\n        /* \"#utility.yul\":4471:4474   */\n      dup3\n        /* \"#utility.yul\":4464:4468   */\n      0x1f\n        /* \"#utility.yul\":4456:4462   */\n      dup4\n        /* \"#utility.yul\":4452:4469   */\n      add\n        /* \"#utility.yul\":4448:4475   */\n      slt\n        /* \"#utility.yul\":4438:4560   */\n      tag_391\n      jumpi\n        /* \"#utility.yul\":4479:4558   */\n      tag_392\n      tag_284\n      jump\t// in\n    tag_392:\n        /* \"#utility.yul\":4438:4560   */\n    tag_391:\n        /* \"#utility.yul\":4596:4602   */\n      dup2\n        /* \"#utility.yul\":4583:4603   */\n      calldataload\n        /* \"#utility.yul\":4621:4700   */\n      tag_393\n        /* \"#utility.yul\":4696:4699   */\n      dup5\n        /* \"#utility.yul\":4688:4694   */\n      dup3\n        /* \"#utility.yul\":4681:4685   */\n      0x20\n        /* \"#utility.yul\":4673:4679   */\n      dup7\n        /* \"#utility.yul\":4669:4686   */\n      add\n        /* \"#utility.yul\":4621:4700   */\n      tag_291\n      jump\t// in\n    tag_393:\n        /* \"#utility.yul\":4612:4700   */\n      swap2\n      pop\n        /* \"#utility.yul\":4428:4706   */\n      pop\n        /* \"#utility.yul\":4366:4706   */\n      swap3\n      swap2\n      pop\n      pop\n      jump\t// out\n        /* \"#utility.yul\":4712:5221   */\n    tag_34:\n        /* \"#utility.yul\":4781:4787   */\n      0x00\n        /* \"#utility.yul\":4830:4832   */\n      0x20\n        /* \"#utility.yul\":4818:4827   */\n      dup3\n        /* \"#utility.yul\":4809:4816   */\n      dup5\n        /* \"#utility.yul\":4805:4828   */\n      sub\n        /* \"#utility.yul\":4801:4833   */\n      slt\n        /* \"#utility.yul\":4798:4917   */\n      iszero\n      tag_395\n      jumpi\n        /* \"#utility.yul\":4836:4915   */\n      tag_396\n      tag_273\n      jump\t// in\n    tag_396:\n        /* \"#utility.yul\":4798:4917   */\n    tag_395:\n        /* \"#utility.yul\":4984:4985   */\n      0x00\n        /* \"#utility.yul\":4973:4982   */\n      dup3\n        /* \"#utility.yul\":4969:4986   */\n      add\n        /* \"#utility.yul\":4956:4987   */\n      calldataload\n        /* \"#utility.yul\":5014:5032   */\n      0xffffffffffffffff\n        /* \"#utility.yul\":5006:5012   */\n      dup2\n        /* \"#utility.yul\":5003:5033   */\n      gt\n        /* \"#utility.yul\":5000:5117   */\n      iszero\n      tag_397\n      jumpi\n        /* \"#utility.yul\":5036:5115   */\n      tag_398\n      tag_274\n      jump\t// in\n    tag_398:\n        /* \"#utility.yul\":5000:5117   */\n    tag_397:\n        /* \"#utility.yul\":5141:5204   */\n      tag_399\n        /* \"#utility.yul\":5196:5203   */\n      dup5\n        /* \"#utility.yul\":5187:5193   */\n      dup3\n        /* \"#utility.yul\":5176:5185   */\n      dup6\n        /* \"#utility.yul\":5172:5194   */\n      add\n        /* \"#utility.yul\":5141:5204   */\n      tag_292\n      jump\t// in\n    tag_399:\n        /* \"#utility.yul\":5131:5204   */\n      swap2\n      pop\n        /* \"#utility.yul\":4927:5214   */\n      pop\n        /* \"#utility.yul\":4712:5221   */\n      swap3\n      swap2\n      pop\n      pop\n      jump\t// out\n        /* \"#utility.yul\":5227:5353   */\n    tag_293:\n        /* \"#utility.yul\":5264:5271   */\n      0x00\n        /* \"#utility.yul\":5304:5346   */\n      0xffffffffffffffffffffffffffffffffffffffff\n        /* \"#utility.yul\":5297:5302   */\n      dup3\n        /* \"#utility.yul\":5293:5347   */\n      and\n        /* \"#utility.yul\":5282:5347   */\n      swap1\n      pop\n        /* \"#utility.yul\":5227:5353   */\n      swap2\n      swap1\n      pop\n      jump\t// out\n        /* \"#utility.yul\":5359:5455   */\n    tag_294:\n        /* \"#utility.yul\":5396:5403   */\n      0x00\n        /* \"#utility.yul\":5425:5449   */\n      tag_402\n        /* \"#utility.yul\":5443:5448   */\n      dup3\n        /* \"#utility.yul\":5425:5449   */\n      tag_293\n      jump\t// in\n    tag_402:\n        /* \"#utility.yul\":5414:5449   */\n      swap1\n      pop\n        /* \"#utility.yul\":5359:5455   */\n      swap2\n      swap1\n      pop\n      jump\t// out\n        /* \"#utility.yul\":5461:5583   */\n    tag_295:\n        /* \"#utility.yul\":5534:5558   */\n      tag_404\n        /* \"#utility.yul\":5552:5557   */\n      dup2\n        /* \"#utility.yul\":5534:5558   */\n      tag_294\n      jump\t// in\n    tag_404:\n        /* \"#utility.yul\":5527:5532   */\n      dup2\n        /* \"#utility.yul\":5524:5559   */\n      eq\n        /* \"#utility.yul\":5514:5577   */\n      tag_405\n      jumpi\n        /* \"#utility.yul\":5573:5574   */\n      0x00\n        /* \"#utility.yul\":5570:5571   */\n      dup1\n        /* \"#utility.yul\":5563:5575   */\n      revert\n        /* \"#utility.yul\":5514:5577   */\n    tag_405:\n        /* \"#utility.yul\":5461:5583   */\n      pop\n      jump\t// out\n        /* \"#utility.yul\":5589:5728   */\n    tag_296:\n        /* \"#utility.yul\":5635:5640   */\n      0x00\n        /* \"#utility.yul\":5673:5679   */\n      dup2\n        /* \"#utility.yul\":5660:5680   */\n      calldataload\n        /* \"#utility.yul\":5651:5680   */\n      swap1\n      pop\n        /* \"#utility.yul\":5689:5722   */\n      tag_407\n        /* \"#utility.yul\":5716:5721   */\n      dup2\n        /* \"#utility.yul\":5689:5722   */\n      tag_295\n      jump\t// in\n    tag_407:\n        /* \"#utility.yul\":5589:5728   */\n      swap3\n      swap2\n      pop\n      pop\n      jump\t// out\n        /* \"#utility.yul\":5734:6063   */\n    tag_40:\n        /* \"#utility.yul\":5793:5799   */\n      0x00\n        /* \"#utility.yul\":5842:5844   */\n      0x20\n        /* \"#utility.yul\":5830:5839   */\n      dup3\n        /* \"#utility.yul\":5821:5828   */\n      dup5\n        /* \"#utility.yul\":5817:5840   */\n      sub\n        /* \"#utility.yul\":5813:5845   */\n      slt\n        /* \"#utility.yul\":5810:5929   */\n      iszero\n      tag_409\n      jumpi\n        /* \"#utility.yul\":5848:5927   */\n      tag_410\n      tag_273\n      jump\t// in\n    tag_410:\n        /* \"#utility.yul\":5810:5929   */\n    tag_409:\n        /* \"#utility.yul\":5968:5969   */\n      0x00\n        /* \"#utility.yul\":5993:6046   */\n      tag_411\n        /* \"#utility.yul\":6038:6045   */\n      dup5\n        /* \"#utility.yul\":6029:6035   */\n      dup3\n        /* \"#utility.yul\":6018:6027   */\n      dup6\n        /* \"#utility.yul\":6014:6036   */\n      add\n        /* \"#utility.yul\":5993:6046   */\n      tag_296\n      jump\t// in\n    tag_411:\n        /* \"#utility.yul\":5983:6046   */\n      swap2\n      pop\n        /* \"#utility.yul\":5939:6056   */\n      pop\n        /* \"#utility.yul\":5734:6063   */\n      swap3\n      swap2\n      pop\n      pop\n      jump\t// out\n        /* \"#utility.yul\":6069:6187   */\n    tag_297:\n        /* \"#utility.yul\":6156:6180   */\n      tag_413\n        /* \"#utility.yul\":6174:6179   */\n      dup2\n        /* \"#utility.yul\":6156:6180   */\n      tag_294\n      jump\t// in\n    tag_413:\n        /* \"#utility.yul\":6151:6154   */\n      dup3\n        /* \"#utility.yul\":6144:6181   */\n      mstore\n        /* \"#utility.yul\":6069:6187   */\n      pop\n      pop\n      jump\t// out\n        /* \"#utility.yul\":6193:6415   */\n    tag_51:\n        /* \"#utility.yul\":6286:6290   */\n      0x00\n        /* \"#utility.yul\":6324:6326   */\n      0x20\n        /* \"#utility.yul\":6313:6322   */\n      dup3\n        /* \"#utility.yul\":6309:6327   */\n      add\n        /* \"#utility.yul\":6301:6327   */\n      swap1\n      pop\n        /* \"#utility.yul\":6337:6408   */\n      tag_415\n        /* \"#utility.yul\":6405:6406   */\n      0x00\n        /* \"#utility.yul\":6394:6403   */\n      dup4\n        /* \"#utility.yul\":6390:6407   */\n      add\n        /* \"#utility.yul\":6381:6387   */\n      dup5\n        /* \"#utility.yul\":6337:6408   */\n      tag_297\n      jump\t// in\n    tag_415:\n        /* \"#utility.yul\":6193:6415   */\n      swap3\n      swap2\n      pop\n      pop\n      jump\t// out\n        /* \"#utility.yul\":6421:6643   */\n    tag_55:\n        /* \"#utility.yul\":6514:6518   */\n      0x00\n        /* \"#utility.yul\":6552:6554   */\n      0x20\n        /* \"#utility.yul\":6541:6550   */\n      dup3\n        /* \"#utility.yul\":6537:6555   */\n      add\n        /* \"#utility.yul\":6529:6555   */\n      swap1\n      pop\n        /* \"#utility.yul\":6565:6636   */\n      tag_417\n        /* \"#utility.yul\":6633:6634   */\n      0x00\n        /* \"#utility.yul\":6622:6631   */\n      dup4\n        /* \"#utility.yul\":6618:6635   */\n      add\n        /* \"#utility.yul\":6609:6615   */\n      dup5\n        /* \"#utility.yul\":6565:6636   */\n      tag_283\n      jump\t// in\n    tag_417:\n        /* \"#utility.yul\":6421:6643   */\n      swap3\n      swap2\n      pop\n      pop\n      jump\t// out\n        /* \"#utility.yul\":6649:6829   */\n    tag_80:\n        /* \"#utility.yul\":6697:6774   */\n      0x4e487b7100000000000000000000000000000000000000000000000000000000\n        /* \"#utility.yul\":6694:6695   */\n      0x00\n        /* \"#utility.yul\":6687:6775   */\n      mstore\n        /* \"#utility.yul\":6794:6798   */\n      0x21\n        /* \"#utility.yul\":6791:6792   */\n      0x04\n        /* \"#utility.yul\":6784:6799   */\n      mstore\n        /* \"#utility.yul\":6818:6822   */\n      0x24\n        /* \"#utility.yul\":6815:6816   */\n      0x00\n        /* \"#utility.yul\":6808:6823   */\n      revert\n        /* \"#utility.yul\":6835:6958   */\n    tag_298:\n        /* \"#utility.yul\":6926:6927   */\n      0x06\n        /* \"#utility.yul\":6919:6924   */\n      dup2\n        /* \"#utility.yul\":6916:6928   */\n      lt\n        /* \"#utility.yul\":6906:6952   */\n      tag_420\n      jumpi\n        /* \"#utility.yul\":6932:6950   */\n      tag_421\n      tag_80\n      jump\t// in\n    tag_421:\n        /* \"#utility.yul\":6906:6952   */\n    tag_420:\n        /* \"#utility.yul\":6835:6958   */\n      pop\n      jump\t// out\n        /* \"#utility.yul\":6964:7111   */\n    tag_299:\n        /* \"#utility.yul\":7019:7026   */\n      0x00\n        /* \"#utility.yul\":7048:7053   */\n      dup2\n        /* \"#utility.yul\":7037:7053   */\n      swap1\n      pop\n        /* \"#utility.yul\":7054:7105   */\n      tag_423\n        /* \"#utility.yul\":7099:7104   */\n      dup3\n        /* \"#utility.yul\":7054:7105   */\n      tag_298\n      jump\t// in\n    tag_423:\n        /* \"#utility.yul\":6964:7111   */\n      swap2\n      swap1\n      pop\n      jump\t// out\n        /* \"#utility.yul\":7117:7264   */\n    tag_300:\n        /* \"#utility.yul\":7183:7192   */\n      0x00\n        /* \"#utility.yul\":7216:7258   */\n      tag_425\n        /* \"#utility.yul\":7252:7257   */\n      dup3\n        /* \"#utility.yul\":7216:7258   */\n      tag_299\n      jump\t// in\n    tag_425:\n        /* \"#utility.yul\":7203:7258   */\n      swap1\n      pop\n        /* \"#utility.yul\":7117:7264   */\n      swap2\n      swap1\n      pop\n      jump\t// out\n        /* \"#utility.yul\":7270:7433   */\n    tag_301:\n        /* \"#utility.yul\":7373:7426   */\n      tag_427\n        /* \"#utility.yul\":7420:7425   */\n      dup2\n        /* \"#utility.yul\":7373:7426   */\n      tag_300\n      jump\t// in\n    tag_427:\n        /* \"#utility.yul\":7368:7371   */\n      dup3\n        /* \"#utility.yul\":7361:7427   */\n      mstore\n        /* \"#utility.yul\":7270:7433   */\n      pop\n      pop\n      jump\t// out\n        /* \"#utility.yul\":7439:7693   */\n    tag_59:\n        /* \"#utility.yul\":7548:7552   */\n      0x00\n        /* \"#utility.yul\":7586:7588   */\n      0x20\n        /* \"#utility.yul\":7575:7584   */\n      dup3\n        /* \"#utility.yul\":7571:7589   */\n      add\n        /* \"#utility.yul\":7563:7589   */\n      swap1\n      pop\n        /* \"#utility.yul\":7599:7686   */\n      tag_429\n        /* \"#utility.yul\":7683:7684   */\n      0x00\n        /* \"#utility.yul\":7672:7681   */\n      dup4\n        /* \"#utility.yul\":7668:7685   */\n      add\n        /* \"#utility.yul\":7659:7665   */\n      dup5\n        /* \"#utility.yul\":7599:7686   */\n      tag_301\n      jump\t// in\n    tag_429:\n        /* \"#utility.yul\":7439:7693   */\n      swap3\n      swap2\n      pop\n      pop\n      jump\t// out\n        /* \"#utility.yul\":7699:7789   */\n    tag_302:\n        /* \"#utility.yul\":7733:7740   */\n      0x00\n        /* \"#utility.yul\":7776:7781   */\n      dup2\n        /* \"#utility.yul\":7769:7782   */\n      iszero\n        /* \"#utility.yul\":7762:7783   */\n      iszero\n        /* \"#utility.yul\":7751:7783   */\n      swap1\n      pop\n        /* \"#utility.yul\":7699:7789   */\n      swap2\n      swap1\n      pop\n      jump\t// out\n        /* \"#utility.yul\":7795:7904   */\n    tag_303:\n        /* \"#utility.yul\":7876:7897   */\n      tag_432\n        /* \"#utility.yul\":7891:7896   */\n      dup2\n        /* \"#utility.yul\":7876:7897   */\n      tag_302\n      jump\t// in\n    tag_432:\n        /* \"#utility.yul\":7871:7874   */\n      dup3\n        /* \"#utility.yul\":7864:7898   */\n      mstore\n        /* \"#utility.yul\":7795:7904   */\n      pop\n      pop\n      jump\t// out\n        /* \"#utility.yul\":7910:8328   */\n    tag_64:\n        /* \"#utility.yul\":8047:8051   */\n      0x00\n        /* \"#utility.yul\":8085:8087   */\n      0x60\n        /* \"#utility.yul\":8074:8083   */\n      dup3\n        /* \"#utility.yul\":8070:8088   */\n      add\n        /* \"#utility.yul\":8062:8088   */\n      swap1\n      pop\n        /* \"#utility.yul\":8098:8163   */\n      tag_434\n        /* \"#utility.yul\":8160:8161   */\n      0x00\n        /* \"#utility.yul\":8149:8158   */\n      dup4\n        /* \"#utility.yul\":8145:8162   */\n      add\n        /* \"#utility.yul\":8136:8142   */\n      dup7\n        /* \"#utility.yul\":8098:8163   */\n      tag_303\n      jump\t// in\n    tag_434:\n        /* \"#utility.yul\":8173:8239   */\n      tag_435\n        /* \"#utility.yul\":8235:8237   */\n      0x20\n        /* \"#utility.yul\":8224:8233   */\n      dup4\n        /* \"#utility.yul\":8220:8238   */\n      add\n        /* \"#utility.yul\":8211:8217   */\n      dup6\n        /* \"#utility.yul\":8173:8239   */\n      tag_303\n      jump\t// in\n    tag_435:\n        /* \"#utility.yul\":8249:8321   */\n      tag_436\n        /* \"#utility.yul\":8317:8319   */\n      0x40\n        /* \"#utility.yul\":8306:8315   */\n      dup4\n        /* \"#utility.yul\":8302:8320   */\n      add\n        /* \"#utility.yul\":8293:8299   */\n      dup5\n        /* \"#utility.yul\":8249:8321   */\n      tag_283\n      jump\t// in\n    tag_436:\n        /* \"#utility.yul\":7910:8328   */\n      swap5\n      swap4\n      pop\n      pop\n      pop\n      pop\n      jump\t// out\n        /* \"#utility.yul\":8334:8507   */\n    tag_304:\n        /* \"#utility.yul\":8474:8499   */\n      0x496e76616c696420776f726b666c6f7720737461747573000000000000000000\n        /* \"#utility.yul\":8470:8471   */\n      0x00\n        /* \"#utility.yul\":8462:8468   */\n      dup3\n        /* \"#utility.yul\":8458:8472   */\n      add\n        /* \"#utility.yul\":8451:8500   */\n      mstore\n        /* \"#utility.yul\":8334:8507   */\n      pop\n      jump\t// out\n        /* \"#utility.yul\":8513:8879   */\n    tag_305:\n        /* \"#utility.yul\":8655:8658   */\n      0x00\n        /* \"#utility.yul\":8676:8743   */\n      tag_439\n        /* \"#utility.yul\":8740:8742   */\n      0x17\n        /* \"#utility.yul\":8735:8738   */\n      dup4\n        /* \"#utility.yul\":8676:8743   */\n      tag_279\n      jump\t// in\n    tag_439:\n        /* \"#utility.yul\":8669:8743   */\n      swap2\n      pop\n        /* \"#utility.yul\":8752:8845   */\n      tag_440\n        /* \"#utility.yul\":8841:8844   */\n      dup3\n        /* \"#utility.yul\":8752:8845   */\n      tag_304\n      jump\t// in\n    tag_440:\n        /* \"#utility.yul\":8870:8872   */\n      0x20\n        /* \"#utility.yul\":8865:8868   */\n      dup3\n        /* \"#utility.yul\":8861:8873   */\n      add\n        /* \"#utility.yul\":8854:8873   */\n      swap1\n      pop\n        /* \"#utility.yul\":8513:8879   */\n      swap2\n      swap1\n      pop\n      jump\t// out\n        /* \"#utility.yul\":8885:9304   */\n    tag_85:\n        /* \"#utility.yul\":9051:9055   */\n      0x00\n        /* \"#utility.yul\":9089:9091   */\n      0x20\n        /* \"#utility.yul\":9078:9087   */\n      dup3\n        /* \"#utility.yul\":9074:9092   */\n      add\n        /* \"#utility.yul\":9066:9092   */\n      swap1\n      pop\n        /* \"#utility.yul\":9138:9147   */\n      dup2\n        /* \"#utility.yul\":9132:9136   */\n      dup2\n        /* \"#utility.yul\":9128:9148   */\n      sub\n        /* \"#utility.yul\":9124:9125   */\n      0x00\n        /* \"#utility.yul\":9113:9122   */\n      dup4\n        /* \"#utility.yul\":9109:9126   */\n      add\n        /* \"#utility.yul\":9102:9149   */\n      mstore\n        /* \"#utility.yul\":9166:9297   */\n      tag_442\n        /* \"#utility.yul\":9292:9296   */\n      dup2\n        /* \"#utility.yul\":9166:9297   */\n      tag_305\n      jump\t// in\n    tag_442:\n        /* \"#utility.yul\":9158:9297   */\n      swap1\n      pop\n        /* \"#utility.yul\":8885:9304   */\n      swap2\n      swap1\n      pop\n      jump\t// out\n        /* \"#utility.yul\":9310:9483   */\n    tag_306:\n        /* \"#utility.yul\":9450:9475   */\n      0x566f746572206973206e6f742072656769737465726564000000000000000000\n        /* \"#utility.yul\":9446:9447   */\n      0x00\n        /* \"#utility.yul\":9438:9444   */\n      dup3\n        /* \"#utility.yul\":9434:9448   */\n      add\n        /* \"#utility.yul\":9427:9476   */\n      mstore\n        /* \"#utility.yul\":9310:9483   */\n      pop\n      jump\t// out\n        /* \"#utility.yul\":9489:9855   */\n    tag_307:\n        /* \"#utility.yul\":9631:9634   */\n      0x00\n        /* \"#utility.yul\":9652:9719   */\n      tag_445\n        /* \"#utility.yul\":9716:9718   */\n      0x17\n        /* \"#utility.yul\":9711:9714   */\n      dup4\n        /* \"#utility.yul\":9652:9719   */\n      tag_279\n      jump\t// in\n    tag_445:\n        /* \"#utility.yul\":9645:9719   */\n      swap2\n      pop\n        /* \"#utility.yul\":9728:9821   */\n      tag_446\n        /* \"#utility.yul\":9817:9820   */\n      dup3\n        /* \"#utility.yul\":9728:9821   */\n      tag_306\n      jump\t// in\n    tag_446:\n        /* \"#utility.yul\":9846:9848   */\n      0x20\n        /* \"#utility.yul\":9841:9844   */\n      dup3\n        /* \"#utility.yul\":9837:9849   */\n      add\n        /* \"#utility.yul\":9830:9849   */\n      swap1\n      pop\n        /* \"#utility.yul\":9489:9855   */\n      swap2\n      swap1\n      pop\n      jump\t// out\n        /* \"#utility.yul\":9861:10280   */\n    tag_89:\n        /* \"#utility.yul\":10027:10031   */\n      0x00\n        /* \"#utility.yul\":10065:10067   */\n      0x20\n        /* \"#utility.yul\":10054:10063   */\n      dup3\n        /* \"#utility.yul\":10050:10068   */\n      add\n        /* \"#utility.yul\":10042:10068   */\n      swap1\n      pop\n        /* \"#utility.yul\":10114:10123   */\n      dup2\n        /* \"#utility.yul\":10108:10112   */\n      dup2\n        /* \"#utility.yul\":10104:10124   */\n      sub\n        /* \"#utility.yul\":10100:10101   */\n      0x00\n        /* \"#utility.yul\":10089:10098   */\n      dup4\n        /* \"#utility.yul\":10085:10102   */\n      add\n        /* \"#utility.yul\":10078:10125   */\n      mstore\n        /* \"#utility.yul\":10142:10273   */\n      tag_448\n        /* \"#utility.yul\":10268:10272   */\n      dup2\n        /* \"#utility.yul\":10142:10273   */\n      tag_307\n      jump\t// in\n    tag_448:\n        /* \"#utility.yul\":10134:10273   */\n      swap1\n      pop\n        /* \"#utility.yul\":9861:10280   */\n      swap2\n      swap1\n      pop\n      jump\t// out\n        /* \"#utility.yul\":10286:10459   */\n    tag_308:\n        /* \"#utility.yul\":10426:10451   */\n      0x566f7465722068617320616c726561647920766f746564000000000000000000\n        /* \"#utility.yul\":10422:10423   */\n      0x00\n        /* \"#utility.yul\":10414:10420   */\n      dup3\n        /* \"#utility.yul\":10410:10424   */\n      add\n        /* \"#utility.yul\":10403:10452   */\n      mstore\n        /* \"#utility.yul\":10286:10459   */\n      pop\n      jump\t// out\n        /* \"#utility.yul\":10465:10831   */\n    tag_309:\n        /* \"#utility.yul\":10607:10610   */\n      0x00\n        /* \"#utility.yul\":10628:10695   */\n      tag_451\n        /* \"#utility.yul\":10692:10694   */\n      0x17\n        /* \"#utility.yul\":10687:10690   */\n      dup4\n        /* \"#utility.yul\":10628:10695   */\n      tag_279\n      jump\t// in\n    tag_451:\n        /* \"#utility.yul\":10621:10695   */\n      swap2\n      pop\n        /* \"#utility.yul\":10704:10797   */\n      tag_452\n        /* \"#utility.yul\":10793:10796   */\n      dup3\n        /* \"#utility.yul\":10704:10797   */\n      tag_308\n      jump\t// in\n    tag_452:\n        /* \"#utility.yul\":10822:10824   */\n      0x20\n        /* \"#utility.yul\":10817:10820   */\n      dup3\n        /* \"#utility.yul\":10813:10825   */\n      add\n        /* \"#utility.yul\":10806:10825   */\n      swap1\n      pop\n        /* \"#utility.yul\":10465:10831   */\n      swap2\n      swap1\n      pop\n      jump\t// out\n        /* \"#utility.yul\":10837:11256   */\n    tag_92:\n        /* \"#utility.yul\":11003:11007   */\n      0x00\n        /* \"#utility.yul\":11041:11043   */\n      0x20\n        /* \"#utility.yul\":11030:11039   */\n      dup3\n        /* \"#utility.yul\":11026:11044   */\n      add\n        /* \"#utility.yul\":11018:11044   */\n      swap1\n      pop\n        /* \"#utility.yul\":11090:11099   */\n      dup2\n        /* \"#utility.yul\":11084:11088   */\n      dup2\n        /* \"#utility.yul\":11080:11100   */\n      sub\n        /* \"#utility.yul\":11076:11077   */\n      0x00\n        /* \"#utility.yul\":11065:11074   */\n      dup4\n        /* \"#utility.yul\":11061:11078   */\n      add\n        /* \"#utility.yul\":11054:11101   */\n      mstore\n        /* \"#utility.yul\":11118:11249   */\n      tag_454\n        /* \"#utility.yul\":11244:11248   */\n      dup2\n        /* \"#utility.yul\":11118:11249   */\n      tag_309\n      jump\t// in\n    tag_454:\n        /* \"#utility.yul\":11110:11249   */\n      swap1\n      pop\n        /* \"#utility.yul\":10837:11256   */\n      swap2\n      swap1\n      pop\n      jump\t// out\n        /* \"#utility.yul\":11262:11431   */\n    tag_310:\n        /* \"#utility.yul\":11402:11423   */\n      0x496e76616c69642070726f706f73616c20494400000000000000000000000000\n        /* \"#utility.yul\":11398:11399   */\n      0x00\n        /* \"#utility.yul\":11390:11396   */\n      dup3\n        /* \"#utility.yul\":11386:11400   */\n      add\n        /* \"#utility.yul\":11379:11424   */\n      mstore\n        /* \"#utility.yul\":11262:11431   */\n      pop\n      jump\t// out\n        /* \"#utility.yul\":11437:11803   */\n    tag_311:\n        /* \"#utility.yul\":11579:11582   */\n      0x00\n        /* \"#utility.yul\":11600:11667   */\n      tag_457\n        /* \"#utility.yul\":11664:11666   */\n      0x13\n        /* \"#utility.yul\":11659:11662   */\n      dup4\n        /* \"#utility.yul\":11600:11667   */\n      tag_279\n      jump\t// in\n    tag_457:\n        /* \"#utility.yul\":11593:11667   */\n      swap2\n      pop\n        /* \"#utility.yul\":11676:11769   */\n      tag_458\n        /* \"#utility.yul\":11765:11768   */\n      dup3\n        /* \"#utility.yul\":11676:11769   */\n      tag_310\n      jump\t// in\n    tag_458:\n        /* \"#utility.yul\":11794:11796   */\n      0x20\n        /* \"#utility.yul\":11789:11792   */\n      dup3\n        /* \"#utility.yul\":11785:11797   */\n      add\n        /* \"#utility.yul\":11778:11797   */\n      swap1\n      pop\n        /* \"#utility.yul\":11437:11803   */\n      swap2\n      swap1\n      pop\n      jump\t// out\n        /* \"#utility.yul\":11809:12228   */\n    tag_95:\n        /* \"#utility.yul\":11975:11979   */\n      0x00\n        /* \"#utility.yul\":12013:12015   */\n      0x20\n        /* \"#utility.yul\":12002:12011   */\n      dup3\n        /* \"#utility.yul\":11998:12016   */\n      add\n        /* \"#utility.yul\":11990:12016   */\n      swap1\n      pop\n        /* \"#utility.yul\":12062:12071   */\n      dup2\n        /* \"#utility.yul\":12056:12060   */\n      dup2\n        /* \"#utility.yul\":12052:12072   */\n      sub\n        /* \"#utility.yul\":12048:12049   */\n      0x00\n        /* \"#utility.yul\":12037:12046   */\n      dup4\n        /* \"#utility.yul\":12033:12050   */\n      add\n        /* \"#utility.yul\":12026:12073   */\n      mstore\n        /* \"#utility.yul\":12090:12221   */\n      tag_460\n        /* \"#utility.yul\":12216:12220   */\n      dup2\n        /* \"#utility.yul\":12090:12221   */\n      tag_311\n      jump\t// in\n    tag_460:\n        /* \"#utility.yul\":12082:12221   */\n      swap1\n      pop\n        /* \"#utility.yul\":11809:12228   */\n      swap2\n      swap1\n      pop\n      jump\t// out\n        /* \"#utility.yul\":12234:12414   */\n    tag_98:\n        /* \"#utility.yul\":12282:12359   */\n      0x4e487b7100000000000000000000000000000000000000000000000000000000\n        /* \"#utility.yul\":12279:12280   */\n      0x00\n        /* \"#utility.yul\":12272:12360   */\n      mstore\n        /* \"#utility.yul\":12379:12383   */\n      0x32\n        /* \"#utility.yul\":12376:12377   */\n      0x04\n        /* \"#utility.yul\":12369:12384   */\n      mstore\n        /* \"#utility.yul\":12403:12407   */\n      0x24\n        /* \"#utility.yul\":12400:12401   */\n      0x00\n        /* \"#utility.yul\":12393:12408   */\n      revert\n        /* \"#utility.yul\":12420:12600   */\n    tag_312:\n        /* \"#utility.yul\":12468:12545   */\n      0x4e487b7100000000000000000000000000000000000000000000000000000000\n        /* \"#utility.yul\":12465:12466   */\n      0x00\n        /* \"#utility.yul\":12458:12546   */\n      mstore\n        /* \"#utility.yul\":12565:12569   */\n      0x11\n        /* \"#utility.yul\":12562:12563   */\n      0x04\n        /* \"#utility.yul\":12555:12570   */\n      mstore\n        /* \"#utility.yul\":12589:12593   */\n      0x24\n        /* \"#utility.yul\":12586:12587   */\n      0x00\n        /* \"#utility.yul\":12579:12594   */\n      revert\n        /* \"#utility.yul\":12606:12839   */\n    tag_101:\n        /* \"#utility.yul\":12645:12648   */\n      0x00\n        /* \"#utility.yul\":12668:12692   */\n      tag_464\n        /* \"#utility.yul\":12686:12691   */\n      dup3\n        /* \"#utility.yul\":12668:12692   */\n      tag_275\n      jump\t// in\n    tag_464:\n        /* \"#utility.yul\":12659:12692   */\n      swap2\n      pop\n        /* \"#utility.yul\":12714:12780   */\n      0xffffffffffffffffffffffffffffffffffffffffffffffffffffffffffffffff\n        /* \"#utility.yul\":12707:12712   */\n      dup3\n        /* \"#utility.yul\":12704:12781   */\n      sub\n        /* \"#utility.yul\":12701:12804   */\n      tag_465\n      jumpi\n        /* \"#utility.yul\":12784:12802   */\n      tag_466\n      tag_312\n      jump\t// in\n    tag_466:\n        /* \"#utility.yul\":12701:12804   */\n    tag_465:\n        /* \"#utility.yul\":12831:12832   */\n      0x01\n        /* \"#utility.yul\":12824:12829   */\n      dup3\n        /* \"#utility.yul\":12820:12833   */\n      add\n        /* \"#utility.yul\":12813:12833   */\n      swap1\n      pop\n        /* \"#utility.yul\":12606:12839   */\n      swap2\n      swap1\n      pop\n      jump\t// out\n        /* \"#utility.yul\":12845:13025   */\n    tag_313:\n        /* \"#utility.yul\":12893:12970   */\n      0x4e487b7100000000000000000000000000000000000000000000000000000000\n        /* \"#utility.yul\":12890:12891   */\n      0x00\n        /* \"#utility.yul\":12883:12971   */\n      mstore\n        /* \"#utility.yul\":12990:12994   */\n      0x22\n        /* \"#utility.yul\":12987:12988   */\n      0x04\n        /* \"#utility.yul\":12980:12995   */\n      mstore\n        /* \"#utility.yul\":13014:13018   */\n      0x24\n        /* \"#utility.yul\":13011:13012   */\n      0x00\n        /* \"#utility.yul\":13004:13019   */\n      revert\n        /* \"#utility.yul\":13031:13351   */\n    tag_106:\n        /* \"#utility.yul\":13075:13081   */\n      0x00\n        /* \"#utility.yul\":13112:13113   */\n      0x02\n        /* \"#utility.yul\":13106:13110   */\n      dup3\n        /* \"#utility.yul\":13102:13114   */\n      div\n        /* \"#utility.yul\":13092:13114   */\n      swap1\n      pop\n        /* \"#utility.yul\":13159:13160   */\n      0x01\n        /* \"#utility.yul\":13153:13157   */\n      dup3\n        /* \"#utility.yul\":13149:13161   */\n      and\n        /* \"#utility.yul\":13180:13198   */\n      dup1\n        /* \"#utility.yul\":13170:13251   */\n      tag_469\n      jumpi\n        /* \"#utility.yul\":13236:13240   */\n      0x7f\n        /* \"#utility.yul\":13228:13234   */\n      dup3\n        /* \"#utility.yul\":13224:13241   */\n      and\n        /* \"#utility.yul\":13214:13241   */\n      swap2\n      pop\n        /* \"#utility.yul\":13170:13251   */\n    tag_469:\n        /* \"#utility.yul\":13298:13300   */\n      0x20\n        /* \"#utility.yul\":13290:13296   */\n      dup3\n        /* \"#utility.yul\":13287:13301   */\n      lt\n        /* \"#utility.yul\":13267:13285   */\n      dup2\n        /* \"#utility.yul\":13264:13302   */\n      sub\n        /* \"#utility.yul\":13261:13345   */\n      tag_470\n      jumpi\n        /* \"#utility.yul\":13317:13335   */\n      tag_471\n      tag_313\n      jump\t// in\n    tag_471:\n        /* \"#utility.yul\":13261:13345   */\n    tag_470:\n        /* \"#utility.yul\":13082:13351   */\n      pop\n        /* \"#utility.yul\":13031:13351   */\n      swap2\n      swap1\n      pop\n      jump\t// out\n        /* \"#utility.yul\":13357:13498   */\n    tag_314:\n        /* \"#utility.yul\":13406:13410   */\n      0x00\n        /* \"#utility.yul\":13429:13432   */\n      dup2\n        /* \"#utility.yul\":13421:13432   */\n      swap1\n      pop\n        /* \"#utility.yul\":13452:13455   */\n      dup2\n        /* \"#utility.yul\":13449:13450   */\n      0x00\n        /* \"#utility.yul\":13442:13456   */\n      mstore\n        /* \"#utility.yul\":13486:13490   */\n      0x20\n        /* \"#utility.yul\":13483:13484   */\n      0x00\n        /* \"#utility.yul\":13473:13491   */\n      keccak256\n        /* \"#utility.yul\":13465:13491   */\n      swap1\n      pop\n        /* \"#utility.yul\":13357:13498   */\n      swap2\n      swap1\n      pop\n      jump\t// out\n        /* \"#utility.yul\":13504:13597   */\n    tag_315:\n        /* \"#utility.yul\":13541:13547   */\n      0x00\n        /* \"#utility.yul\":13588:13590   */\n      0x20\n        /* \"#utility.yul\":13583:13585   */\n      0x1f\n        /* \"#utility.yul\":13576:13581   */\n      dup4\n        /* \"#utility.yul\":13572:13586   */\n      add\n        /* \"#utility.yul\":13568:13591   */\n      div\n        /* \"#utility.yul\":13558:13591   */\n      swap1\n      pop\n        /* \"#utility.yul\":13504:13597   */\n      swap2\n      swap1\n      pop\n      jump\t// out\n        /* \"#utility.yul\":13603:13710   */\n    tag_316:\n        /* \"#utility.yul\":13647:13655   */\n      0x00\n        /* \"#utility.yul\":13697:13702   */\n      dup3\n        /* \"#utility.yul\":13691:13695   */\n      dup3\n        /* \"#utility.yul\":13687:13703   */\n      shl\n        /* \"#utility.yul\":13666:13703   */\n      swap1\n      pop\n        /* \"#utility.yul\":13603:13710   */\n      swap3\n      swap2\n      pop\n      pop\n      jump\t// out\n        /* \"#utility.yul\":13716:14109   */\n    tag_317:\n        /* \"#utility.yul\":13785:13791   */\n      0x00\n        /* \"#utility.yul\":13835:13836   */\n      0x08\n        /* \"#utility.yul\":13823:13833   */\n      dup4\n        /* \"#utility.yul\":13819:13837   */\n      mul\n        /* \"#utility.yul\":13858:13955   */\n      tag_476\n        /* \"#utility.yul\":13888:13954   */\n      0xffffffffffffffffffffffffffffffffffffffffffffffffffffffffffffffff\n        /* \"#utility.yul\":13877:13886   */\n      dup3\n        /* \"#utility.yul\":13858:13955   */\n      tag_316\n      jump\t// in\n    tag_476:\n        /* \"#utility.yul\":13976:14015   */\n      tag_477\n        /* \"#utility.yul\":14006:14014   */\n      dup7\n        /* \"#utility.yul\":13995:14004   */\n      dup4\n        /* \"#utility.yul\":13976:14015   */\n      tag_316\n      jump\t// in\n    tag_477:\n        /* \"#utility.yul\":13964:14015   */\n      swap6\n      pop\n        /* \"#utility.yul\":14048:14052   */\n      dup1\n        /* \"#utility.yul\":14044:14053   */\n      not\n        /* \"#utility.yul\":14037:14042   */\n      dup5\n        /* \"#utility.yul\":14033:14054   */\n      and\n        /* \"#utility.yul\":14024:14054   */\n      swap4\n      pop\n        /* \"#utility.yul\":14097:14101   */\n      dup1\n        /* \"#utility.yul\":14087:14095   */\n      dup7\n        /* \"#utility.yul\":14083:14102   */\n      and\n        /* \"#utility.yul\":14076:14081   */\n      dup5\n        /* \"#utility.yul\":14073:14103   */\n      or\n        /* \"#utility.yul\":14063:14103   */\n      swap3\n      pop\n        /* \"#utility.yul\":13792:14109   */\n      pop\n      pop\n        /* \"#utility.yul\":13716:14109   */\n      swap4\n      swap3\n      pop\n      pop\n      pop\n      jump\t// out\n        /* \"#utility.yul\":14115:14175   */\n    tag_318:\n        /* \"#utility.yul\":14143:14146   */\n      0x00\n        /* \"#utility.yul\":14164:14169   */\n      dup2\n        /* \"#utility.yul\":14157:14169   */\n      swap1\n      pop\n        /* \"#utility.yul\":14115:14175   */\n      swap2\n      swap1\n      pop\n      jump\t// out\n        /* \"#utility.yul\":14181:14323   */\n    tag_319:\n        /* \"#utility.yul\":14231:14240   */\n      0x00\n        /* \"#utility.yul\":14264:14317   */\n      tag_480\n        /* \"#utility.yul\":14282:14316   */\n      tag_481\n        /* \"#utility.yul\":14291:14315   */\n      tag_482\n        /* \"#utility.yul\":14309:14314   */\n      dup5\n        /* \"#utility.yul\":14291:14315   */\n      tag_275\n      jump\t// in\n    tag_482:\n        /* \"#utility.yul\":14282:14316   */\n      tag_318\n      jump\t// in\n    tag_481:\n        /* \"#utility.yul\":14264:14317   */\n      tag_275\n      jump\t// in\n    tag_480:\n        /* \"#utility.yul\":14251:14317   */\n      swap1\n      pop\n        /* \"#utility.yul\":14181:14323   */\n      swap2\n      swap1\n      pop\n      jump\t// out\n        /* \"#utility.yul\":14329:14404   */\n    tag_320:\n        /* \"#utility.yul\":14372:14375   */\n      0x00\n        /* \"#utility.yul\":14393:14398   */\n      dup2\n        /* \"#utility.yul\":14386:14398   */\n      swap1\n      pop\n        /* \"#utility.yul\":14329:14404   */\n      swap2\n      swap1\n      pop\n      jump\t// out\n        /* \"#utility.yul\":14410:14679   */\n    tag_321:\n        /* \"#utility.yul\":14520:14559   */\n      tag_485\n        /* \"#utility.yul\":14551:14558   */\n      dup4\n        /* \"#utility.yul\":14520:14559   */\n      tag_319\n      jump\t// in\n    tag_485:\n        /* \"#utility.yul\":14581:14672   */\n      tag_486\n        /* \"#utility.yul\":14630:14671   */\n      tag_487\n        /* \"#utility.yul\":14654:14670   */\n      dup3\n        /* \"#utility.yul\":14630:14671   */\n      tag_320\n      jump\t// in\n    tag_487:\n        /* \"#utility.yul\":14622:14628   */\n      dup5\n        /* \"#utility.yul\":14615:14619   */\n      dup5\n        /* \"#utility.yul\":14609:14620   */\n      sload\n        /* \"#utility.yul\":14581:14672   */\n      tag_317\n      jump\t// in\n    tag_486:\n        /* \"#utility.yul\":14575:14579   */\n      dup3\n        /* \"#utility.yul\":14568:14673   */\n      sstore\n        /* \"#utility.yul\":14486:14679   */\n      pop\n        /* \"#utility.yul\":14410:14679   */\n      pop\n      pop\n      pop\n      jump\t// out\n        /* \"#utility.yul\":14685:14758   */\n    tag_322:\n        /* \"#utility.yul\":14730:14733   */\n      0x00\n        /* \"#utility.yul\":14685:14758   */\n      swap1\n      jump\t// out\n        /* \"#utility.yul\":14764:14953   */\n    tag_323:\n        /* \"#utility.yul\":14841:14873   */\n      tag_490\n      tag_322\n      jump\t// in\n    tag_490:\n        /* \"#utility.yul\":14882:14947   */\n      tag_491\n        /* \"#utility.yul\":14940:14946   */\n      dup2\n        /* \"#utility.yul\":14932:14938   */\n      dup5\n        /* \"#utility.yul\":14926:14930   */\n      dup5\n        /* \"#utility.yul\":14882:14947   */\n      tag_321\n      jump\t// in\n    tag_491:\n        /* \"#utility.yul\":14817:14953   */\n      pop\n        /* \"#utility.yul\":14764:14953   */\n      pop\n      pop\n      jump\t// out\n        /* \"#utility.yul\":14959:15145   */\n    tag_324:\n        /* \"#utility.yul\":15019:15139   */\n    tag_493:\n        /* \"#utility.yul\":15036:15039   */\n      dup2\n        /* \"#utility.yul\":15029:15034   */\n      dup2\n        /* \"#utility.yul\":15026:15040   */\n      lt\n        /* \"#utility.yul\":15019:15139   */\n      iszero\n      tag_495\n      jumpi\n        /* \"#utility.yul\":15090:15129   */\n      tag_496\n        /* \"#utility.yul\":15127:15128   */\n      0x00\n        /* \"#utility.yul\":15120:15125   */\n      dup3\n        /* \"#utility.yul\":15090:15129   */\n      tag_323\n      jump\t// in\n    tag_496:\n        /* \"#utility.yul\":15063:15064   */\n      0x01\n        /* \"#utility.yul\":15056:15061   */\n      dup2\n        /* \"#utility.yul\":15052:15065   */\n      add\n        /* \"#utility.yul\":15043:15065   */\n      swap1\n      pop\n        /* \"#utility.yul\":15019:15139   */\n      jump(tag_493)\n    tag_495:\n        /* \"#utility.yul\":14959:15145   */\n      pop\n      pop\n      jump\t// out\n        /* \"#utility.yul\":15151:15694   */\n    tag_325:\n        /* \"#utility.yul\":15252:15254   */\n      0x1f\n        /* \"#utility.yul\":15247:15250   */\n      dup3\n        /* \"#utility.yul\":15244:15255   */\n      gt\n        /* \"#utility.yul\":15241:15687   */\n      iszero\n      tag_498\n      jumpi\n        /* \"#utility.yul\":15286:15324   */\n      tag_499\n        /* \"#utility.yul\":15318:15323   */\n      dup2\n        /* \"#utility.yul\":15286:15324   */\n      tag_314\n      jump\t// in\n    tag_499:\n        /* \"#utility.yul\":15370:15399   */\n      tag_500\n        /* \"#utility.yul\":15388:15398   */\n      dup5\n        /* \"#utility.yul\":15370:15399   */\n      tag_315\n      jump\t// in\n    tag_500:\n        /* \"#utility.yul\":15360:15368   */\n      dup2\n        /* \"#utility.yul\":15356:15400   */\n      add\n        /* \"#utility.yul\":15553:15555   */\n      0x20\n        /* \"#utility.yul\":15541:15551   */\n      dup6\n        /* \"#utility.yul\":15538:15556   */\n      lt\n        /* \"#utility.yul\":15535:15584   */\n      iszero\n      tag_501\n      jumpi\n        /* \"#utility.yul\":15574:15582   */\n      dup2\n        /* \"#utility.yul\":15559:15582   */\n      swap1\n      pop\n        /* \"#utility.yul\":15535:15584   */\n    tag_501:\n        /* \"#utility.yul\":15597:15677   */\n      tag_502\n        /* \"#utility.yul\":15653:15675   */\n      tag_503\n        /* \"#utility.yul\":15671:15674   */\n      dup6\n        /* \"#utility.yul\":15653:15675   */\n      tag_315\n      jump\t// in\n    tag_503:\n        /* \"#utility.yul\":15643:15651   */\n      dup4\n        /* \"#utility.yul\":15639:15676   */\n      add\n        /* \"#utility.yul\":15626:15637   */\n      dup3\n        /* \"#utility.yul\":15597:15677   */\n      tag_324\n      jump\t// in\n    tag_502:\n        /* \"#utility.yul\":15256:15687   */\n      pop\n      pop\n        /* \"#utility.yul\":15241:15687   */\n    tag_498:\n        /* \"#utility.yul\":15151:15694   */\n      pop\n      pop\n      pop\n      jump\t// out\n        /* \"#utility.yul\":15700:15817   */\n    tag_326:\n        /* \"#utility.yul\":15754:15762   */\n      0x00\n        /* \"#utility.yul\":15804:15809   */\n      dup3\n        /* \"#utility.yul\":15798:15802   */\n      dup3\n        /* \"#utility.yul\":15794:15810   */\n      shr\n        /* \"#utility.yul\":15773:15810   */\n      swap1\n      pop\n        /* \"#utility.yul\":15700:15817   */\n      swap3\n      swap2\n      pop\n      pop\n      jump\t// out\n        /* \"#utility.yul\":15823:15992   */\n    tag_327:\n        /* \"#utility.yul\":15867:15873   */\n      0x00\n        /* \"#utility.yul\":15900:15951   */\n      tag_506\n        /* \"#utility.yul\":15948:15949   */\n      0x00\n        /* \"#utility.yul\":15944:15950   */\n      not\n        /* \"#utility.yul\":15936:15941   */\n      dup5\n        /* \"#utility.yul\":15933:15934   */\n      0x08\n        /* \"#utility.yul\":15929:15942   */\n      mul\n        /* \"#utility.yul\":15900:15951   */\n      tag_326\n      jump\t// in\n    tag_506:\n        /* \"#utility.yul\":15896:15952   */\n      not\n        /* \"#utility.yul\":15981:15985   */\n      dup1\n        /* \"#utility.yul\":15975:15979   */\n      dup4\n        /* \"#utility.yul\":15971:15986   */\n      and\n        /* \"#utility.yul\":15961:15986   */\n      swap2\n      pop\n        /* \"#utility.yul\":15874:15992   */\n      pop\n        /* \"#utility.yul\":15823:15992   */\n      swap3\n      swap2\n      pop\n      pop\n      jump\t// out\n        /* \"#utility.yul\":15997:16292   */\n    tag_328:\n        /* \"#utility.yul\":16073:16077   */\n      0x00\n        /* \"#utility.yul\":16219:16248   */\n      tag_508\n        /* \"#utility.yul\":16244:16247   */\n      dup4\n        /* \"#utility.yul\":16238:16242   */\n      dup4\n        /* \"#utility.yul\":16219:16248   */\n      tag_327\n      jump\t// in\n    tag_508:\n        /* \"#utility.yul\":16211:16248   */\n      swap2\n      pop\n        /* \"#utility.yul\":16281:16284   */\n      dup3\n        /* \"#utility.yul\":16278:16279   */\n      0x02\n        /* \"#utility.yul\":16274:16285   */\n      mul\n        /* \"#utility.yul\":16268:16272   */\n      dup3\n        /* \"#utility.yul\":16265:16286   */\n      or\n        /* \"#utility.yul\":16257:16286   */\n      swap1\n      pop\n        /* \"#utility.yul\":15997:16292   */\n      swap3\n      swap2\n      pop\n      pop\n      jump\t// out\n        /* \"#utility.yul\":16297:17692   */\n    tag_121:\n        /* \"#utility.yul\":16414:16451   */\n      tag_510\n        /* \"#utility.yul\":16447:16450   */\n      dup3\n        /* \"#utility.yul\":16414:16451   */\n      tag_278\n      jump\t// in\n    tag_510:\n        /* \"#utility.yul\":16516:16534   */\n      0xffffffffffffffff\n        /* \"#utility.yul\":16508:16514   */\n      dup2\n        /* \"#utility.yul\":16505:16535   */\n      gt\n        /* \"#utility.yul\":16502:16558   */\n      iszero\n      tag_511\n      jumpi\n        /* \"#utility.yul\":16538:16556   */\n      tag_512\n      tag_286\n      jump\t// in\n    tag_512:\n        /* \"#utility.yul\":16502:16558   */\n    tag_511:\n        /* \"#utility.yul\":16582:16620   */\n      tag_513\n        /* \"#utility.yul\":16614:16618   */\n      dup3\n        /* \"#utility.yul\":16608:16619   */\n      sload\n        /* \"#utility.yul\":16582:16620   */\n      tag_106\n      jump\t// in\n    tag_513:\n        /* \"#utility.yul\":16667:16734   */\n      tag_514\n        /* \"#utility.yul\":16727:16733   */\n      dup3\n        /* \"#utility.yul\":16719:16725   */\n      dup3\n        /* \"#utility.yul\":16713:16717   */\n      dup6\n        /* \"#utility.yul\":16667:16734   */\n      tag_325\n      jump\t// in\n    tag_514:\n        /* \"#utility.yul\":16761:16762   */\n      0x00\n        /* \"#utility.yul\":16785:16789   */\n      0x20\n        /* \"#utility.yul\":16772:16789   */\n      swap1\n      pop\n        /* \"#utility.yul\":16817:16819   */\n      0x1f\n        /* \"#utility.yul\":16809:16815   */\n      dup4\n        /* \"#utility.yul\":16806:16820   */\n      gt\n        /* \"#utility.yul\":16834:16835   */\n      0x01\n        /* \"#utility.yul\":16829:17447   */\n      dup2\n      eq\n      tag_516\n      jumpi\n        /* \"#utility.yul\":17491:17492   */\n      0x00\n        /* \"#utility.yul\":17508:17514   */\n      dup5\n        /* \"#utility.yul\":17505:17582   */\n      iszero\n      tag_517\n      jumpi\n        /* \"#utility.yul\":17557:17566   */\n      dup3\n        /* \"#utility.yul\":17552:17555   */\n      dup8\n        /* \"#utility.yul\":17548:17567   */\n      add\n        /* \"#utility.yul\":17542:17568   */\n      mload\n        /* \"#utility.yul\":17533:17568   */\n      swap1\n      pop\n        /* \"#utility.yul\":17505:17582   */\n    tag_517:\n        /* \"#utility.yul\":17608:17675   */\n      tag_518\n        /* \"#utility.yul\":17668:17674   */\n      dup6\n        /* \"#utility.yul\":17661:17666   */\n      dup3\n        /* \"#utility.yul\":17608:17675   */\n      tag_328\n      jump\t// in\n    tag_518:\n        /* \"#utility.yul\":17602:17606   */\n      dup7\n        /* \"#utility.yul\":17595:17676   */\n      sstore\n        /* \"#utility.yul\":17464:17686   */\n      pop\n        /* \"#utility.yul\":16799:17686   */\n      jump(tag_515)\n        /* \"#utility.yul\":16829:17447   */\n    tag_516:\n        /* \"#utility.yul\":16881:16885   */\n      0x1f\n        /* \"#utility.yul\":16877:16886   */\n      not\n        /* \"#utility.yul\":16869:16875   */\n      dup5\n        /* \"#utility.yul\":16865:16887   */\n      and\n        /* \"#utility.yul\":16915:16952   */\n      tag_519\n        /* \"#utility.yul\":16947:16951   */\n      dup7\n        /* \"#utility.yul\":16915:16952   */\n      tag_314\n      jump\t// in\n    tag_519:\n        /* \"#utility.yul\":16974:16975   */\n      0x00\n        /* \"#utility.yul\":16988:17196   */\n    tag_520:\n        /* \"#utility.yul\":17002:17009   */\n      dup3\n        /* \"#utility.yul\":16999:17000   */\n      dup2\n        /* \"#utility.yul\":16996:17010   */\n      lt\n        /* \"#utility.yul\":16988:17196   */\n      iszero\n      tag_522\n      jumpi\n        /* \"#utility.yul\":17081:17090   */\n      dup5\n        /* \"#utility.yul\":17076:17079   */\n      dup10\n        /* \"#utility.yul\":17072:17091   */\n      add\n        /* \"#utility.yul\":17066:17092   */\n      mload\n        /* \"#utility.yul\":17058:17064   */\n      dup3\n        /* \"#utility.yul\":17051:17093   */\n      sstore\n        /* \"#utility.yul\":17132:17133   */\n      0x01\n        /* \"#utility.yul\":17124:17130   */\n      dup3\n        /* \"#utility.yul\":17120:17134   */\n      add\n        /* \"#utility.yul\":17110:17134   */\n      swap2\n      pop\n        /* \"#utility.yul\":17179:17181   */\n      0x20\n        /* \"#utility.yul\":17168:17177   */\n      dup6\n        /* \"#utility.yul\":17164:17182   */\n      add\n        /* \"#utility.yul\":17151:17182   */\n      swap5\n      pop\n        /* \"#utility.yul\":17025:17029   */\n      0x20\n        /* \"#utility.yul\":17022:17023   */\n      dup2\n        /* \"#utility.yul\":17018:17030   */\n      add\n        /* \"#utility.yul\":17013:17030   */\n      swap1\n      pop\n        /* \"#utility.yul\":16988:17196   */\n      jump(tag_520)\n    tag_522:\n        /* \"#utility.yul\":17224:17230   */\n      dup7\n        /* \"#utility.yul\":17215:17222   */\n      dup4\n        /* \"#utility.yul\":17212:17231   */\n      lt\n        /* \"#utility.yul\":17209:17388   */\n      iszero\n      tag_523\n      jumpi\n        /* \"#utility.yul\":17282:17291   */\n      dup5\n        /* \"#utility.yul\":17277:17280   */\n      dup10\n        /* \"#utility.yul\":17273:17292   */\n      add\n        /* \"#utility.yul\":17267:17293   */\n      mload\n        /* \"#utility.yul\":17325:17373   */\n      tag_524\n        /* \"#utility.yul\":17367:17371   */\n      0x1f\n        /* \"#utility.yul\":17359:17365   */\n      dup10\n        /* \"#utility.yul\":17355:17372   */\n      and\n        /* \"#utility.yul\":17344:17353   */\n      dup3\n        /* \"#utility.yul\":17325:17373   */\n      tag_327\n      jump\t// in\n    tag_524:\n        /* \"#utility.yul\":17317:17323   */\n      dup4\n        /* \"#utility.yul\":17310:17374   */\n      sstore\n        /* \"#utility.yul\":17232:17388   */\n      pop\n        /* \"#utility.yul\":17209:17388   */\n    tag_523:\n        /* \"#utility.yul\":17434:17435   */\n      0x01\n        /* \"#utility.yul\":17430:17431   */\n      0x02\n        /* \"#utility.yul\":17422:17428   */\n      dup9\n        /* \"#utility.yul\":17418:17432   */\n      mul\n        /* \"#utility.yul\":17414:17436   */\n      add\n        /* \"#utility.yul\":17408:17412   */\n      dup9\n        /* \"#utility.yul\":17401:17437   */\n      sstore\n        /* \"#utility.yul\":16836:17447   */\n      pop\n      pop\n      pop\n        /* \"#utility.yul\":16799:17686   */\n    tag_515:\n      pop\n        /* \"#utility.yul\":16389:17692   */\n      pop\n      pop\n      pop\n        /* \"#utility.yul\":16297:17692   */\n      pop\n      pop\n      jump\t// out\n        /* \"#utility.yul\":17698:17892   */\n    tag_123:\n        /* \"#utility.yul\":17738:17742   */\n      0x00\n        /* \"#utility.yul\":17758:17778   */\n      tag_526\n        /* \"#utility.yul\":17776:17777   */\n      dup3\n        /* \"#utility.yul\":17758:17778   */\n      tag_275\n      jump\t// in\n    tag_526:\n        /* \"#utility.yul\":17753:17778   */\n      swap2\n      pop\n        /* \"#utility.yul\":17792:17812   */\n      tag_527\n        /* \"#utility.yul\":17810:17811   */\n      dup4\n        /* \"#utility.yul\":17792:17812   */\n      tag_275\n      jump\t// in\n    tag_527:\n        /* \"#utility.yul\":17787:17812   */\n      swap3\n      pop\n        /* \"#utility.yul\":17836:17837   */\n      dup3\n        /* \"#utility.yul\":17833:17834   */\n      dup3\n        /* \"#utility.yul\":17829:17838   */\n      sub\n        /* \"#utility.yul\":17821:17838   */\n      swap1\n      pop\n        /* \"#utility.yul\":17860:17861   */\n      dup2\n        /* \"#utility.yul\":17854:17858   */\n      dup2\n        /* \"#utility.yul\":17851:17862   */\n      gt\n        /* \"#utility.yul\":17848:17885   */\n      iszero\n      tag_528\n      jumpi\n        /* \"#utility.yul\":17865:17883   */\n      tag_529\n      tag_312\n      jump\t// in\n    tag_529:\n        /* \"#utility.yul\":17848:17885   */\n    tag_528:\n        /* \"#utility.yul\":17698:17892   */\n      swap3\n      swap2\n      pop\n      pop\n      jump\t// out\n        /* \"#utility.yul\":17898:18294   */\n    tag_139:\n        /* \"#utility.yul\":18051:18055   */\n      0x00\n        /* \"#utility.yul\":18089:18091   */\n      0x40\n        /* \"#utility.yul\":18078:18087   */\n      dup3\n        /* \"#utility.yul\":18074:18092   */\n      add\n        /* \"#utility.yul\":18066:18092   */\n      swap1\n      pop\n        /* \"#utility.yul\":18102:18189   */\n      tag_531\n        /* \"#utility.yul\":18186:18187   */\n      0x00\n        /* \"#utility.yul\":18175:18184   */\n      dup4\n        /* \"#utility.yul\":18171:18188   */\n      add\n        /* \"#utility.yul\":18162:18168   */\n      dup6\n        /* \"#utility.yul\":18102:18189   */\n      tag_301\n      jump\t// in\n    tag_531:\n        /* \"#utility.yul\":18199:18287   */\n      tag_532\n        /* \"#utility.yul\":18283:18285   */\n      0x20\n        /* \"#utility.yul\":18272:18281   */\n      dup4\n        /* \"#utility.yul\":18268:18286   */\n      add\n        /* \"#utility.yul\":18259:18265   */\n      dup5\n        /* \"#utility.yul\":18199:18287   */\n      tag_301\n      jump\t// in\n    tag_532:\n        /* \"#utility.yul\":17898:18294   */\n      swap4\n      swap3\n      pop\n      pop\n      pop\n      jump\t// out\n        /* \"#utility.yul\":18300:18477   */\n    tag_329:\n        /* \"#utility.yul\":18440:18469   */\n      0x566f74657220697320616c726561647920726567697374657265640000000000\n        /* \"#utility.yul\":18436:18437   */\n      0x00\n        /* \"#utility.yul\":18428:18434   */\n      dup3\n        /* \"#utility.yul\":18424:18438   */\n      add\n        /* \"#utility.yul\":18417:18470   */\n      mstore\n        /* \"#utility.yul\":18300:18477   */\n      pop\n      jump\t// out\n        /* \"#utility.yul\":18483:18849   */\n    tag_330:\n        /* \"#utility.yul\":18625:18628   */\n      0x00\n        /* \"#utility.yul\":18646:18713   */\n      tag_535\n        /* \"#utility.yul\":18710:18712   */\n      0x1b\n        /* \"#utility.yul\":18705:18708   */\n      dup4\n        /* \"#utility.yul\":18646:18713   */\n      tag_279\n      jump\t// in\n    tag_535:\n        /* \"#utility.yul\":18639:18713   */\n      swap2\n      pop\n        /* \"#utility.yul\":18722:18815   */\n      tag_536\n        /* \"#utility.yul\":18811:18814   */\n      dup3\n        /* \"#utility.yul\":18722:18815   */\n      tag_329\n      jump\t// in\n    tag_536:\n        /* \"#utility.yul\":18840:18842   */\n      0x20\n        /* \"#utility.yul\":18835:18838   */\n      dup3\n        /* \"#utility.yul\":18831:18843   */\n      add\n        /* \"#utility.yul\":18824:18843   */\n      swap1\n      pop\n        /* \"#utility.yul\":18483:18849   */\n      swap2\n      swap1\n      pop\n      jump\t// out\n        /* \"#utility.yul\":18855:19274   */\n    tag_163:\n        /* \"#utility.yul\":19021:19025   */\n      0x00\n        /* \"#utility.yul\":19059:19061   */\n      0x20\n        /* \"#utility.yul\":19048:19057   */\n      dup3\n        /* \"#utility.yul\":19044:19062   */\n      add\n        /* \"#utility.yul\":19036:19062   */\n      swap1\n      pop\n        /* \"#utility.yul\":19108:19117   */\n      dup2\n        /* \"#utility.yul\":19102:19106   */\n      dup2\n        /* \"#utility.yul\":19098:19118   */\n      sub\n        /* \"#utility.yul\":19094:19095   */\n      0x00\n        /* \"#utility.yul\":19083:19092   */\n      dup4\n        /* \"#utility.yul\":19079:19096   */\n      add\n        /* \"#utility.yul\":19072:19119   */\n      mstore\n        /* \"#utility.yul\":19136:19267   */\n      tag_538\n        /* \"#utility.yul\":19262:19266   */\n      dup2\n        /* \"#utility.yul\":19136:19267   */\n      tag_330\n      jump\t// in\n    tag_538:\n        /* \"#utility.yul\":19128:19267   */\n      swap1\n      pop\n        /* \"#utility.yul\":18855:19274   */\n      swap2\n      swap1\n      pop\n      jump\t// out\n        /* \"#utility.yul\":19280:19453   */\n    tag_331:\n        /* \"#utility.yul\":19420:19445   */\n      0x566f74657220686173206e6f7420766f74656420796574000000000000000000\n        /* \"#utility.yul\":19416:19417   */\n      0x00\n        /* \"#utility.yul\":19408:19414   */\n      dup3\n        /* \"#utility.yul\":19404:19418   */\n      add\n        /* \"#utility.yul\":19397:19446   */\n      mstore\n        /* \"#utility.yul\":19280:19453   */\n      pop\n      jump\t// out\n        /* \"#utility.yul\":19459:19825   */\n    tag_332:\n        /* \"#utility.yul\":19601:19604   */\n      0x00\n        /* \"#utility.yul\":19622:19689   */\n      tag_541\n        /* \"#utility.yul\":19686:19688   */\n      0x17\n        /* \"#utility.yul\":19681:19684   */\n      dup4\n        /* \"#utility.yul\":19622:19689   */\n      tag_279\n      jump\t// in\n    tag_541:\n        /* \"#utility.yul\":19615:19689   */\n      swap2\n      pop\n        /* \"#utility.yul\":19698:19791   */\n      tag_542\n        /* \"#utility.yul\":19787:19790   */\n      dup3\n        /* \"#utility.yul\":19698:19791   */\n      tag_331\n      jump\t// in\n    tag_542:\n        /* \"#utility.yul\":19816:19818   */\n      0x20\n        /* \"#utility.yul\":19811:19814   */\n      dup3\n        /* \"#utility.yul\":19807:19819   */\n      add\n        /* \"#utility.yul\":19800:19819   */\n      swap1\n      pop\n        /* \"#utility.yul\":19459:19825   */\n      swap2\n      swap1\n      pop\n      jump\t// out\n        /* \"#utility.yul\":19831:20250   */\n    tag_176:\n        /* \"#utility.yul\":19997:20001   */\n      0x00\n        /* \"#utility.yul\":20035:20037   */\n      0x20\n        /* \"#utility.yul\":20024:20033   */\n      dup3\n        /* \"#utility.yul\":20020:20038   */\n      add\n        /* \"#utility.yul\":20012:20038   */\n      swap1\n      pop\n        /* \"#utility.yul\":20084:20093   */\n      dup2\n        /* \"#utility.yul\":20078:20082   */\n      dup2\n        /* \"#utility.yul\":20074:20094   */\n      sub\n        /* \"#utility.yul\":20070:20071   */\n      0x00\n        /* \"#utility.yul\":20059:20068   */\n      dup4\n        /* \"#utility.yul\":20055:20072   */\n      add\n        /* \"#utility.yul\":20048:20095   */\n      mstore\n        /* \"#utility.yul\":20112:20243   */\n      tag_544\n        /* \"#utility.yul\":20238:20242   */\n      dup2\n        /* \"#utility.yul\":20112:20243   */\n      tag_332\n      jump\t// in\n    tag_544:\n        /* \"#utility.yul\":20104:20243   */\n      swap1\n      pop\n        /* \"#utility.yul\":19831:20250   */\n      swap2\n      swap1\n      pop\n      jump\t// out\n        /* \"#utility.yul\":20256:20427   */\n    tag_181:\n        /* \"#utility.yul\":20295:20298   */\n      0x00\n        /* \"#utility.yul\":20318:20342   */\n      tag_546\n        /* \"#utility.yul\":20336:20341   */\n      dup3\n        /* \"#utility.yul\":20318:20342   */\n      tag_275\n      jump\t// in\n    tag_546:\n        /* \"#utility.yul\":20309:20342   */\n      swap2\n      pop\n        /* \"#utility.yul\":20364:20368   */\n      0x00\n        /* \"#utility.yul\":20357:20362   */\n      dup3\n        /* \"#utility.yul\":20354:20369   */\n      sub\n        /* \"#utility.yul\":20351:20392   */\n      tag_547\n      jumpi\n        /* \"#utility.yul\":20372:20390   */\n      tag_548\n      tag_312\n      jump\t// in\n    tag_548:\n        /* \"#utility.yul\":20351:20392   */\n    tag_547:\n        /* \"#utility.yul\":20419:20420   */\n      0x01\n        /* \"#utility.yul\":20412:20417   */\n      dup3\n        /* \"#utility.yul\":20408:20421   */\n      sub\n        /* \"#utility.yul\":20401:20421   */\n      swap1\n      pop\n        /* \"#utility.yul\":20256:20427   */\n      swap2\n      swap1\n      pop\n      jump\t// out\n        /* \"#utility.yul\":20433:20518   */\n    tag_333:\n        /* \"#utility.yul\":20478:20485   */\n      0x00\n        /* \"#utility.yul\":20507:20512   */\n      dup2\n        /* \"#utility.yul\":20496:20512   */\n      swap1\n      pop\n        /* \"#utility.yul\":20433:20518   */\n      swap2\n      swap1\n      pop\n      jump\t// out\n        /* \"#utility.yul\":20524:20682   */\n    tag_334:\n        /* \"#utility.yul\":20582:20591   */\n      0x00\n        /* \"#utility.yul\":20615:20676   */\n      tag_551\n        /* \"#utility.yul\":20633:20675   */\n      tag_552\n        /* \"#utility.yul\":20642:20674   */\n      tag_553\n        /* \"#utility.yul\":20668:20673   */\n      dup5\n        /* \"#utility.yul\":20642:20674   */\n      tag_333\n      jump\t// in\n    tag_553:\n        /* \"#utility.yul\":20633:20675   */\n      tag_318\n      jump\t// in\n    tag_552:\n        /* \"#utility.yul\":20615:20676   */\n      tag_275\n      jump\t// in\n    tag_551:\n        /* \"#utility.yul\":20602:20676   */\n      swap1\n      pop\n        /* \"#utility.yul\":20524:20682   */\n      swap2\n      swap1\n      pop\n      jump\t// out\n        /* \"#utility.yul\":20688:20835   */\n    tag_335:\n        /* \"#utility.yul\":20783:20828   */\n      tag_555\n        /* \"#utility.yul\":20822:20827   */\n      dup2\n        /* \"#utility.yul\":20783:20828   */\n      tag_334\n      jump\t// in\n    tag_555:\n        /* \"#utility.yul\":20778:20781   */\n      dup3\n        /* \"#utility.yul\":20771:20829   */\n      mstore\n        /* \"#utility.yul\":20688:20835   */\n      pop\n      pop\n      jump\t// out\n        /* \"#utility.yul\":20841:21079   */\n    tag_183:\n        /* \"#utility.yul\":20942:20946   */\n      0x00\n        /* \"#utility.yul\":20980:20982   */\n      0x20\n        /* \"#utility.yul\":20969:20978   */\n      dup3\n        /* \"#utility.yul\":20965:20983   */\n      add\n        /* \"#utility.yul\":20957:20983   */\n      swap1\n      pop\n        /* \"#utility.yul\":20993:21072   */\n      tag_557\n        /* \"#utility.yul\":21069:21070   */\n      0x00\n        /* \"#utility.yul\":21058:21067   */\n      dup4\n        /* \"#utility.yul\":21054:21071   */\n      add\n        /* \"#utility.yul\":21045:21051   */\n      dup5\n        /* \"#utility.yul\":20993:21072   */\n      tag_335\n      jump\t// in\n    tag_557:\n        /* \"#utility.yul\":20841:21079   */\n      swap3\n      swap2\n      pop\n      pop\n      jump\t// out\n        /* \"#utility.yul\":21085:21260   */\n    tag_336:\n        /* \"#utility.yul\":21225:21252   */\n      0x566f74696e67206973206e6f742074616c6c6965642079657400000000000000\n        /* \"#utility.yul\":21221:21222   */\n      0x00\n        /* \"#utility.yul\":21213:21219   */\n      dup3\n        /* \"#utility.yul\":21209:21223   */\n      add\n        /* \"#utility.yul\":21202:21253   */\n      mstore\n        /* \"#utility.yul\":21085:21260   */\n      pop\n      jump\t// out\n        /* \"#utility.yul\":21266:21632   */\n    tag_337:\n        /* \"#utility.yul\":21408:21411   */\n      0x00\n        /* \"#utility.yul\":21429:21496   */\n      tag_560\n        /* \"#utility.yul\":21493:21495   */\n      0x19\n        /* \"#utility.yul\":21488:21491   */\n      dup4\n        /* \"#utility.yul\":21429:21496   */\n      tag_279\n      jump\t// in\n    tag_560:\n        /* \"#utility.yul\":21422:21496   */\n      swap2\n      pop\n        /* \"#utility.yul\":21505:21598   */\n      tag_561\n        /* \"#utility.yul\":21594:21597   */\n      dup3\n        /* \"#utility.yul\":21505:21598   */\n      tag_336\n      jump\t// in\n    tag_561:\n        /* \"#utility.yul\":21623:21625   */\n      0x20\n        /* \"#utility.yul\":21618:21621   */\n      dup3\n        /* \"#utility.yul\":21614:21626   */\n      add\n        /* \"#utility.yul\":21607:21626   */\n      swap1\n      pop\n        /* \"#utility.yul\":21266:21632   */\n      swap2\n      swap1\n      pop\n      jump\t// out\n        /* \"#utility.yul\":21638:22057   */\n    tag_217:\n        /* \"#utility.yul\":21804:21808   */\n      0x00\n        /* \"#utility.yul\":21842:21844   */\n      0x20\n        /* \"#utility.yul\":21831:21840   */\n      dup3\n        /* \"#utility.yul\":21827:21845   */\n      add\n        /* \"#utility.yul\":21819:21845   */\n      swap1\n      pop\n        /* \"#utility.yul\":21891:21900   */\n      dup2\n        /* \"#utility.yul\":21885:21889   */\n      dup2\n        /* \"#utility.yul\":21881:21901   */\n      sub\n        /* \"#utility.yul\":21877:21878   */\n      0x00\n        /* \"#utility.yul\":21866:21875   */\n      dup4\n        /* \"#utility.yul\":21862:21879   */\n      add\n        /* \"#utility.yul\":21855:21902   */\n      mstore\n        /* \"#utility.yul\":21919:22050   */\n      tag_563\n        /* \"#utility.yul\":22045:22049   */\n      dup2\n        /* \"#utility.yul\":21919:22050   */\n      tag_337\n      jump\t// in\n    tag_563:\n        /* \"#utility.yul\":21911:22050   */\n      swap1\n      pop\n        /* \"#utility.yul\":21638:22057   */\n      swap2\n      swap1\n      pop\n      jump\t// out\n\n    auxdata: 0xa2646970667358221220013cf7a7fa0aaaacd3adb93d593224a531f1b72b1e9c3b6651f5d0d9dda24ed864736f6c63430008150033\n}\n",
				"bytecode": {
					"linkReferences": {},
					"object": "608060405234801562000010575f80fd5b50335f73ffffffffffffffffffffffffffffffffffffffff168173ffffffffffffffffffffffffffffffffffffffff160362000085575f6040517f1e4fbdf70000000000000000000000000000000000000000000000000000000081526004016200007c9190620001cd565b60405180910390fd5b6200009681620000c960201b60201c565b505f8060146101000a81548160ff02191690836005811115620000be57620000bd620001e8565b5b021790555062000215565b5f805f9054906101000a900473ffffffffffffffffffffffffffffffffffffffff169050815f806101000a81548173ffffffffffffffffffffffffffffffffffffffff021916908373ffffffffffffffffffffffffffffffffffffffff1602179055508173ffffffffffffffffffffffffffffffffffffffff168173ffffffffffffffffffffffffffffffffffffffff167f8be0079c531659141344cd1fd0a4f28419497f9722a3daafe3b4186f6b6457e060405160405180910390a35050565b5f73ffffffffffffffffffffffffffffffffffffffff82169050919050565b5f620001b5826200018a565b9050919050565b620001c781620001a9565b82525050565b5f602082019050620001e25f830184620001bc565b92915050565b7f4e487b71000000000000000000000000000000000000000000000000000000005f52602160045260245ffd5b611ff180620002235f395ff3fe608060405234801561000f575f80fd5b5060043610610109575f3560e01c80638da5cb5b116100a0578063a7bfab161161006f578063a7bfab1614610246578063c64963c514610250578063e09b8c791461026e578063ee74c67814610278578063f2fde38b1461028257610109565b80638da5cb5b146101ba5780638e7ea5b2146101d8578063a1edffa2146101f6578063a3ec138d1461021457610109565b806338db6dd3116100dc57806338db6dd31461018057806343c14b221461019c5780636c297445146101a6578063715018a6146101b057610109565b80630121b93f1461010d578063013cf08b146101295780632f95355b1461015a578063378a217814610176575b5f80fd5b610127600480360381019061012291906114a0565b61029e565b005b610143600480360381019061013e91906114a0565b61059a565b604051610151929190611564565b60405180910390f35b610174600480360381019061016f91906116be565b61064f565b005b61017e61076d565b005b61019a6004803603810190610195919061175f565b6108d1565b005b6101a4610a78565b005b6101ae610d6f565b005b6101b8610e55565b005b6101c2610e68565b6040516101cf9190611799565b60405180910390f35b6101e0610e8f565b6040516101ed91906117b2565b60405180910390f35b6101fe610f83565b60405161020b919061183e565b60405180910390f35b61022e6004803603810190610229919061175f565b610f95565b60405161023d93929190611871565b60405180910390f35b61024e610fd3565b005b6102586110b9565b60405161026591906117b2565b60405180910390f35b6102766110bf565b005b6102806111a3565b005b61029c6004803603810190610297919061175f565b611289565b005b60038060058111156102b3576102b26117cb565b5b5f60149054906101000a900460ff1660058111156102d4576102d36117cb565b5b14610314576040517f08c379a000000000000000000000000000000000000000000000000000000000815260040161030b906118f0565b60405180910390fd5b60025f3373ffffffffffffffffffffffffffffffffffffffff1673ffffffffffffffffffffffffffffffffffffffff1681526020019081526020015f205f015f9054906101000a900460ff1661039f576040517f08c379a000000000000000000000000000000000000000000000000000000000815260040161039690611958565b60405180910390fd5b60025f3373ffffffffffffffffffffffffffffffffffffffff1673ffffffffffffffffffffffffffffffffffffffff1681526020019081526020015f205f0160019054906101000a900460ff161561042c576040517f08c379a0000000000000000000000000000000000000000000000000000000008152600401610423906119c0565b60405180910390fd5b6001805490508210610473576040517f08c379a000000000000000000000000000000000000000000000000000000000815260040161046a90611a28565b60405180910390fd5b600160025f3373ffffffffffffffffffffffffffffffffffffffff1673ffffffffffffffffffffffffffffffffffffffff1681526020019081526020015f205f0160016101000a81548160ff0219169083151502179055508160025f3373ffffffffffffffffffffffffffffffffffffffff1673ffffffffffffffffffffffffffffffffffffffff1681526020019081526020015f20600101819055506001828154811061052457610523611a46565b5b905f5260205f2090600202016001015f81548092919061054390611aa0565b91905055503373ffffffffffffffffffffffffffffffffffffffff167f4d99b957a2bc29a30ebd96a7be8e68fe50a3c701db28a91436490b7d53870ca48360405161058e91906117b2565b60405180910390a25050565b600181815481106105a9575f80fd5b905f5260205f2090600202015f91509050805f0180546105c890611b14565b80601f01602080910402602001604051908101604052809291908181526020018280546105f490611b14565b801561063f5780601f106106165761010080835404028352916020019161063f565b820191905f5260205f20905b81548152906001019060200180831161062257829003601f168201915b5050505050908060010154905082565b6001806005811115610664576106636117cb565b5b5f60149054906101000a900460ff166005811115610685576106846117cb565b5b146106c5576040517f08c379a00000000000000000000000000000000000000000000000000000000081526004016106bc906118f0565b60405180910390fd5b600160405180604001604052808481526020015f815250908060018154018082558091505060019003905f5260205f2090600202015f909190919091505f820151815f0190816107159190611ce1565b506020820151816001015550507f92e393e9b54e2f801d3ea4beb0c5e71a21cc34a5d34b77d0fb8a3aa1650dc18f600180805490506107549190611db0565b60405161076191906117b2565b60405180910390a15050565b61077561130d565b600480600581111561078a576107896117cb565b5b5f60149054906101000a900460ff1660058111156107ab576107aa6117cb565b5b146107eb576040517f08c379a00000000000000000000000000000000000000000000000000000000081526004016107e2906118f0565b60405180910390fd5b60055f60146101000a81548160ff021916908360058111156108105761080f6117cb565b5b02179055507f0a97a4ee45751e2abf3e4fc8946939630b11b371ea8ae39ccdc3056e98f5cc3f60046005604051610848929190611de3565b60405180910390a15f805b6001805490508110156108cc57816001828154811061087557610874611a46565b5b905f5260205f2090600202016001015411156108b9576001818154811061089f5761089e611a46565b5b905f5260205f209060020201600101549150806003819055505b80806108c490611aa0565b915050610853565b505050565b5f8060058111156108e5576108e46117cb565b5b5f60149054906101000a900460ff166005811115610906576109056117cb565b5b14610946576040517f08c379a000000000000000000000000000000000000000000000000000000000815260040161093d906118f0565b60405180910390fd5b61094e61130d565b60025f8373ffffffffffffffffffffffffffffffffffffffff1673ffffffffffffffffffffffffffffffffffffffff1681526020019081526020015f205f015f9054906101000a900460ff16156109da576040517f08c379a00000000000000000000000000000000000000000000000000000000081526004016109d190611e54565b60405180910390fd5b600160025f8473ffffffffffffffffffffffffffffffffffffffff1673ffffffffffffffffffffffffffffffffffffffff1681526020019081526020015f205f015f6101000a81548160ff0219169083151502179055508173ffffffffffffffffffffffffffffffffffffffff167fb6be2187d059cc2a55fe29e0e503b566e1e0f8c8780096e185429350acffd3dd60405160405180910390a25050565b6003806005811115610a8d57610a8c6117cb565b5b5f60149054906101000a900460ff166005811115610aae57610aad6117cb565b5b14610aee576040517f08c379a0000000000000000000000000000000000000000000000000000000008152600401610ae5906118f0565b60405180910390fd5b60025f3373ffffffffffffffffffffffffffffffffffffffff1673ffffffffffffffffffffffffffffffffffffffff1681526020019081526020015f205f015f9054906101000a900460ff16610b79576040517f08c379a0000000000000000000000000000000000000000000000000000000008152600401610b7090611958565b60405180910390fd5b60025f3373ffffffffffffffffffffffffffffffffffffffff1673ffffffffffffffffffffffffffffffffffffffff1681526020019081526020015f205f0160019054906101000a900460ff16610c05576040517f08c379a0000000000000000000000000000000000000000000000000000000008152600401610bfc90611ebc565b60405180910390fd5b5f60025f3373ffffffffffffffffffffffffffffffffffffffff1673ffffffffffffffffffffffffffffffffffffffff1681526020019081526020015f206001015490505f60025f3373ffffffffffffffffffffffffffffffffffffffff1673ffffffffffffffffffffffffffffffffffffffff1681526020019081526020015f205f0160016101000a81548160ff0219169083151502179055505f60025f3373ffffffffffffffffffffffffffffffffffffffff1673ffffffffffffffffffffffffffffffffffffffff1681526020019081526020015f206001018190555060018181548110610cf957610cf8611a46565b5b905f5260205f2090600202016001015f815480929190610d1890611eda565b91905055503373ffffffffffffffffffffffffffffffffffffffff167f4d99b957a2bc29a30ebd96a7be8e68fe50a3c701db28a91436490b7d53870ca45f604051610d639190611f3a565b60405180910390a25050565b610d7761130d565b6001806005811115610d8c57610d8b6117cb565b5b5f60149054906101000a900460ff166005811115610dad57610dac6117cb565b5b14610ded576040517f08c379a0000000000000000000000000000000000000000000000000000000008152600401610de4906118f0565b60405180910390fd5b60025f60146101000a81548160ff02191690836005811115610e1257610e116117cb565b5b02179055507f0a97a4ee45751e2abf3e4fc8946939630b11b371ea8ae39ccdc3056e98f5cc3f60016002604051610e4a929190611de3565b60405180910390a150565b610e5d61130d565b610e665f611394565b565b5f805f9054906101000a900473ffffffffffffffffffffffffffffffffffffffff16905090565b5f6005806005811115610ea557610ea46117cb565b5b5f60149054906101000a900460ff166005811115610ec657610ec56117cb565b5b14610f06576040517f08c379a0000000000000000000000000000000000000000000000000000000008152600401610efd906118f0565b60405180910390fd5b600580811115610f1957610f186117cb565b5b5f60149054906101000a900460ff166005811115610f3a57610f396117cb565b5b14610f7a576040517f08c379a0000000000000000000000000000000000000000000000000000000008152600401610f7190611f9d565b60405180910390fd5b60035491505090565b5f60149054906101000a900460ff1681565b6002602052805f5260405f205f91509050805f015f9054906101000a900460ff1690805f0160019054906101000a900460ff16908060010154905083565b610fdb61130d565b6003806005811115610ff057610fef6117cb565b5b5f60149054906101000a900460ff166005811115611011576110106117cb565b5b14611051576040517f08c379a0000000000000000000000000000000000000000000000000000000008152600401611048906118f0565b60405180910390fd5b60045f60146101000a81548160ff02191690836005811115611076576110756117cb565b5b02179055507f0a97a4ee45751e2abf3e4fc8946939630b11b371ea8ae39ccdc3056e98f5cc3f600360046040516110ae929190611de3565b60405180910390a150565b60035481565b6110c761130d565b5f8060058111156110db576110da6117cb565b5b5f60149054906101000a900460ff1660058111156110fc576110fb6117cb565b5b1461113c576040517f08c379a0000000000000000000000000000000000000000000000000000000008152600401611133906118f0565b60405180910390fd5b60015f60146101000a81548160ff02191690836005811115611161576111606117cb565b5b02179055507f0a97a4ee45751e2abf3e4fc8946939630b11b371ea8ae39ccdc3056e98f5cc3f5f6001604051611198929190611de3565b60405180910390a150565b6111ab61130d565b60028060058111156111c0576111bf6117cb565b5b5f60149054906101000a900460ff1660058111156111e1576111e06117cb565b5b14611221576040517f08c379a0000000000000000000000000000000000000000000000000000000008152600401611218906118f0565b60405180910390fd5b60035f60146101000a81548160ff02191690836005811115611246576112456117cb565b5b02179055507f0a97a4ee45751e2abf3e4fc8946939630b11b371ea8ae39ccdc3056e98f5cc3f6002600360405161127e929190611de3565b60405180910390a150565b61129161130d565b5f73ffffffffffffffffffffffffffffffffffffffff168173ffffffffffffffffffffffffffffffffffffffff1603611301575f6040517f1e4fbdf70000000000000000000000000000000000000000000000000000000081526004016112f89190611799565b60405180910390fd5b61130a81611394565b50565b611315611455565b73ffffffffffffffffffffffffffffffffffffffff16611333610e68565b73ffffffffffffffffffffffffffffffffffffffff161461139257611356611455565b6040517f118cdaa70000000000000000000000000000000000000000000000000000000081526004016113899190611799565b60405180910390fd5b565b5f805f9054906101000a900473ffffffffffffffffffffffffffffffffffffffff169050815f806101000a81548173ffffffffffffffffffffffffffffffffffffffff021916908373ffffffffffffffffffffffffffffffffffffffff1602179055508173ffffffffffffffffffffffffffffffffffffffff168173ffffffffffffffffffffffffffffffffffffffff167f8be0079c531659141344cd1fd0a4f28419497f9722a3daafe3b4186f6b6457e060405160405180910390a35050565b5f33905090565b5f604051905090565b5f80fd5b5f80fd5b5f819050919050565b61147f8161146d565b8114611489575f80fd5b50565b5f8135905061149a81611476565b92915050565b5f602082840312156114b5576114b4611465565b5b5f6114c28482850161148c565b91505092915050565b5f81519050919050565b5f82825260208201905092915050565b5f5b838110156115025780820151818401526020810190506114e7565b5f8484015250505050565b5f601f19601f8301169050919050565b5f611527826114cb565b61153181856114d5565b93506115418185602086016114e5565b61154a8161150d565b840191505092915050565b61155e8161146d565b82525050565b5f6040820190508181035f83015261157c818561151d565b905061158b6020830184611555565b9392505050565b5f80fd5b5f80fd5b7f4e487b71000000000000000000000000000000000000000000000000000000005f52604160045260245ffd5b6115d08261150d565b810181811067ffffffffffffffff821117156115ef576115ee61159a565b5b80604052505050565b5f61160161145c565b905061160d82826115c7565b919050565b5f67ffffffffffffffff82111561162c5761162b61159a565b5b6116358261150d565b9050602081019050919050565b828183375f83830152505050565b5f61166261165d84611612565b6115f8565b90508281526020810184848401111561167e5761167d611596565b5b611689848285611642565b509392505050565b5f82601f8301126116a5576116a4611592565b5b81356116b5848260208601611650565b91505092915050565b5f602082840312156116d3576116d2611465565b5b5f82013567ffffffffffffffff8111156116f0576116ef611469565b5b6116fc84828501611691565b91505092915050565b5f73ffffffffffffffffffffffffffffffffffffffff82169050919050565b5f61172e82611705565b9050919050565b61173e81611724565b8114611748575f80fd5b50565b5f8135905061175981611735565b92915050565b5f6020828403121561177457611773611465565b5b5f6117818482850161174b565b91505092915050565b61179381611724565b82525050565b5f6020820190506117ac5f83018461178a565b92915050565b5f6020820190506117c55f830184611555565b92915050565b7f4e487b71000000000000000000000000000000000000000000000000000000005f52602160045260245ffd5b60068110611809576118086117cb565b5b50565b5f819050611819826117f8565b919050565b5f6118288261180c565b9050919050565b6118388161181e565b82525050565b5f6020820190506118515f83018461182f565b92915050565b5f8115159050919050565b61186b81611857565b82525050565b5f6060820190506118845f830186611862565b6118916020830185611862565b61189e6040830184611555565b949350505050565b7f496e76616c696420776f726b666c6f77207374617475730000000000000000005f82015250565b5f6118da6017836114d5565b91506118e5826118a6565b602082019050919050565b5f6020820190508181035f830152611907816118ce565b9050919050565b7f566f746572206973206e6f7420726567697374657265640000000000000000005f82015250565b5f6119426017836114d5565b915061194d8261190e565b602082019050919050565b5f6020820190508181035f83015261196f81611936565b9050919050565b7f566f7465722068617320616c726561647920766f7465640000000000000000005f82015250565b5f6119aa6017836114d5565b91506119b582611976565b602082019050919050565b5f6020820190508181035f8301526119d78161199e565b9050919050565b7f496e76616c69642070726f706f73616c204944000000000000000000000000005f82015250565b5f611a126013836114d5565b9150611a1d826119de565b602082019050919050565b5f6020820190508181035f830152611a3f81611a06565b9050919050565b7f4e487b71000000000000000000000000000000000000000000000000000000005f52603260045260245ffd5b7f4e487b71000000000000000000000000000000000000000000000000000000005f52601160045260245ffd5b5f611aaa8261146d565b91507fffffffffffffffffffffffffffffffffffffffffffffffffffffffffffffffff8203611adc57611adb611a73565b5b600182019050919050565b7f4e487b71000000000000000000000000000000000000000000000000000000005f52602260045260245ffd5b5f6002820490506001821680611b2b57607f821691505b602082108103611b3e57611b3d611ae7565b5b50919050565b5f819050815f5260205f209050919050565b5f6020601f8301049050919050565b5f82821b905092915050565b5f60088302611ba07fffffffffffffffffffffffffffffffffffffffffffffffffffffffffffffffff82611b65565b611baa8683611b65565b95508019841693508086168417925050509392505050565b5f819050919050565b5f611be5611be0611bdb8461146d565b611bc2565b61146d565b9050919050565b5f819050919050565b611bfe83611bcb565b611c12611c0a82611bec565b848454611b71565b825550505050565b5f90565b611c26611c1a565b611c31818484611bf5565b505050565b5b81811015611c5457611c495f82611c1e565b600181019050611c37565b5050565b601f821115611c9957611c6a81611b44565b611c7384611b56565b81016020851015611c82578190505b611c96611c8e85611b56565b830182611c36565b50505b505050565b5f82821c905092915050565b5f611cb95f1984600802611c9e565b1980831691505092915050565b5f611cd18383611caa565b9150826002028217905092915050565b611cea826114cb565b67ffffffffffffffff811115611d0357611d0261159a565b5b611d0d8254611b14565b611d18828285611c58565b5f60209050601f831160018114611d49575f8415611d37578287015190505b611d418582611cc6565b865550611da8565b601f198416611d5786611b44565b5f5b82811015611d7e57848901518255600182019150602085019450602081019050611d59565b86831015611d9b5784890151611d97601f891682611caa565b8355505b6001600288020188555050505b505050505050565b5f611dba8261146d565b9150611dc58361146d565b9250828203905081811115611ddd57611ddc611a73565b5b92915050565b5f604082019050611df65f83018561182f565b611e03602083018461182f565b9392505050565b7f566f74657220697320616c7265616479207265676973746572656400000000005f82015250565b5f611e3e601b836114d5565b9150611e4982611e0a565b602082019050919050565b5f6020820190508181035f830152611e6b81611e32565b9050919050565b7f566f74657220686173206e6f7420766f746564207965740000000000000000005f82015250565b5f611ea66017836114d5565b9150611eb182611e72565b602082019050919050565b5f6020820190508181035f830152611ed381611e9a565b9050919050565b5f611ee48261146d565b91505f8203611ef657611ef5611a73565b5b600182039050919050565b5f819050919050565b5f611f24611f1f611f1a84611f01565b611bc2565b61146d565b9050919050565b611f3481611f0a565b82525050565b5f602082019050611f4d5f830184611f2b565b92915050565b7f566f74696e67206973206e6f742074616c6c69656420796574000000000000005f82015250565b5f611f876019836114d5565b9150611f9282611f53565b602082019050919050565b5f6020820190508181035f830152611fb481611f7b565b905091905056fea2646970667358221220013cf7a7fa0aaaacd3adb93d593224a531f1b72b1e9c3b6651f5d0d9dda24ed864736f6c63430008150033",
					"opcodes": "PUSH1 0x80 PUSH1 0x40 MSTORE CALLVALUE DUP1 ISZERO PUSH3 0x10 JUMPI PUSH0 DUP1 REVERT JUMPDEST POP CALLER PUSH0 PUSH20 0xFFFFFFFFFFFFFFFFFFFFFFFFFFFFFFFFFFFFFFFF AND DUP2 PUSH20 0xFFFFFFFFFFFFFFFFFFFFFFFFFFFFFFFFFFFFFFFF AND SUB PUSH3 0x85 JUMPI PUSH0 PUSH1 0x40 MLOAD PUSH32 0x1E4FBDF700000000000000000000000000000000000000000000000000000000 DUP2 MSTORE PUSH1 0x4 ADD PUSH3 0x7C SWAP2 SWAP1 PUSH3 0x1CD JUMP JUMPDEST PUSH1 0x40 MLOAD DUP1 SWAP2 SUB SWAP1 REVERT JUMPDEST PUSH3 0x96 DUP2 PUSH3 0xC9 PUSH1 0x20 SHL PUSH1 0x20 SHR JUMP JUMPDEST POP PUSH0 DUP1 PUSH1 0x14 PUSH2 0x100 EXP DUP2 SLOAD DUP2 PUSH1 0xFF MUL NOT AND SWAP1 DUP4 PUSH1 0x5 DUP2 GT ISZERO PUSH3 0xBE JUMPI PUSH3 0xBD PUSH3 0x1E8 JUMP JUMPDEST JUMPDEST MUL OR SWAP1 SSTORE POP PUSH3 0x215 JUMP JUMPDEST PUSH0 DUP1 PUSH0 SWAP1 SLOAD SWAP1 PUSH2 0x100 EXP SWAP1 DIV PUSH20 0xFFFFFFFFFFFFFFFFFFFFFFFFFFFFFFFFFFFFFFFF AND SWAP1 POP DUP2 PUSH0 DUP1 PUSH2 0x100 EXP DUP2 SLOAD DUP2 PUSH20 0xFFFFFFFFFFFFFFFFFFFFFFFFFFFFFFFFFFFFFFFF MUL NOT AND SWAP1 DUP4 PUSH20 0xFFFFFFFFFFFFFFFFFFFFFFFFFFFFFFFFFFFFFFFF AND MUL OR SWAP1 SSTORE POP DUP2 PUSH20 0xFFFFFFFFFFFFFFFFFFFFFFFFFFFFFFFFFFFFFFFF AND DUP2 PUSH20 0xFFFFFFFFFFFFFFFFFFFFFFFFFFFFFFFFFFFFFFFF AND PUSH32 0x8BE0079C531659141344CD1FD0A4F28419497F9722A3DAAFE3B4186F6B6457E0 PUSH1 0x40 MLOAD PUSH1 0x40 MLOAD DUP1 SWAP2 SUB SWAP1 LOG3 POP POP JUMP JUMPDEST PUSH0 PUSH20 0xFFFFFFFFFFFFFFFFFFFFFFFFFFFFFFFFFFFFFFFF DUP3 AND SWAP1 POP SWAP2 SWAP1 POP JUMP JUMPDEST PUSH0 PUSH3 0x1B5 DUP3 PUSH3 0x18A JUMP JUMPDEST SWAP1 POP SWAP2 SWAP1 POP JUMP JUMPDEST PUSH3 0x1C7 DUP2 PUSH3 0x1A9 JUMP JUMPDEST DUP3 MSTORE POP POP JUMP JUMPDEST PUSH0 PUSH1 0x20 DUP3 ADD SWAP1 POP PUSH3 0x1E2 PUSH0 DUP4 ADD DUP5 PUSH3 0x1BC JUMP JUMPDEST SWAP3 SWAP2 POP POP JUMP JUMPDEST PUSH32 0x4E487B7100000000000000000000000000000000000000000000000000000000 PUSH0 MSTORE PUSH1 0x21 PUSH1 0x4 MSTORE PUSH1 0x24 PUSH0 REVERT JUMPDEST PUSH2 0x1FF1 DUP1 PUSH3 0x223 PUSH0 CODECOPY PUSH0 RETURN INVALID PUSH1 0x80 PUSH1 0x40 MSTORE CALLVALUE DUP1 ISZERO PUSH2 0xF JUMPI PUSH0 DUP1 REVERT JUMPDEST POP PUSH1 0x4 CALLDATASIZE LT PUSH2 0x109 JUMPI PUSH0 CALLDATALOAD PUSH1 0xE0 SHR DUP1 PUSH4 0x8DA5CB5B GT PUSH2 0xA0 JUMPI DUP1 PUSH4 0xA7BFAB16 GT PUSH2 0x6F JUMPI DUP1 PUSH4 0xA7BFAB16 EQ PUSH2 0x246 JUMPI DUP1 PUSH4 0xC64963C5 EQ PUSH2 0x250 JUMPI DUP1 PUSH4 0xE09B8C79 EQ PUSH2 0x26E JUMPI DUP1 PUSH4 0xEE74C678 EQ PUSH2 0x278 JUMPI DUP1 PUSH4 0xF2FDE38B EQ PUSH2 0x282 JUMPI PUSH2 0x109 JUMP JUMPDEST DUP1 PUSH4 0x8DA5CB5B EQ PUSH2 0x1BA JUMPI DUP1 PUSH4 0x8E7EA5B2 EQ PUSH2 0x1D8 JUMPI DUP1 PUSH4 0xA1EDFFA2 EQ PUSH2 0x1F6 JUMPI DUP1 PUSH4 0xA3EC138D EQ PUSH2 0x214 JUMPI PUSH2 0x109 JUMP JUMPDEST DUP1 PUSH4 0x38DB6DD3 GT PUSH2 0xDC JUMPI DUP1 PUSH4 0x38DB6DD3 EQ PUSH2 0x180 JUMPI DUP1 PUSH4 0x43C14B22 EQ PUSH2 0x19C JUMPI DUP1 PUSH4 0x6C297445 EQ PUSH2 0x1A6 JUMPI DUP1 PUSH4 0x715018A6 EQ PUSH2 0x1B0 JUMPI PUSH2 0x109 JUMP JUMPDEST DUP1 PUSH4 0x121B93F EQ PUSH2 0x10D JUMPI DUP1 PUSH4 0x13CF08B EQ PUSH2 0x129 JUMPI DUP1 PUSH4 0x2F95355B EQ PUSH2 0x15A JUMPI DUP1 PUSH4 0x378A2178 EQ PUSH2 0x176 JUMPI JUMPDEST PUSH0 DUP1 REVERT JUMPDEST PUSH2 0x127 PUSH1 0x4 DUP1 CALLDATASIZE SUB DUP2 ADD SWAP1 PUSH2 0x122 SWAP2 SWAP1 PUSH2 0x14A0 JUMP JUMPDEST PUSH2 0x29E JUMP JUMPDEST STOP JUMPDEST PUSH2 0x143 PUSH1 0x4 DUP1 CALLDATASIZE SUB DUP2 ADD SWAP1 PUSH2 0x13E SWAP2 SWAP1 PUSH2 0x14A0 JUMP JUMPDEST PUSH2 0x59A JUMP JUMPDEST PUSH1 0x40 MLOAD PUSH2 0x151 SWAP3 SWAP2 SWAP1 PUSH2 0x1564 JUMP JUMPDEST PUSH1 0x40 MLOAD DUP1 SWAP2 SUB SWAP1 RETURN JUMPDEST PUSH2 0x174 PUSH1 0x4 DUP1 CALLDATASIZE SUB DUP2 ADD SWAP1 PUSH2 0x16F SWAP2 SWAP1 PUSH2 0x16BE JUMP JUMPDEST PUSH2 0x64F JUMP JUMPDEST STOP JUMPDEST PUSH2 0x17E PUSH2 0x76D JUMP JUMPDEST STOP JUMPDEST PUSH2 0x19A PUSH1 0x4 DUP1 CALLDATASIZE SUB DUP2 ADD SWAP1 PUSH2 0x195 SWAP2 SWAP1 PUSH2 0x175F JUMP JUMPDEST PUSH2 0x8D1 JUMP JUMPDEST STOP JUMPDEST PUSH2 0x1A4 PUSH2 0xA78 JUMP JUMPDEST STOP JUMPDEST PUSH2 0x1AE PUSH2 0xD6F JUMP JUMPDEST STOP JUMPDEST PUSH2 0x1B8 PUSH2 0xE55 JUMP JUMPDEST STOP JUMPDEST PUSH2 0x1C2 PUSH2 0xE68 JUMP JUMPDEST PUSH1 0x40 MLOAD PUSH2 0x1CF SWAP2 SWAP1 PUSH2 0x1799 JUMP JUMPDEST PUSH1 0x40 MLOAD DUP1 SWAP2 SUB SWAP1 RETURN JUMPDEST PUSH2 0x1E0 PUSH2 0xE8F JUMP JUMPDEST PUSH1 0x40 MLOAD PUSH2 0x1ED SWAP2 SWAP1 PUSH2 0x17B2 JUMP JUMPDEST PUSH1 0x40 MLOAD DUP1 SWAP2 SUB SWAP1 RETURN JUMPDEST PUSH2 0x1FE PUSH2 0xF83 JUMP JUMPDEST PUSH1 0x40 MLOAD PUSH2 0x20B SWAP2 SWAP1 PUSH2 0x183E JUMP JUMPDEST PUSH1 0x40 MLOAD DUP1 SWAP2 SUB SWAP1 RETURN JUMPDEST PUSH2 0x22E PUSH1 0x4 DUP1 CALLDATASIZE SUB DUP2 ADD SWAP1 PUSH2 0x229 SWAP2 SWAP1 PUSH2 0x175F JUMP JUMPDEST PUSH2 0xF95 JUMP JUMPDEST PUSH1 0x40 MLOAD PUSH2 0x23D SWAP4 SWAP3 SWAP2 SWAP1 PUSH2 0x1871 JUMP JUMPDEST PUSH1 0x40 MLOAD DUP1 SWAP2 SUB SWAP1 RETURN JUMPDEST PUSH2 0x24E PUSH2 0xFD3 JUMP JUMPDEST STOP JUMPDEST PUSH2 0x258 PUSH2 0x10B9 JUMP JUMPDEST PUSH1 0x40 MLOAD PUSH2 0x265 SWAP2 SWAP1 PUSH2 0x17B2 JUMP JUMPDEST PUSH1 0x40 MLOAD DUP1 SWAP2 SUB SWAP1 RETURN JUMPDEST PUSH2 0x276 PUSH2 0x10BF JUMP JUMPDEST STOP JUMPDEST PUSH2 0x280 PUSH2 0x11A3 JUMP JUMPDEST STOP JUMPDEST PUSH2 0x29C PUSH1 0x4 DUP1 CALLDATASIZE SUB DUP2 ADD SWAP1 PUSH2 0x297 SWAP2 SWAP1 PUSH2 0x175F JUMP JUMPDEST PUSH2 0x1289 JUMP JUMPDEST STOP JUMPDEST PUSH1 0x3 DUP1 PUSH1 0x5 DUP2 GT ISZERO PUSH2 0x2B3 JUMPI PUSH2 0x2B2 PUSH2 0x17CB JUMP JUMPDEST JUMPDEST PUSH0 PUSH1 0x14 SWAP1 SLOAD SWAP1 PUSH2 0x100 EXP SWAP1 DIV PUSH1 0xFF AND PUSH1 0x5 DUP2 GT ISZERO PUSH2 0x2D4 JUMPI PUSH2 0x2D3 PUSH2 0x17CB JUMP JUMPDEST JUMPDEST EQ PUSH2 0x314 JUMPI PUSH1 0x40 MLOAD PUSH32 0x8C379A000000000000000000000000000000000000000000000000000000000 DUP2 MSTORE PUSH1 0x4 ADD PUSH2 0x30B SWAP1 PUSH2 0x18F0 JUMP JUMPDEST PUSH1 0x40 MLOAD DUP1 SWAP2 SUB SWAP1 REVERT JUMPDEST PUSH1 0x2 PUSH0 CALLER PUSH20 0xFFFFFFFFFFFFFFFFFFFFFFFFFFFFFFFFFFFFFFFF AND PUSH20 0xFFFFFFFFFFFFFFFFFFFFFFFFFFFFFFFFFFFFFFFF AND DUP2 MSTORE PUSH1 0x20 ADD SWAP1 DUP2 MSTORE PUSH1 0x20 ADD PUSH0 KECCAK256 PUSH0 ADD PUSH0 SWAP1 SLOAD SWAP1 PUSH2 0x100 EXP SWAP1 DIV PUSH1 0xFF AND PUSH2 0x39F JUMPI PUSH1 0x40 MLOAD PUSH32 0x8C379A000000000000000000000000000000000000000000000000000000000 DUP2 MSTORE PUSH1 0x4 ADD PUSH2 0x396 SWAP1 PUSH2 0x1958 JUMP JUMPDEST PUSH1 0x40 MLOAD DUP1 SWAP2 SUB SWAP1 REVERT JUMPDEST PUSH1 0x2 PUSH0 CALLER PUSH20 0xFFFFFFFFFFFFFFFFFFFFFFFFFFFFFFFFFFFFFFFF AND PUSH20 0xFFFFFFFFFFFFFFFFFFFFFFFFFFFFFFFFFFFFFFFF AND DUP2 MSTORE PUSH1 0x20 ADD SWAP1 DUP2 MSTORE PUSH1 0x20 ADD PUSH0 KECCAK256 PUSH0 ADD PUSH1 0x1 SWAP1 SLOAD SWAP1 PUSH2 0x100 EXP SWAP1 DIV PUSH1 0xFF AND ISZERO PUSH2 0x42C JUMPI PUSH1 0x40 MLOAD PUSH32 0x8C379A000000000000000000000000000000000000000000000000000000000 DUP2 MSTORE PUSH1 0x4 ADD PUSH2 0x423 SWAP1 PUSH2 0x19C0 JUMP JUMPDEST PUSH1 0x40 MLOAD DUP1 SWAP2 SUB SWAP1 REVERT JUMPDEST PUSH1 0x1 DUP1 SLOAD SWAP1 POP DUP3 LT PUSH2 0x473 JUMPI PUSH1 0x40 MLOAD PUSH32 0x8C379A000000000000000000000000000000000000000000000000000000000 DUP2 MSTORE PUSH1 0x4 ADD PUSH2 0x46A SWAP1 PUSH2 0x1A28 JUMP JUMPDEST PUSH1 0x40 MLOAD DUP1 SWAP2 SUB SWAP1 REVERT JUMPDEST PUSH1 0x1 PUSH1 0x2 PUSH0 CALLER PUSH20 0xFFFFFFFFFFFFFFFFFFFFFFFFFFFFFFFFFFFFFFFF AND PUSH20 0xFFFFFFFFFFFFFFFFFFFFFFFFFFFFFFFFFFFFFFFF AND DUP2 MSTORE PUSH1 0x20 ADD SWAP1 DUP2 MSTORE PUSH1 0x20 ADD PUSH0 KECCAK256 PUSH0 ADD PUSH1 0x1 PUSH2 0x100 EXP DUP2 SLOAD DUP2 PUSH1 0xFF MUL NOT AND SWAP1 DUP4 ISZERO ISZERO MUL OR SWAP1 SSTORE POP DUP2 PUSH1 0x2 PUSH0 CALLER PUSH20 0xFFFFFFFFFFFFFFFFFFFFFFFFFFFFFFFFFFFFFFFF AND PUSH20 0xFFFFFFFFFFFFFFFFFFFFFFFFFFFFFFFFFFFFFFFF AND DUP2 MSTORE PUSH1 0x20 ADD SWAP1 DUP2 MSTORE PUSH1 0x20 ADD PUSH0 KECCAK256 PUSH1 0x1 ADD DUP2 SWAP1 SSTORE POP PUSH1 0x1 DUP3 DUP2 SLOAD DUP2 LT PUSH2 0x524 JUMPI PUSH2 0x523 PUSH2 0x1A46 JUMP JUMPDEST JUMPDEST SWAP1 PUSH0 MSTORE PUSH1 0x20 PUSH0 KECCAK256 SWAP1 PUSH1 0x2 MUL ADD PUSH1 0x1 ADD PUSH0 DUP2 SLOAD DUP1 SWAP3 SWAP2 SWAP1 PUSH2 0x543 SWAP1 PUSH2 0x1AA0 JUMP JUMPDEST SWAP2 SWAP1 POP SSTORE POP CALLER PUSH20 0xFFFFFFFFFFFFFFFFFFFFFFFFFFFFFFFFFFFFFFFF AND PUSH32 0x4D99B957A2BC29A30EBD96A7BE8E68FE50A3C701DB28A91436490B7D53870CA4 DUP4 PUSH1 0x40 MLOAD PUSH2 0x58E SWAP2 SWAP1 PUSH2 0x17B2 JUMP JUMPDEST PUSH1 0x40 MLOAD DUP1 SWAP2 SUB SWAP1 LOG2 POP POP JUMP JUMPDEST PUSH1 0x1 DUP2 DUP2 SLOAD DUP2 LT PUSH2 0x5A9 JUMPI PUSH0 DUP1 REVERT JUMPDEST SWAP1 PUSH0 MSTORE PUSH1 0x20 PUSH0 KECCAK256 SWAP1 PUSH1 0x2 MUL ADD PUSH0 SWAP2 POP SWAP1 POP DUP1 PUSH0 ADD DUP1 SLOAD PUSH2 0x5C8 SWAP1 PUSH2 0x1B14 JUMP JUMPDEST DUP1 PUSH1 0x1F ADD PUSH1 0x20 DUP1 SWAP2 DIV MUL PUSH1 0x20 ADD PUSH1 0x40 MLOAD SWAP1 DUP2 ADD PUSH1 0x40 MSTORE DUP1 SWAP3 SWAP2 SWAP1 DUP2 DUP2 MSTORE PUSH1 0x20 ADD DUP3 DUP1 SLOAD PUSH2 0x5F4 SWAP1 PUSH2 0x1B14 JUMP JUMPDEST DUP1 ISZERO PUSH2 0x63F JUMPI DUP1 PUSH1 0x1F LT PUSH2 0x616 JUMPI PUSH2 0x100 DUP1 DUP4 SLOAD DIV MUL DUP4 MSTORE SWAP2 PUSH1 0x20 ADD SWAP2 PUSH2 0x63F JUMP JUMPDEST DUP3 ADD SWAP2 SWAP1 PUSH0 MSTORE PUSH1 0x20 PUSH0 KECCAK256 SWAP1 JUMPDEST DUP2 SLOAD DUP2 MSTORE SWAP1 PUSH1 0x1 ADD SWAP1 PUSH1 0x20 ADD DUP1 DUP4 GT PUSH2 0x622 JUMPI DUP3 SWAP1 SUB PUSH1 0x1F AND DUP3 ADD SWAP2 JUMPDEST POP POP POP POP POP SWAP1 DUP1 PUSH1 0x1 ADD SLOAD SWAP1 POP DUP3 JUMP JUMPDEST PUSH1 0x1 DUP1 PUSH1 0x5 DUP2 GT ISZERO PUSH2 0x664 JUMPI PUSH2 0x663 PUSH2 0x17CB JUMP JUMPDEST JUMPDEST PUSH0 PUSH1 0x14 SWAP1 SLOAD SWAP1 PUSH2 0x100 EXP SWAP1 DIV PUSH1 0xFF AND PUSH1 0x5 DUP2 GT ISZERO PUSH2 0x685 JUMPI PUSH2 0x684 PUSH2 0x17CB JUMP JUMPDEST JUMPDEST EQ PUSH2 0x6C5 JUMPI PUSH1 0x40 MLOAD PUSH32 0x8C379A000000000000000000000000000000000000000000000000000000000 DUP2 MSTORE PUSH1 0x4 ADD PUSH2 0x6BC SWAP1 PUSH2 0x18F0 JUMP JUMPDEST PUSH1 0x40 MLOAD DUP1 SWAP2 SUB SWAP1 REVERT JUMPDEST PUSH1 0x1 PUSH1 0x40 MLOAD DUP1 PUSH1 0x40 ADD PUSH1 0x40 MSTORE DUP1 DUP5 DUP2 MSTORE PUSH1 0x20 ADD PUSH0 DUP2 MSTORE POP SWAP1 DUP1 PUSH1 0x1 DUP2 SLOAD ADD DUP1 DUP3 SSTORE DUP1 SWAP2 POP POP PUSH1 0x1 SWAP1 SUB SWAP1 PUSH0 MSTORE PUSH1 0x20 PUSH0 KECCAK256 SWAP1 PUSH1 0x2 MUL ADD PUSH0 SWAP1 SWAP2 SWAP1 SWAP2 SWAP1 SWAP2 POP PUSH0 DUP3 ADD MLOAD DUP2 PUSH0 ADD SWAP1 DUP2 PUSH2 0x715 SWAP2 SWAP1 PUSH2 0x1CE1 JUMP JUMPDEST POP PUSH1 0x20 DUP3 ADD MLOAD DUP2 PUSH1 0x1 ADD SSTORE POP POP PUSH32 0x92E393E9B54E2F801D3EA4BEB0C5E71A21CC34A5D34B77D0FB8A3AA1650DC18F PUSH1 0x1 DUP1 DUP1 SLOAD SWAP1 POP PUSH2 0x754 SWAP2 SWAP1 PUSH2 0x1DB0 JUMP JUMPDEST PUSH1 0x40 MLOAD PUSH2 0x761 SWAP2 SWAP1 PUSH2 0x17B2 JUMP JUMPDEST PUSH1 0x40 MLOAD DUP1 SWAP2 SUB SWAP1 LOG1 POP POP JUMP JUMPDEST PUSH2 0x775 PUSH2 0x130D JUMP JUMPDEST PUSH1 0x4 DUP1 PUSH1 0x5 DUP2 GT ISZERO PUSH2 0x78A JUMPI PUSH2 0x789 PUSH2 0x17CB JUMP JUMPDEST JUMPDEST PUSH0 PUSH1 0x14 SWAP1 SLOAD SWAP1 PUSH2 0x100 EXP SWAP1 DIV PUSH1 0xFF AND PUSH1 0x5 DUP2 GT ISZERO PUSH2 0x7AB JUMPI PUSH2 0x7AA PUSH2 0x17CB JUMP JUMPDEST JUMPDEST EQ PUSH2 0x7EB JUMPI PUSH1 0x40 MLOAD PUSH32 0x8C379A000000000000000000000000000000000000000000000000000000000 DUP2 MSTORE PUSH1 0x4 ADD PUSH2 0x7E2 SWAP1 PUSH2 0x18F0 JUMP JUMPDEST PUSH1 0x40 MLOAD DUP1 SWAP2 SUB SWAP1 REVERT JUMPDEST PUSH1 0x5 PUSH0 PUSH1 0x14 PUSH2 0x100 EXP DUP2 SLOAD DUP2 PUSH1 0xFF MUL NOT AND SWAP1 DUP4 PUSH1 0x5 DUP2 GT ISZERO PUSH2 0x810 JUMPI PUSH2 0x80F PUSH2 0x17CB JUMP JUMPDEST JUMPDEST MUL OR SWAP1 SSTORE POP PUSH32 0xA97A4EE45751E2ABF3E4FC8946939630B11B371EA8AE39CCDC3056E98F5CC3F PUSH1 0x4 PUSH1 0x5 PUSH1 0x40 MLOAD PUSH2 0x848 SWAP3 SWAP2 SWAP1 PUSH2 0x1DE3 JUMP JUMPDEST PUSH1 0x40 MLOAD DUP1 SWAP2 SUB SWAP1 LOG1 PUSH0 DUP1 JUMPDEST PUSH1 0x1 DUP1 SLOAD SWAP1 POP DUP2 LT ISZERO PUSH2 0x8CC JUMPI DUP2 PUSH1 0x1 DUP3 DUP2 SLOAD DUP2 LT PUSH2 0x875 JUMPI PUSH2 0x874 PUSH2 0x1A46 JUMP JUMPDEST JUMPDEST SWAP1 PUSH0 MSTORE PUSH1 0x20 PUSH0 KECCAK256 SWAP1 PUSH1 0x2 MUL ADD PUSH1 0x1 ADD SLOAD GT ISZERO PUSH2 0x8B9 JUMPI PUSH1 0x1 DUP2 DUP2 SLOAD DUP2 LT PUSH2 0x89F JUMPI PUSH2 0x89E PUSH2 0x1A46 JUMP JUMPDEST JUMPDEST SWAP1 PUSH0 MSTORE PUSH1 0x20 PUSH0 KECCAK256 SWAP1 PUSH1 0x2 MUL ADD PUSH1 0x1 ADD SLOAD SWAP2 POP DUP1 PUSH1 0x3 DUP2 SWAP1 SSTORE POP JUMPDEST DUP1 DUP1 PUSH2 0x8C4 SWAP1 PUSH2 0x1AA0 JUMP JUMPDEST SWAP2 POP POP PUSH2 0x853 JUMP JUMPDEST POP POP POP JUMP JUMPDEST PUSH0 DUP1 PUSH1 0x5 DUP2 GT ISZERO PUSH2 0x8E5 JUMPI PUSH2 0x8E4 PUSH2 0x17CB JUMP JUMPDEST JUMPDEST PUSH0 PUSH1 0x14 SWAP1 SLOAD SWAP1 PUSH2 0x100 EXP SWAP1 DIV PUSH1 0xFF AND PUSH1 0x5 DUP2 GT ISZERO PUSH2 0x906 JUMPI PUSH2 0x905 PUSH2 0x17CB JUMP JUMPDEST JUMPDEST EQ PUSH2 0x946 JUMPI PUSH1 0x40 MLOAD PUSH32 0x8C379A000000000000000000000000000000000000000000000000000000000 DUP2 MSTORE PUSH1 0x4 ADD PUSH2 0x93D SWAP1 PUSH2 0x18F0 JUMP JUMPDEST PUSH1 0x40 MLOAD DUP1 SWAP2 SUB SWAP1 REVERT JUMPDEST PUSH2 0x94E PUSH2 0x130D JUMP JUMPDEST PUSH1 0x2 PUSH0 DUP4 PUSH20 0xFFFFFFFFFFFFFFFFFFFFFFFFFFFFFFFFFFFFFFFF AND PUSH20 0xFFFFFFFFFFFFFFFFFFFFFFFFFFFFFFFFFFFFFFFF AND DUP2 MSTORE PUSH1 0x20 ADD SWAP1 DUP2 MSTORE PUSH1 0x20 ADD PUSH0 KECCAK256 PUSH0 ADD PUSH0 SWAP1 SLOAD SWAP1 PUSH2 0x100 EXP SWAP1 DIV PUSH1 0xFF AND ISZERO PUSH2 0x9DA JUMPI PUSH1 0x40 MLOAD PUSH32 0x8C379A000000000000000000000000000000000000000000000000000000000 DUP2 MSTORE PUSH1 0x4 ADD PUSH2 0x9D1 SWAP1 PUSH2 0x1E54 JUMP JUMPDEST PUSH1 0x40 MLOAD DUP1 SWAP2 SUB SWAP1 REVERT JUMPDEST PUSH1 0x1 PUSH1 0x2 PUSH0 DUP5 PUSH20 0xFFFFFFFFFFFFFFFFFFFFFFFFFFFFFFFFFFFFFFFF AND PUSH20 0xFFFFFFFFFFFFFFFFFFFFFFFFFFFFFFFFFFFFFFFF AND DUP2 MSTORE PUSH1 0x20 ADD SWAP1 DUP2 MSTORE PUSH1 0x20 ADD PUSH0 KECCAK256 PUSH0 ADD PUSH0 PUSH2 0x100 EXP DUP2 SLOAD DUP2 PUSH1 0xFF MUL NOT AND SWAP1 DUP4 ISZERO ISZERO MUL OR SWAP1 SSTORE POP DUP2 PUSH20 0xFFFFFFFFFFFFFFFFFFFFFFFFFFFFFFFFFFFFFFFF AND PUSH32 0xB6BE2187D059CC2A55FE29E0E503B566E1E0F8C8780096E185429350ACFFD3DD PUSH1 0x40 MLOAD PUSH1 0x40 MLOAD DUP1 SWAP2 SUB SWAP1 LOG2 POP POP JUMP JUMPDEST PUSH1 0x3 DUP1 PUSH1 0x5 DUP2 GT ISZERO PUSH2 0xA8D JUMPI PUSH2 0xA8C PUSH2 0x17CB JUMP JUMPDEST JUMPDEST PUSH0 PUSH1 0x14 SWAP1 SLOAD SWAP1 PUSH2 0x100 EXP SWAP1 DIV PUSH1 0xFF AND PUSH1 0x5 DUP2 GT ISZERO PUSH2 0xAAE JUMPI PUSH2 0xAAD PUSH2 0x17CB JUMP JUMPDEST JUMPDEST EQ PUSH2 0xAEE JUMPI PUSH1 0x40 MLOAD PUSH32 0x8C379A000000000000000000000000000000000000000000000000000000000 DUP2 MSTORE PUSH1 0x4 ADD PUSH2 0xAE5 SWAP1 PUSH2 0x18F0 JUMP JUMPDEST PUSH1 0x40 MLOAD DUP1 SWAP2 SUB SWAP1 REVERT JUMPDEST PUSH1 0x2 PUSH0 CALLER PUSH20 0xFFFFFFFFFFFFFFFFFFFFFFFFFFFFFFFFFFFFFFFF AND PUSH20 0xFFFFFFFFFFFFFFFFFFFFFFFFFFFFFFFFFFFFFFFF AND DUP2 MSTORE PUSH1 0x20 ADD SWAP1 DUP2 MSTORE PUSH1 0x20 ADD PUSH0 KECCAK256 PUSH0 ADD PUSH0 SWAP1 SLOAD SWAP1 PUSH2 0x100 EXP SWAP1 DIV PUSH1 0xFF AND PUSH2 0xB79 JUMPI PUSH1 0x40 MLOAD PUSH32 0x8C379A000000000000000000000000000000000000000000000000000000000 DUP2 MSTORE PUSH1 0x4 ADD PUSH2 0xB70 SWAP1 PUSH2 0x1958 JUMP JUMPDEST PUSH1 0x40 MLOAD DUP1 SWAP2 SUB SWAP1 REVERT JUMPDEST PUSH1 0x2 PUSH0 CALLER PUSH20 0xFFFFFFFFFFFFFFFFFFFFFFFFFFFFFFFFFFFFFFFF AND PUSH20 0xFFFFFFFFFFFFFFFFFFFFFFFFFFFFFFFFFFFFFFFF AND DUP2 MSTORE PUSH1 0x20 ADD SWAP1 DUP2 MSTORE PUSH1 0x20 ADD PUSH0 KECCAK256 PUSH0 ADD PUSH1 0x1 SWAP1 SLOAD SWAP1 PUSH2 0x100 EXP SWAP1 DIV PUSH1 0xFF AND PUSH2 0xC05 JUMPI PUSH1 0x40 MLOAD PUSH32 0x8C379A000000000000000000000000000000000000000000000000000000000 DUP2 MSTORE PUSH1 0x4 ADD PUSH2 0xBFC SWAP1 PUSH2 0x1EBC JUMP JUMPDEST PUSH1 0x40 MLOAD DUP1 SWAP2 SUB SWAP1 REVERT JUMPDEST PUSH0 PUSH1 0x2 PUSH0 CALLER PUSH20 0xFFFFFFFFFFFFFFFFFFFFFFFFFFFFFFFFFFFFFFFF AND PUSH20 0xFFFFFFFFFFFFFFFFFFFFFFFFFFFFFFFFFFFFFFFF AND DUP2 MSTORE PUSH1 0x20 ADD SWAP1 DUP2 MSTORE PUSH1 0x20 ADD PUSH0 KECCAK256 PUSH1 0x1 ADD SLOAD SWAP1 POP PUSH0 PUSH1 0x2 PUSH0 CALLER PUSH20 0xFFFFFFFFFFFFFFFFFFFFFFFFFFFFFFFFFFFFFFFF AND PUSH20 0xFFFFFFFFFFFFFFFFFFFFFFFFFFFFFFFFFFFFFFFF AND DUP2 MSTORE PUSH1 0x20 ADD SWAP1 DUP2 MSTORE PUSH1 0x20 ADD PUSH0 KECCAK256 PUSH0 ADD PUSH1 0x1 PUSH2 0x100 EXP DUP2 SLOAD DUP2 PUSH1 0xFF MUL NOT AND SWAP1 DUP4 ISZERO ISZERO MUL OR SWAP1 SSTORE POP PUSH0 PUSH1 0x2 PUSH0 CALLER PUSH20 0xFFFFFFFFFFFFFFFFFFFFFFFFFFFFFFFFFFFFFFFF AND PUSH20 0xFFFFFFFFFFFFFFFFFFFFFFFFFFFFFFFFFFFFFFFF AND DUP2 MSTORE PUSH1 0x20 ADD SWAP1 DUP2 MSTORE PUSH1 0x20 ADD PUSH0 KECCAK256 PUSH1 0x1 ADD DUP2 SWAP1 SSTORE POP PUSH1 0x1 DUP2 DUP2 SLOAD DUP2 LT PUSH2 0xCF9 JUMPI PUSH2 0xCF8 PUSH2 0x1A46 JUMP JUMPDEST JUMPDEST SWAP1 PUSH0 MSTORE PUSH1 0x20 PUSH0 KECCAK256 SWAP1 PUSH1 0x2 MUL ADD PUSH1 0x1 ADD PUSH0 DUP2 SLOAD DUP1 SWAP3 SWAP2 SWAP1 PUSH2 0xD18 SWAP1 PUSH2 0x1EDA JUMP JUMPDEST SWAP2 SWAP1 POP SSTORE POP CALLER PUSH20 0xFFFFFFFFFFFFFFFFFFFFFFFFFFFFFFFFFFFFFFFF AND PUSH32 0x4D99B957A2BC29A30EBD96A7BE8E68FE50A3C701DB28A91436490B7D53870CA4 PUSH0 PUSH1 0x40 MLOAD PUSH2 0xD63 SWAP2 SWAP1 PUSH2 0x1F3A JUMP JUMPDEST PUSH1 0x40 MLOAD DUP1 SWAP2 SUB SWAP1 LOG2 POP POP JUMP JUMPDEST PUSH2 0xD77 PUSH2 0x130D JUMP JUMPDEST PUSH1 0x1 DUP1 PUSH1 0x5 DUP2 GT ISZERO PUSH2 0xD8C JUMPI PUSH2 0xD8B PUSH2 0x17CB JUMP JUMPDEST JUMPDEST PUSH0 PUSH1 0x14 SWAP1 SLOAD SWAP1 PUSH2 0x100 EXP SWAP1 DIV PUSH1 0xFF AND PUSH1 0x5 DUP2 GT ISZERO PUSH2 0xDAD JUMPI PUSH2 0xDAC PUSH2 0x17CB JUMP JUMPDEST JUMPDEST EQ PUSH2 0xDED JUMPI PUSH1 0x40 MLOAD PUSH32 0x8C379A000000000000000000000000000000000000000000000000000000000 DUP2 MSTORE PUSH1 0x4 ADD PUSH2 0xDE4 SWAP1 PUSH2 0x18F0 JUMP JUMPDEST PUSH1 0x40 MLOAD DUP1 SWAP2 SUB SWAP1 REVERT JUMPDEST PUSH1 0x2 PUSH0 PUSH1 0x14 PUSH2 0x100 EXP DUP2 SLOAD DUP2 PUSH1 0xFF MUL NOT AND SWAP1 DUP4 PUSH1 0x5 DUP2 GT ISZERO PUSH2 0xE12 JUMPI PUSH2 0xE11 PUSH2 0x17CB JUMP JUMPDEST JUMPDEST MUL OR SWAP1 SSTORE POP PUSH32 0xA97A4EE45751E2ABF3E4FC8946939630B11B371EA8AE39CCDC3056E98F5CC3F PUSH1 0x1 PUSH1 0x2 PUSH1 0x40 MLOAD PUSH2 0xE4A SWAP3 SWAP2 SWAP1 PUSH2 0x1DE3 JUMP JUMPDEST PUSH1 0x40 MLOAD DUP1 SWAP2 SUB SWAP1 LOG1 POP JUMP JUMPDEST PUSH2 0xE5D PUSH2 0x130D JUMP JUMPDEST PUSH2 0xE66 PUSH0 PUSH2 0x1394 JUMP JUMPDEST JUMP JUMPDEST PUSH0 DUP1 PUSH0 SWAP1 SLOAD SWAP1 PUSH2 0x100 EXP SWAP1 DIV PUSH20 0xFFFFFFFFFFFFFFFFFFFFFFFFFFFFFFFFFFFFFFFF AND SWAP1 POP SWAP1 JUMP JUMPDEST PUSH0 PUSH1 0x5 DUP1 PUSH1 0x5 DUP2 GT ISZERO PUSH2 0xEA5 JUMPI PUSH2 0xEA4 PUSH2 0x17CB JUMP JUMPDEST JUMPDEST PUSH0 PUSH1 0x14 SWAP1 SLOAD SWAP1 PUSH2 0x100 EXP SWAP1 DIV PUSH1 0xFF AND PUSH1 0x5 DUP2 GT ISZERO PUSH2 0xEC6 JUMPI PUSH2 0xEC5 PUSH2 0x17CB JUMP JUMPDEST JUMPDEST EQ PUSH2 0xF06 JUMPI PUSH1 0x40 MLOAD PUSH32 0x8C379A000000000000000000000000000000000000000000000000000000000 DUP2 MSTORE PUSH1 0x4 ADD PUSH2 0xEFD SWAP1 PUSH2 0x18F0 JUMP JUMPDEST PUSH1 0x40 MLOAD DUP1 SWAP2 SUB SWAP1 REVERT JUMPDEST PUSH1 0x5 DUP1 DUP2 GT ISZERO PUSH2 0xF19 JUMPI PUSH2 0xF18 PUSH2 0x17CB JUMP JUMPDEST JUMPDEST PUSH0 PUSH1 0x14 SWAP1 SLOAD SWAP1 PUSH2 0x100 EXP SWAP1 DIV PUSH1 0xFF AND PUSH1 0x5 DUP2 GT ISZERO PUSH2 0xF3A JUMPI PUSH2 0xF39 PUSH2 0x17CB JUMP JUMPDEST JUMPDEST EQ PUSH2 0xF7A JUMPI PUSH1 0x40 MLOAD PUSH32 0x8C379A000000000000000000000000000000000000000000000000000000000 DUP2 MSTORE PUSH1 0x4 ADD PUSH2 0xF71 SWAP1 PUSH2 0x1F9D JUMP JUMPDEST PUSH1 0x40 MLOAD DUP1 SWAP2 SUB SWAP1 REVERT JUMPDEST PUSH1 0x3 SLOAD SWAP2 POP POP SWAP1 JUMP JUMPDEST PUSH0 PUSH1 0x14 SWAP1 SLOAD SWAP1 PUSH2 0x100 EXP SWAP1 DIV PUSH1 0xFF AND DUP2 JUMP JUMPDEST PUSH1 0x2 PUSH1 0x20 MSTORE DUP1 PUSH0 MSTORE PUSH1 0x40 PUSH0 KECCAK256 PUSH0 SWAP2 POP SWAP1 POP DUP1 PUSH0 ADD PUSH0 SWAP1 SLOAD SWAP1 PUSH2 0x100 EXP SWAP1 DIV PUSH1 0xFF AND SWAP1 DUP1 PUSH0 ADD PUSH1 0x1 SWAP1 SLOAD SWAP1 PUSH2 0x100 EXP SWAP1 DIV PUSH1 0xFF AND SWAP1 DUP1 PUSH1 0x1 ADD SLOAD SWAP1 POP DUP4 JUMP JUMPDEST PUSH2 0xFDB PUSH2 0x130D JUMP JUMPDEST PUSH1 0x3 DUP1 PUSH1 0x5 DUP2 GT ISZERO PUSH2 0xFF0 JUMPI PUSH2 0xFEF PUSH2 0x17CB JUMP JUMPDEST JUMPDEST PUSH0 PUSH1 0x14 SWAP1 SLOAD SWAP1 PUSH2 0x100 EXP SWAP1 DIV PUSH1 0xFF AND PUSH1 0x5 DUP2 GT ISZERO PUSH2 0x1011 JUMPI PUSH2 0x1010 PUSH2 0x17CB JUMP JUMPDEST JUMPDEST EQ PUSH2 0x1051 JUMPI PUSH1 0x40 MLOAD PUSH32 0x8C379A000000000000000000000000000000000000000000000000000000000 DUP2 MSTORE PUSH1 0x4 ADD PUSH2 0x1048 SWAP1 PUSH2 0x18F0 JUMP JUMPDEST PUSH1 0x40 MLOAD DUP1 SWAP2 SUB SWAP1 REVERT JUMPDEST PUSH1 0x4 PUSH0 PUSH1 0x14 PUSH2 0x100 EXP DUP2 SLOAD DUP2 PUSH1 0xFF MUL NOT AND SWAP1 DUP4 PUSH1 0x5 DUP2 GT ISZERO PUSH2 0x1076 JUMPI PUSH2 0x1075 PUSH2 0x17CB JUMP JUMPDEST JUMPDEST MUL OR SWAP1 SSTORE POP PUSH32 0xA97A4EE45751E2ABF3E4FC8946939630B11B371EA8AE39CCDC3056E98F5CC3F PUSH1 0x3 PUSH1 0x4 PUSH1 0x40 MLOAD PUSH2 0x10AE SWAP3 SWAP2 SWAP1 PUSH2 0x1DE3 JUMP JUMPDEST PUSH1 0x40 MLOAD DUP1 SWAP2 SUB SWAP1 LOG1 POP JUMP JUMPDEST PUSH1 0x3 SLOAD DUP2 JUMP JUMPDEST PUSH2 0x10C7 PUSH2 0x130D JUMP JUMPDEST PUSH0 DUP1 PUSH1 0x5 DUP2 GT ISZERO PUSH2 0x10DB JUMPI PUSH2 0x10DA PUSH2 0x17CB JUMP JUMPDEST JUMPDEST PUSH0 PUSH1 0x14 SWAP1 SLOAD SWAP1 PUSH2 0x100 EXP SWAP1 DIV PUSH1 0xFF AND PUSH1 0x5 DUP2 GT ISZERO PUSH2 0x10FC JUMPI PUSH2 0x10FB PUSH2 0x17CB JUMP JUMPDEST JUMPDEST EQ PUSH2 0x113C JUMPI PUSH1 0x40 MLOAD PUSH32 0x8C379A000000000000000000000000000000000000000000000000000000000 DUP2 MSTORE PUSH1 0x4 ADD PUSH2 0x1133 SWAP1 PUSH2 0x18F0 JUMP JUMPDEST PUSH1 0x40 MLOAD DUP1 SWAP2 SUB SWAP1 REVERT JUMPDEST PUSH1 0x1 PUSH0 PUSH1 0x14 PUSH2 0x100 EXP DUP2 SLOAD DUP2 PUSH1 0xFF MUL NOT AND SWAP1 DUP4 PUSH1 0x5 DUP2 GT ISZERO PUSH2 0x1161 JUMPI PUSH2 0x1160 PUSH2 0x17CB JUMP JUMPDEST JUMPDEST MUL OR SWAP1 SSTORE POP PUSH32 0xA97A4EE45751E2ABF3E4FC8946939630B11B371EA8AE39CCDC3056E98F5CC3F PUSH0 PUSH1 0x1 PUSH1 0x40 MLOAD PUSH2 0x1198 SWAP3 SWAP2 SWAP1 PUSH2 0x1DE3 JUMP JUMPDEST PUSH1 0x40 MLOAD DUP1 SWAP2 SUB SWAP1 LOG1 POP JUMP JUMPDEST PUSH2 0x11AB PUSH2 0x130D JUMP JUMPDEST PUSH1 0x2 DUP1 PUSH1 0x5 DUP2 GT ISZERO PUSH2 0x11C0 JUMPI PUSH2 0x11BF PUSH2 0x17CB JUMP JUMPDEST JUMPDEST PUSH0 PUSH1 0x14 SWAP1 SLOAD SWAP1 PUSH2 0x100 EXP SWAP1 DIV PUSH1 0xFF AND PUSH1 0x5 DUP2 GT ISZERO PUSH2 0x11E1 JUMPI PUSH2 0x11E0 PUSH2 0x17CB JUMP JUMPDEST JUMPDEST EQ PUSH2 0x1221 JUMPI PUSH1 0x40 MLOAD PUSH32 0x8C379A000000000000000000000000000000000000000000000000000000000 DUP2 MSTORE PUSH1 0x4 ADD PUSH2 0x1218 SWAP1 PUSH2 0x18F0 JUMP JUMPDEST PUSH1 0x40 MLOAD DUP1 SWAP2 SUB SWAP1 REVERT JUMPDEST PUSH1 0x3 PUSH0 PUSH1 0x14 PUSH2 0x100 EXP DUP2 SLOAD DUP2 PUSH1 0xFF MUL NOT AND SWAP1 DUP4 PUSH1 0x5 DUP2 GT ISZERO PUSH2 0x1246 JUMPI PUSH2 0x1245 PUSH2 0x17CB JUMP JUMPDEST JUMPDEST MUL OR SWAP1 SSTORE POP PUSH32 0xA97A4EE45751E2ABF3E4FC8946939630B11B371EA8AE39CCDC3056E98F5CC3F PUSH1 0x2 PUSH1 0x3 PUSH1 0x40 MLOAD PUSH2 0x127E SWAP3 SWAP2 SWAP1 PUSH2 0x1DE3 JUMP JUMPDEST PUSH1 0x40 MLOAD DUP1 SWAP2 SUB SWAP1 LOG1 POP JUMP JUMPDEST PUSH2 0x1291 PUSH2 0x130D JUMP JUMPDEST PUSH0 PUSH20 0xFFFFFFFFFFFFFFFFFFFFFFFFFFFFFFFFFFFFFFFF AND DUP2 PUSH20 0xFFFFFFFFFFFFFFFFFFFFFFFFFFFFFFFFFFFFFFFF AND SUB PUSH2 0x1301 JUMPI PUSH0 PUSH1 0x40 MLOAD PUSH32 0x1E4FBDF700000000000000000000000000000000000000000000000000000000 DUP2 MSTORE PUSH1 0x4 ADD PUSH2 0x12F8 SWAP2 SWAP1 PUSH2 0x1799 JUMP JUMPDEST PUSH1 0x40 MLOAD DUP1 SWAP2 SUB SWAP1 REVERT JUMPDEST PUSH2 0x130A DUP2 PUSH2 0x1394 JUMP JUMPDEST POP JUMP JUMPDEST PUSH2 0x1315 PUSH2 0x1455 JUMP JUMPDEST PUSH20 0xFFFFFFFFFFFFFFFFFFFFFFFFFFFFFFFFFFFFFFFF AND PUSH2 0x1333 PUSH2 0xE68 JUMP JUMPDEST PUSH20 0xFFFFFFFFFFFFFFFFFFFFFFFFFFFFFFFFFFFFFFFF AND EQ PUSH2 0x1392 JUMPI PUSH2 0x1356 PUSH2 0x1455 JUMP JUMPDEST PUSH1 0x40 MLOAD PUSH32 0x118CDAA700000000000000000000000000000000000000000000000000000000 DUP2 MSTORE PUSH1 0x4 ADD PUSH2 0x1389 SWAP2 SWAP1 PUSH2 0x1799 JUMP JUMPDEST PUSH1 0x40 MLOAD DUP1 SWAP2 SUB SWAP1 REVERT JUMPDEST JUMP JUMPDEST PUSH0 DUP1 PUSH0 SWAP1 SLOAD SWAP1 PUSH2 0x100 EXP SWAP1 DIV PUSH20 0xFFFFFFFFFFFFFFFFFFFFFFFFFFFFFFFFFFFFFFFF AND SWAP1 POP DUP2 PUSH0 DUP1 PUSH2 0x100 EXP DUP2 SLOAD DUP2 PUSH20 0xFFFFFFFFFFFFFFFFFFFFFFFFFFFFFFFFFFFFFFFF MUL NOT AND SWAP1 DUP4 PUSH20 0xFFFFFFFFFFFFFFFFFFFFFFFFFFFFFFFFFFFFFFFF AND MUL OR SWAP1 SSTORE POP DUP2 PUSH20 0xFFFFFFFFFFFFFFFFFFFFFFFFFFFFFFFFFFFFFFFF AND DUP2 PUSH20 0xFFFFFFFFFFFFFFFFFFFFFFFFFFFFFFFFFFFFFFFF AND PUSH32 0x8BE0079C531659141344CD1FD0A4F28419497F9722A3DAAFE3B4186F6B6457E0 PUSH1 0x40 MLOAD PUSH1 0x40 MLOAD DUP1 SWAP2 SUB SWAP1 LOG3 POP POP JUMP JUMPDEST PUSH0 CALLER SWAP1 POP SWAP1 JUMP JUMPDEST PUSH0 PUSH1 0x40 MLOAD SWAP1 POP SWAP1 JUMP JUMPDEST PUSH0 DUP1 REVERT JUMPDEST PUSH0 DUP1 REVERT JUMPDEST PUSH0 DUP2 SWAP1 POP SWAP2 SWAP1 POP JUMP JUMPDEST PUSH2 0x147F DUP2 PUSH2 0x146D JUMP JUMPDEST DUP2 EQ PUSH2 0x1489 JUMPI PUSH0 DUP1 REVERT JUMPDEST POP JUMP JUMPDEST PUSH0 DUP2 CALLDATALOAD SWAP1 POP PUSH2 0x149A DUP2 PUSH2 0x1476 JUMP JUMPDEST SWAP3 SWAP2 POP POP JUMP JUMPDEST PUSH0 PUSH1 0x20 DUP3 DUP5 SUB SLT ISZERO PUSH2 0x14B5 JUMPI PUSH2 0x14B4 PUSH2 0x1465 JUMP JUMPDEST JUMPDEST PUSH0 PUSH2 0x14C2 DUP5 DUP3 DUP6 ADD PUSH2 0x148C JUMP JUMPDEST SWAP2 POP POP SWAP3 SWAP2 POP POP JUMP JUMPDEST PUSH0 DUP2 MLOAD SWAP1 POP SWAP2 SWAP1 POP JUMP JUMPDEST PUSH0 DUP3 DUP3 MSTORE PUSH1 0x20 DUP3 ADD SWAP1 POP SWAP3 SWAP2 POP POP JUMP JUMPDEST PUSH0 JUMPDEST DUP4 DUP2 LT ISZERO PUSH2 0x1502 JUMPI DUP1 DUP3 ADD MLOAD DUP2 DUP5 ADD MSTORE PUSH1 0x20 DUP2 ADD SWAP1 POP PUSH2 0x14E7 JUMP JUMPDEST PUSH0 DUP5 DUP5 ADD MSTORE POP POP POP POP JUMP JUMPDEST PUSH0 PUSH1 0x1F NOT PUSH1 0x1F DUP4 ADD AND SWAP1 POP SWAP2 SWAP1 POP JUMP JUMPDEST PUSH0 PUSH2 0x1527 DUP3 PUSH2 0x14CB JUMP JUMPDEST PUSH2 0x1531 DUP2 DUP6 PUSH2 0x14D5 JUMP JUMPDEST SWAP4 POP PUSH2 0x1541 DUP2 DUP6 PUSH1 0x20 DUP7 ADD PUSH2 0x14E5 JUMP JUMPDEST PUSH2 0x154A DUP2 PUSH2 0x150D JUMP JUMPDEST DUP5 ADD SWAP2 POP POP SWAP3 SWAP2 POP POP JUMP JUMPDEST PUSH2 0x155E DUP2 PUSH2 0x146D JUMP JUMPDEST DUP3 MSTORE POP POP JUMP JUMPDEST PUSH0 PUSH1 0x40 DUP3 ADD SWAP1 POP DUP2 DUP2 SUB PUSH0 DUP4 ADD MSTORE PUSH2 0x157C DUP2 DUP6 PUSH2 0x151D JUMP JUMPDEST SWAP1 POP PUSH2 0x158B PUSH1 0x20 DUP4 ADD DUP5 PUSH2 0x1555 JUMP JUMPDEST SWAP4 SWAP3 POP POP POP JUMP JUMPDEST PUSH0 DUP1 REVERT JUMPDEST PUSH0 DUP1 REVERT JUMPDEST PUSH32 0x4E487B7100000000000000000000000000000000000000000000000000000000 PUSH0 MSTORE PUSH1 0x41 PUSH1 0x4 MSTORE PUSH1 0x24 PUSH0 REVERT JUMPDEST PUSH2 0x15D0 DUP3 PUSH2 0x150D JUMP JUMPDEST DUP2 ADD DUP2 DUP2 LT PUSH8 0xFFFFFFFFFFFFFFFF DUP3 GT OR ISZERO PUSH2 0x15EF JUMPI PUSH2 0x15EE PUSH2 0x159A JUMP JUMPDEST JUMPDEST DUP1 PUSH1 0x40 MSTORE POP POP POP JUMP JUMPDEST PUSH0 PUSH2 0x1601 PUSH2 0x145C JUMP JUMPDEST SWAP1 POP PUSH2 0x160D DUP3 DUP3 PUSH2 0x15C7 JUMP JUMPDEST SWAP2 SWAP1 POP JUMP JUMPDEST PUSH0 PUSH8 0xFFFFFFFFFFFFFFFF DUP3 GT ISZERO PUSH2 0x162C JUMPI PUSH2 0x162B PUSH2 0x159A JUMP JUMPDEST JUMPDEST PUSH2 0x1635 DUP3 PUSH2 0x150D JUMP JUMPDEST SWAP1 POP PUSH1 0x20 DUP2 ADD SWAP1 POP SWAP2 SWAP1 POP JUMP JUMPDEST DUP3 DUP2 DUP4 CALLDATACOPY PUSH0 DUP4 DUP4 ADD MSTORE POP POP POP JUMP JUMPDEST PUSH0 PUSH2 0x1662 PUSH2 0x165D DUP5 PUSH2 0x1612 JUMP JUMPDEST PUSH2 0x15F8 JUMP JUMPDEST SWAP1 POP DUP3 DUP2 MSTORE PUSH1 0x20 DUP2 ADD DUP5 DUP5 DUP5 ADD GT ISZERO PUSH2 0x167E JUMPI PUSH2 0x167D PUSH2 0x1596 JUMP JUMPDEST JUMPDEST PUSH2 0x1689 DUP5 DUP3 DUP6 PUSH2 0x1642 JUMP JUMPDEST POP SWAP4 SWAP3 POP POP POP JUMP JUMPDEST PUSH0 DUP3 PUSH1 0x1F DUP4 ADD SLT PUSH2 0x16A5 JUMPI PUSH2 0x16A4 PUSH2 0x1592 JUMP JUMPDEST JUMPDEST DUP2 CALLDATALOAD PUSH2 0x16B5 DUP5 DUP3 PUSH1 0x20 DUP7 ADD PUSH2 0x1650 JUMP JUMPDEST SWAP2 POP POP SWAP3 SWAP2 POP POP JUMP JUMPDEST PUSH0 PUSH1 0x20 DUP3 DUP5 SUB SLT ISZERO PUSH2 0x16D3 JUMPI PUSH2 0x16D2 PUSH2 0x1465 JUMP JUMPDEST JUMPDEST PUSH0 DUP3 ADD CALLDATALOAD PUSH8 0xFFFFFFFFFFFFFFFF DUP2 GT ISZERO PUSH2 0x16F0 JUMPI PUSH2 0x16EF PUSH2 0x1469 JUMP JUMPDEST JUMPDEST PUSH2 0x16FC DUP5 DUP3 DUP6 ADD PUSH2 0x1691 JUMP JUMPDEST SWAP2 POP POP SWAP3 SWAP2 POP POP JUMP JUMPDEST PUSH0 PUSH20 0xFFFFFFFFFFFFFFFFFFFFFFFFFFFFFFFFFFFFFFFF DUP3 AND SWAP1 POP SWAP2 SWAP1 POP JUMP JUMPDEST PUSH0 PUSH2 0x172E DUP3 PUSH2 0x1705 JUMP JUMPDEST SWAP1 POP SWAP2 SWAP1 POP JUMP JUMPDEST PUSH2 0x173E DUP2 PUSH2 0x1724 JUMP JUMPDEST DUP2 EQ PUSH2 0x1748 JUMPI PUSH0 DUP1 REVERT JUMPDEST POP JUMP JUMPDEST PUSH0 DUP2 CALLDATALOAD SWAP1 POP PUSH2 0x1759 DUP2 PUSH2 0x1735 JUMP JUMPDEST SWAP3 SWAP2 POP POP JUMP JUMPDEST PUSH0 PUSH1 0x20 DUP3 DUP5 SUB SLT ISZERO PUSH2 0x1774 JUMPI PUSH2 0x1773 PUSH2 0x1465 JUMP JUMPDEST JUMPDEST PUSH0 PUSH2 0x1781 DUP5 DUP3 DUP6 ADD PUSH2 0x174B JUMP JUMPDEST SWAP2 POP POP SWAP3 SWAP2 POP POP JUMP JUMPDEST PUSH2 0x1793 DUP2 PUSH2 0x1724 JUMP JUMPDEST DUP3 MSTORE POP POP JUMP JUMPDEST PUSH0 PUSH1 0x20 DUP3 ADD SWAP1 POP PUSH2 0x17AC PUSH0 DUP4 ADD DUP5 PUSH2 0x178A JUMP JUMPDEST SWAP3 SWAP2 POP POP JUMP JUMPDEST PUSH0 PUSH1 0x20 DUP3 ADD SWAP1 POP PUSH2 0x17C5 PUSH0 DUP4 ADD DUP5 PUSH2 0x1555 JUMP JUMPDEST SWAP3 SWAP2 POP POP JUMP JUMPDEST PUSH32 0x4E487B7100000000000000000000000000000000000000000000000000000000 PUSH0 MSTORE PUSH1 0x21 PUSH1 0x4 MSTORE PUSH1 0x24 PUSH0 REVERT JUMPDEST PUSH1 0x6 DUP2 LT PUSH2 0x1809 JUMPI PUSH2 0x1808 PUSH2 0x17CB JUMP JUMPDEST JUMPDEST POP JUMP JUMPDEST PUSH0 DUP2 SWAP1 POP PUSH2 0x1819 DUP3 PUSH2 0x17F8 JUMP JUMPDEST SWAP2 SWAP1 POP JUMP JUMPDEST PUSH0 PUSH2 0x1828 DUP3 PUSH2 0x180C JUMP JUMPDEST SWAP1 POP SWAP2 SWAP1 POP JUMP JUMPDEST PUSH2 0x1838 DUP2 PUSH2 0x181E JUMP JUMPDEST DUP3 MSTORE POP POP JUMP JUMPDEST PUSH0 PUSH1 0x20 DUP3 ADD SWAP1 POP PUSH2 0x1851 PUSH0 DUP4 ADD DUP5 PUSH2 0x182F JUMP JUMPDEST SWAP3 SWAP2 POP POP JUMP JUMPDEST PUSH0 DUP2 ISZERO ISZERO SWAP1 POP SWAP2 SWAP1 POP JUMP JUMPDEST PUSH2 0x186B DUP2 PUSH2 0x1857 JUMP JUMPDEST DUP3 MSTORE POP POP JUMP JUMPDEST PUSH0 PUSH1 0x60 DUP3 ADD SWAP1 POP PUSH2 0x1884 PUSH0 DUP4 ADD DUP7 PUSH2 0x1862 JUMP JUMPDEST PUSH2 0x1891 PUSH1 0x20 DUP4 ADD DUP6 PUSH2 0x1862 JUMP JUMPDEST PUSH2 0x189E PUSH1 0x40 DUP4 ADD DUP5 PUSH2 0x1555 JUMP JUMPDEST SWAP5 SWAP4 POP POP POP POP JUMP JUMPDEST PUSH32 0x496E76616C696420776F726B666C6F7720737461747573000000000000000000 PUSH0 DUP3 ADD MSTORE POP JUMP JUMPDEST PUSH0 PUSH2 0x18DA PUSH1 0x17 DUP4 PUSH2 0x14D5 JUMP JUMPDEST SWAP2 POP PUSH2 0x18E5 DUP3 PUSH2 0x18A6 JUMP JUMPDEST PUSH1 0x20 DUP3 ADD SWAP1 POP SWAP2 SWAP1 POP JUMP JUMPDEST PUSH0 PUSH1 0x20 DUP3 ADD SWAP1 POP DUP2 DUP2 SUB PUSH0 DUP4 ADD MSTORE PUSH2 0x1907 DUP2 PUSH2 0x18CE JUMP JUMPDEST SWAP1 POP SWAP2 SWAP1 POP JUMP JUMPDEST PUSH32 0x566F746572206973206E6F742072656769737465726564000000000000000000 PUSH0 DUP3 ADD MSTORE POP JUMP JUMPDEST PUSH0 PUSH2 0x1942 PUSH1 0x17 DUP4 PUSH2 0x14D5 JUMP JUMPDEST SWAP2 POP PUSH2 0x194D DUP3 PUSH2 0x190E JUMP JUMPDEST PUSH1 0x20 DUP3 ADD SWAP1 POP SWAP2 SWAP1 POP JUMP JUMPDEST PUSH0 PUSH1 0x20 DUP3 ADD SWAP1 POP DUP2 DUP2 SUB PUSH0 DUP4 ADD MSTORE PUSH2 0x196F DUP2 PUSH2 0x1936 JUMP JUMPDEST SWAP1 POP SWAP2 SWAP1 POP JUMP JUMPDEST PUSH32 0x566F7465722068617320616C726561647920766F746564000000000000000000 PUSH0 DUP3 ADD MSTORE POP JUMP JUMPDEST PUSH0 PUSH2 0x19AA PUSH1 0x17 DUP4 PUSH2 0x14D5 JUMP JUMPDEST SWAP2 POP PUSH2 0x19B5 DUP3 PUSH2 0x1976 JUMP JUMPDEST PUSH1 0x20 DUP3 ADD SWAP1 POP SWAP2 SWAP1 POP JUMP JUMPDEST PUSH0 PUSH1 0x20 DUP3 ADD SWAP1 POP DUP2 DUP2 SUB PUSH0 DUP4 ADD MSTORE PUSH2 0x19D7 DUP2 PUSH2 0x199E JUMP JUMPDEST SWAP1 POP SWAP2 SWAP1 POP JUMP JUMPDEST PUSH32 0x496E76616C69642070726F706F73616C20494400000000000000000000000000 PUSH0 DUP3 ADD MSTORE POP JUMP JUMPDEST PUSH0 PUSH2 0x1A12 PUSH1 0x13 DUP4 PUSH2 0x14D5 JUMP JUMPDEST SWAP2 POP PUSH2 0x1A1D DUP3 PUSH2 0x19DE JUMP JUMPDEST PUSH1 0x20 DUP3 ADD SWAP1 POP SWAP2 SWAP1 POP JUMP JUMPDEST PUSH0 PUSH1 0x20 DUP3 ADD SWAP1 POP DUP2 DUP2 SUB PUSH0 DUP4 ADD MSTORE PUSH2 0x1A3F DUP2 PUSH2 0x1A06 JUMP JUMPDEST SWAP1 POP SWAP2 SWAP1 POP JUMP JUMPDEST PUSH32 0x4E487B7100000000000000000000000000000000000000000000000000000000 PUSH0 MSTORE PUSH1 0x32 PUSH1 0x4 MSTORE PUSH1 0x24 PUSH0 REVERT JUMPDEST PUSH32 0x4E487B7100000000000000000000000000000000000000000000000000000000 PUSH0 MSTORE PUSH1 0x11 PUSH1 0x4 MSTORE PUSH1 0x24 PUSH0 REVERT JUMPDEST PUSH0 PUSH2 0x1AAA DUP3 PUSH2 0x146D JUMP JUMPDEST SWAP2 POP PUSH32 0xFFFFFFFFFFFFFFFFFFFFFFFFFFFFFFFFFFFFFFFFFFFFFFFFFFFFFFFFFFFFFFFF DUP3 SUB PUSH2 0x1ADC JUMPI PUSH2 0x1ADB PUSH2 0x1A73 JUMP JUMPDEST JUMPDEST PUSH1 0x1 DUP3 ADD SWAP1 POP SWAP2 SWAP1 POP JUMP JUMPDEST PUSH32 0x4E487B7100000000000000000000000000000000000000000000000000000000 PUSH0 MSTORE PUSH1 0x22 PUSH1 0x4 MSTORE PUSH1 0x24 PUSH0 REVERT JUMPDEST PUSH0 PUSH1 0x2 DUP3 DIV SWAP1 POP PUSH1 0x1 DUP3 AND DUP1 PUSH2 0x1B2B JUMPI PUSH1 0x7F DUP3 AND SWAP2 POP JUMPDEST PUSH1 0x20 DUP3 LT DUP2 SUB PUSH2 0x1B3E JUMPI PUSH2 0x1B3D PUSH2 0x1AE7 JUMP JUMPDEST JUMPDEST POP SWAP2 SWAP1 POP JUMP JUMPDEST PUSH0 DUP2 SWAP1 POP DUP2 PUSH0 MSTORE PUSH1 0x20 PUSH0 KECCAK256 SWAP1 POP SWAP2 SWAP1 POP JUMP JUMPDEST PUSH0 PUSH1 0x20 PUSH1 0x1F DUP4 ADD DIV SWAP1 POP SWAP2 SWAP1 POP JUMP JUMPDEST PUSH0 DUP3 DUP3 SHL SWAP1 POP SWAP3 SWAP2 POP POP JUMP JUMPDEST PUSH0 PUSH1 0x8 DUP4 MUL PUSH2 0x1BA0 PUSH32 0xFFFFFFFFFFFFFFFFFFFFFFFFFFFFFFFFFFFFFFFFFFFFFFFFFFFFFFFFFFFFFFFF DUP3 PUSH2 0x1B65 JUMP JUMPDEST PUSH2 0x1BAA DUP7 DUP4 PUSH2 0x1B65 JUMP JUMPDEST SWAP6 POP DUP1 NOT DUP5 AND SWAP4 POP DUP1 DUP7 AND DUP5 OR SWAP3 POP POP POP SWAP4 SWAP3 POP POP POP JUMP JUMPDEST PUSH0 DUP2 SWAP1 POP SWAP2 SWAP1 POP JUMP JUMPDEST PUSH0 PUSH2 0x1BE5 PUSH2 0x1BE0 PUSH2 0x1BDB DUP5 PUSH2 0x146D JUMP JUMPDEST PUSH2 0x1BC2 JUMP JUMPDEST PUSH2 0x146D JUMP JUMPDEST SWAP1 POP SWAP2 SWAP1 POP JUMP JUMPDEST PUSH0 DUP2 SWAP1 POP SWAP2 SWAP1 POP JUMP JUMPDEST PUSH2 0x1BFE DUP4 PUSH2 0x1BCB JUMP JUMPDEST PUSH2 0x1C12 PUSH2 0x1C0A DUP3 PUSH2 0x1BEC JUMP JUMPDEST DUP5 DUP5 SLOAD PUSH2 0x1B71 JUMP JUMPDEST DUP3 SSTORE POP POP POP POP JUMP JUMPDEST PUSH0 SWAP1 JUMP JUMPDEST PUSH2 0x1C26 PUSH2 0x1C1A JUMP JUMPDEST PUSH2 0x1C31 DUP2 DUP5 DUP5 PUSH2 0x1BF5 JUMP JUMPDEST POP POP POP JUMP JUMPDEST JUMPDEST DUP2 DUP2 LT ISZERO PUSH2 0x1C54 JUMPI PUSH2 0x1C49 PUSH0 DUP3 PUSH2 0x1C1E JUMP JUMPDEST PUSH1 0x1 DUP2 ADD SWAP1 POP PUSH2 0x1C37 JUMP JUMPDEST POP POP JUMP JUMPDEST PUSH1 0x1F DUP3 GT ISZERO PUSH2 0x1C99 JUMPI PUSH2 0x1C6A DUP2 PUSH2 0x1B44 JUMP JUMPDEST PUSH2 0x1C73 DUP5 PUSH2 0x1B56 JUMP JUMPDEST DUP2 ADD PUSH1 0x20 DUP6 LT ISZERO PUSH2 0x1C82 JUMPI DUP2 SWAP1 POP JUMPDEST PUSH2 0x1C96 PUSH2 0x1C8E DUP6 PUSH2 0x1B56 JUMP JUMPDEST DUP4 ADD DUP3 PUSH2 0x1C36 JUMP JUMPDEST POP POP JUMPDEST POP POP POP JUMP JUMPDEST PUSH0 DUP3 DUP3 SHR SWAP1 POP SWAP3 SWAP2 POP POP JUMP JUMPDEST PUSH0 PUSH2 0x1CB9 PUSH0 NOT DUP5 PUSH1 0x8 MUL PUSH2 0x1C9E JUMP JUMPDEST NOT DUP1 DUP4 AND SWAP2 POP POP SWAP3 SWAP2 POP POP JUMP JUMPDEST PUSH0 PUSH2 0x1CD1 DUP4 DUP4 PUSH2 0x1CAA JUMP JUMPDEST SWAP2 POP DUP3 PUSH1 0x2 MUL DUP3 OR SWAP1 POP SWAP3 SWAP2 POP POP JUMP JUMPDEST PUSH2 0x1CEA DUP3 PUSH2 0x14CB JUMP JUMPDEST PUSH8 0xFFFFFFFFFFFFFFFF DUP2 GT ISZERO PUSH2 0x1D03 JUMPI PUSH2 0x1D02 PUSH2 0x159A JUMP JUMPDEST JUMPDEST PUSH2 0x1D0D DUP3 SLOAD PUSH2 0x1B14 JUMP JUMPDEST PUSH2 0x1D18 DUP3 DUP3 DUP6 PUSH2 0x1C58 JUMP JUMPDEST PUSH0 PUSH1 0x20 SWAP1 POP PUSH1 0x1F DUP4 GT PUSH1 0x1 DUP2 EQ PUSH2 0x1D49 JUMPI PUSH0 DUP5 ISZERO PUSH2 0x1D37 JUMPI DUP3 DUP8 ADD MLOAD SWAP1 POP JUMPDEST PUSH2 0x1D41 DUP6 DUP3 PUSH2 0x1CC6 JUMP JUMPDEST DUP7 SSTORE POP PUSH2 0x1DA8 JUMP JUMPDEST PUSH1 0x1F NOT DUP5 AND PUSH2 0x1D57 DUP7 PUSH2 0x1B44 JUMP JUMPDEST PUSH0 JUMPDEST DUP3 DUP2 LT ISZERO PUSH2 0x1D7E JUMPI DUP5 DUP10 ADD MLOAD DUP3 SSTORE PUSH1 0x1 DUP3 ADD SWAP2 POP PUSH1 0x20 DUP6 ADD SWAP5 POP PUSH1 0x20 DUP2 ADD SWAP1 POP PUSH2 0x1D59 JUMP JUMPDEST DUP7 DUP4 LT ISZERO PUSH2 0x1D9B JUMPI DUP5 DUP10 ADD MLOAD PUSH2 0x1D97 PUSH1 0x1F DUP10 AND DUP3 PUSH2 0x1CAA JUMP JUMPDEST DUP4 SSTORE POP JUMPDEST PUSH1 0x1 PUSH1 0x2 DUP9 MUL ADD DUP9 SSTORE POP POP POP JUMPDEST POP POP POP POP POP POP JUMP JUMPDEST PUSH0 PUSH2 0x1DBA DUP3 PUSH2 0x146D JUMP JUMPDEST SWAP2 POP PUSH2 0x1DC5 DUP4 PUSH2 0x146D JUMP JUMPDEST SWAP3 POP DUP3 DUP3 SUB SWAP1 POP DUP2 DUP2 GT ISZERO PUSH2 0x1DDD JUMPI PUSH2 0x1DDC PUSH2 0x1A73 JUMP JUMPDEST JUMPDEST SWAP3 SWAP2 POP POP JUMP JUMPDEST PUSH0 PUSH1 0x40 DUP3 ADD SWAP1 POP PUSH2 0x1DF6 PUSH0 DUP4 ADD DUP6 PUSH2 0x182F JUMP JUMPDEST PUSH2 0x1E03 PUSH1 0x20 DUP4 ADD DUP5 PUSH2 0x182F JUMP JUMPDEST SWAP4 SWAP3 POP POP POP JUMP JUMPDEST PUSH32 0x566F74657220697320616C726561647920726567697374657265640000000000 PUSH0 DUP3 ADD MSTORE POP JUMP JUMPDEST PUSH0 PUSH2 0x1E3E PUSH1 0x1B DUP4 PUSH2 0x14D5 JUMP JUMPDEST SWAP2 POP PUSH2 0x1E49 DUP3 PUSH2 0x1E0A JUMP JUMPDEST PUSH1 0x20 DUP3 ADD SWAP1 POP SWAP2 SWAP1 POP JUMP JUMPDEST PUSH0 PUSH1 0x20 DUP3 ADD SWAP1 POP DUP2 DUP2 SUB PUSH0 DUP4 ADD MSTORE PUSH2 0x1E6B DUP2 PUSH2 0x1E32 JUMP JUMPDEST SWAP1 POP SWAP2 SWAP1 POP JUMP JUMPDEST PUSH32 0x566F74657220686173206E6F7420766F74656420796574000000000000000000 PUSH0 DUP3 ADD MSTORE POP JUMP JUMPDEST PUSH0 PUSH2 0x1EA6 PUSH1 0x17 DUP4 PUSH2 0x14D5 JUMP JUMPDEST SWAP2 POP PUSH2 0x1EB1 DUP3 PUSH2 0x1E72 JUMP JUMPDEST PUSH1 0x20 DUP3 ADD SWAP1 POP SWAP2 SWAP1 POP JUMP JUMPDEST PUSH0 PUSH1 0x20 DUP3 ADD SWAP1 POP DUP2 DUP2 SUB PUSH0 DUP4 ADD MSTORE PUSH2 0x1ED3 DUP2 PUSH2 0x1E9A JUMP JUMPDEST SWAP1 POP SWAP2 SWAP1 POP JUMP JUMPDEST PUSH0 PUSH2 0x1EE4 DUP3 PUSH2 0x146D JUMP JUMPDEST SWAP2 POP PUSH0 DUP3 SUB PUSH2 0x1EF6 JUMPI PUSH2 0x1EF5 PUSH2 0x1A73 JUMP JUMPDEST JUMPDEST PUSH1 0x1 DUP3 SUB SWAP1 POP SWAP2 SWAP1 POP JUMP JUMPDEST PUSH0 DUP2 SWAP1 POP SWAP2 SWAP1 POP JUMP JUMPDEST PUSH0 PUSH2 0x1F24 PUSH2 0x1F1F PUSH2 0x1F1A DUP5 PUSH2 0x1F01 JUMP JUMPDEST PUSH2 0x1BC2 JUMP JUMPDEST PUSH2 0x146D JUMP JUMPDEST SWAP1 POP SWAP2 SWAP1 POP JUMP JUMPDEST PUSH2 0x1F34 DUP2 PUSH2 0x1F0A JUMP JUMPDEST DUP3 MSTORE POP POP JUMP JUMPDEST PUSH0 PUSH1 0x20 DUP3 ADD SWAP1 POP PUSH2 0x1F4D PUSH0 DUP4 ADD DUP5 PUSH2 0x1F2B JUMP JUMPDEST SWAP3 SWAP2 POP POP JUMP JUMPDEST PUSH32 0x566F74696E67206973206E6F742074616C6C6965642079657400000000000000 PUSH0 DUP3 ADD MSTORE POP JUMP JUMPDEST PUSH0 PUSH2 0x1F87 PUSH1 0x19 DUP4 PUSH2 0x14D5 JUMP JUMPDEST SWAP2 POP PUSH2 0x1F92 DUP3 PUSH2 0x1F53 JUMP JUMPDEST PUSH1 0x20 DUP3 ADD SWAP1 POP SWAP2 SWAP1 POP JUMP JUMPDEST PUSH0 PUSH1 0x20 DUP3 ADD SWAP1 POP DUP2 DUP2 SUB PUSH0 DUP4 ADD MSTORE PUSH2 0x1FB4 DUP2 PUSH2 0x1F7B JUMP JUMPDEST SWAP1 POP SWAP2 SWAP1 POP JUMP INVALID LOG2 PUSH5 0x6970667358 0x22 SLT KECCAK256 ADD EXTCODECOPY 0xF7 0xA7 STATICCALL EXP 0xAA 0xAC 0xD3 0xAD 0xB9 RETURNDATASIZE MSIZE ORIGIN 0x24 0xA5 BALANCE CALL 0xB7 0x2B 0x1E SWAP13 EXTCODESIZE PUSH7 0x51F5D0D9DDA24E 0xD8 PUSH5 0x736F6C6343 STOP ADDMOD ISZERO STOP CALLER "
				},
				"gasEstimates": {
					"creation": {
						"codeDepositCost": "1635400",
						"executionCost": "infinite",
						"totalCost": "infinite"
					},
					"external": {
						"endProposalsRegistration()": "infinite",
						"endVotingSession()": "infinite",
						"getWinner()": "7002",
						"owner()": "2538",
						"proposals(uint256)": "infinite",
						"registerProposal(string)": "infinite",
						"registerVoter(address)": "infinite",
						"renounceOwnership()": "infinite",
						"revokeVote()": "infinite",
						"startProposalsRegistration()": "infinite",
						"startVotingSession()": "infinite",
						"tallyVotes()": "infinite",
						"transferOwnership(address)": "infinite",
						"vote(uint256)": "infinite",
						"voters(address)": "infinite",
						"winningProposalId()": "2469",
						"workflowStatus()": "2671"
					}
				},
				"methodIdentifiers": {
					"endProposalsRegistration()": "6c297445",
					"endVotingSession()": "a7bfab16",
					"getWinner()": "8e7ea5b2",
					"owner()": "8da5cb5b",
					"proposals(uint256)": "013cf08b",
					"registerProposal(string)": "2f95355b",
					"registerVoter(address)": "38db6dd3",
					"renounceOwnership()": "715018a6",
					"revokeVote()": "43c14b22",
					"startProposalsRegistration()": "e09b8c79",
					"startVotingSession()": "ee74c678",
					"tallyVotes()": "378a2178",
					"transferOwnership(address)": "f2fde38b",
					"vote(uint256)": "0121b93f",
					"voters(address)": "a3ec138d",
					"winningProposalId()": "c64963c5",
					"workflowStatus()": "a1edffa2"
				}
			},
			"storageLayout": {
				"storage": [
					{
						"astId": 8,
						"contract": "contracts/Voting.sol:Voting",
						"label": "_owner",
						"offset": 0,
						"slot": "0",
						"type": "t_address"
					},
					{
						"astId": 198,
						"contract": "contracts/Voting.sol:Voting",
						"label": "workflowStatus",
						"offset": 20,
						"slot": "0",
						"type": "t_enum(WorkflowStatus)183"
					},
					{
						"astId": 202,
						"contract": "contracts/Voting.sol:Voting",
						"label": "proposals",
						"offset": 0,
						"slot": "1",
						"type": "t_array(t_struct(Proposal)195_storage)dyn_storage"
					},
					{
						"astId": 207,
						"contract": "contracts/Voting.sol:Voting",
						"label": "voters",
						"offset": 0,
						"slot": "2",
						"type": "t_mapping(t_address,t_struct(Voter)190_storage)"
					},
					{
						"astId": 209,
						"contract": "contracts/Voting.sol:Voting",
						"label": "winningProposalId",
						"offset": 0,
						"slot": "3",
						"type": "t_uint256"
					}
				],
				"types": {
					"t_address": {
						"encoding": "inplace",
						"label": "address",
						"numberOfBytes": "20"
					},
					"t_array(t_struct(Proposal)195_storage)dyn_storage": {
						"base": "t_struct(Proposal)195_storage",
						"encoding": "dynamic_array",
						"label": "struct Voting.Proposal[]",
						"numberOfBytes": "32"
					},
					"t_bool": {
						"encoding": "inplace",
						"label": "bool",
						"numberOfBytes": "1"
					},
					"t_enum(WorkflowStatus)183": {
						"encoding": "inplace",
						"label": "enum Voting.WorkflowStatus",
						"numberOfBytes": "1"
					},
					"t_mapping(t_address,t_struct(Voter)190_storage)": {
						"encoding": "mapping",
						"key": "t_address",
						"label": "mapping(address => struct Voting.Voter)",
						"numberOfBytes": "32",
						"value": "t_struct(Voter)190_storage"
					},
					"t_string_storage": {
						"encoding": "bytes",
						"label": "string",
						"numberOfBytes": "32"
					},
					"t_struct(Proposal)195_storage": {
						"encoding": "inplace",
						"label": "struct Voting.Proposal",
						"members": [
							{
								"astId": 192,
								"contract": "contracts/Voting.sol:Voting",
								"label": "description",
								"offset": 0,
								"slot": "0",
								"type": "t_string_storage"
							},
							{
								"astId": 194,
								"contract": "contracts/Voting.sol:Voting",
								"label": "voteCount",
								"offset": 0,
								"slot": "1",
								"type": "t_uint256"
							}
						],
						"numberOfBytes": "64"
					},
					"t_struct(Voter)190_storage": {
						"encoding": "inplace",
						"label": "struct Voting.Voter",
						"members": [
							{
								"astId": 185,
								"contract": "contracts/Voting.sol:Voting",
								"label": "isRegistered",
								"offset": 0,
								"slot": "0",
								"type": "t_bool"
							},
							{
								"astId": 187,
								"contract": "contracts/Voting.sol:Voting",
								"label": "hasVoted",
								"offset": 1,
								"slot": "0",
								"type": "t_bool"
							},
							{
								"astId": 189,
								"contract": "contracts/Voting.sol:Voting",
								"label": "votedProposalId",
								"offset": 0,
								"slot": "1",
								"type": "t_uint256"
							}
						],
						"numberOfBytes": "64"
					},
					"t_uint256": {
						"encoding": "inplace",
						"label": "uint256",
						"numberOfBytes": "32"
					}
				}
			},
			"userdoc": {
				"kind": "user",
				"methods": {},
				"version": 1
			}
		}
	}
}